{"contracts/HighestVoice.sol":{"HighestVoice":{"abi":[{"inputs":[],"stateMutability":"nonpayable","type":"constructor"},{"anonymous":false,"inputs":[{"indexed":true,"internalType":"address","name":"bidder","type":"address"},{"indexed":false,"internalType":"uint256","name":"auctionId","type":"uint256"}],"name":"NewCommit","type":"event"},{"anonymous":false,"inputs":[{"indexed":true,"internalType":"address","name":"bidder","type":"address"},{"indexed":false,"internalType":"uint256","name":"auctionId","type":"uint256"},{"indexed":false,"internalType":"uint256","name":"bid","type":"uint256"}],"name":"NewReveal","type":"event"},{"anonymous":false,"inputs":[{"indexed":true,"internalType":"address","name":"winner","type":"address"},{"indexed":false,"internalType":"uint256","name":"auctionId","type":"uint256"},{"indexed":false,"internalType":"uint256","name":"amount","type":"uint256"},{"indexed":false,"internalType":"string","name":"text","type":"string"},{"indexed":false,"internalType":"string","name":"imageCid","type":"string"},{"indexed":false,"internalType":"string","name":"voiceCid","type":"string"}],"name":"NewWinner","type":"event"},{"anonymous":false,"inputs":[{"indexed":true,"internalType":"address","name":"bidder","type":"address"},{"indexed":false,"internalType":"uint256","name":"auctionId","type":"uint256"},{"indexed":false,"internalType":"uint256","name":"amount","type":"uint256"}],"name":"Refund","type":"event"},{"inputs":[],"name":"COMMIT_DURATION","outputs":[{"internalType":"uint256","name":"","type":"uint256"}],"stateMutability":"view","type":"function"},{"inputs":[],"name":"IMAGE_CID_LIMIT","outputs":[{"internalType":"uint256","name":"","type":"uint256"}],"stateMutability":"view","type":"function"},{"inputs":[],"name":"REVEAL_DURATION","outputs":[{"internalType":"uint256","name":"","type":"uint256"}],"stateMutability":"view","type":"function"},{"inputs":[],"name":"VOICE_CID_LIMIT","outputs":[{"internalType":"uint256","name":"","type":"uint256"}],"stateMutability":"view","type":"function"},{"inputs":[],"name":"VOICE_SECONDS_LIMIT","outputs":[{"internalType":"uint256","name":"","type":"uint256"}],"stateMutability":"view","type":"function"},{"inputs":[],"name":"WORD_LIMIT","outputs":[{"internalType":"uint256","name":"","type":"uint256"}],"stateMutability":"view","type":"function"},{"inputs":[{"internalType":"bytes32","name":"commitHash","type":"bytes32"}],"name":"commitBid","outputs":[],"stateMutability":"payable","type":"function"},{"inputs":[],"name":"currentAuctionId","outputs":[{"internalType":"uint256","name":"","type":"uint256"}],"stateMutability":"view","type":"function"},{"inputs":[{"internalType":"uint256","name":"auctionId","type":"uint256"}],"name":"getAuctionTimes","outputs":[{"internalType":"uint256","name":"start","type":"uint256"},{"internalType":"uint256","name":"commitEnd","type":"uint256"},{"internalType":"uint256","name":"revealEnd","type":"uint256"}],"stateMutability":"view","type":"function"},{"inputs":[],"name":"getWinnerPost","outputs":[{"internalType":"address","name":"owner","type":"address"},{"internalType":"string","name":"text","type":"string"},{"internalType":"string","name":"imageCid","type":"string"},{"internalType":"string","name":"voiceCid","type":"string"},{"internalType":"uint256","name":"projectedUntil","type":"uint256"}],"stateMutability":"view","type":"function"},{"inputs":[],"name":"lastWinnerPost","outputs":[{"internalType":"address","name":"owner","type":"address"},{"internalType":"string","name":"text","type":"string"},{"internalType":"string","name":"imageCid","type":"string"},{"internalType":"string","name":"voiceCid","type":"string"}],"stateMutability":"view","type":"function"},{"inputs":[],"name":"lastWinnerTime","outputs":[{"internalType":"uint256","name":"","type":"uint256"}],"stateMutability":"view","type":"function"},{"inputs":[{"internalType":"uint256","name":"bidAmount","type":"uint256"},{"internalType":"string","name":"text","type":"string"},{"internalType":"string","name":"imageCid","type":"string"},{"internalType":"string","name":"voiceCid","type":"string"},{"internalType":"bytes32","name":"salt","type":"bytes32"}],"name":"revealBid","outputs":[],"stateMutability":"nonpayable","type":"function"},{"inputs":[],"name":"settleAuction","outputs":[],"stateMutability":"nonpayable","type":"function"},{"stateMutability":"payable","type":"receive"}],"devdoc":{"kind":"dev","methods":{},"title":"HighestVoice","version":1},"evm":{"bytecode":{"linkReferences":{},"object":"6080604052600160075534801561001557600080fd5b5061002461002960201b60201c565b610166565b60008081548092919061003b906100ea565b919050555060006001600080548152602001908152602001600020905042816000018190555061a8c04261006f9190610132565b816001018190555061a8c081600101546100899190610132565b816002018190555060008160030160006101000a81548160ff02191690831515021790555050565b7f4e487b7100000000000000000000000000000000000000000000000000000000600052601160045260246000fd5b6000819050919050565b60006100f5826100e0565b91507fffffffffffffffffffffffffffffffffffffffffffffffffffffffffffffffff8203610127576101266100b1565b5b600182019050919050565b600061013d826100e0565b9150610148836100e0565b92508282019050808211156101605761015f6100b1565b5b92915050565b612e4e806101756000396000f3fe6080604052600436106100e15760003560e01c806386a2cc271161007f578063b18dfeee11610059578063b18dfeee146102b6578063b39773a6146102e1578063b971e2fd1461030c578063f6cf5d7d1461033757610121565b806386a2cc27146102585780638e8dcb9314610274578063a4d0a17e1461029f57610121565b80636bd83375116100bb5780636bd83375146101a55780637069bfdb146101d057806378cad813146101ff5780638422f0221461022d57610121565b80630c0b86ca1461012657806322c6cd2d146101515780632d1449951461017a57610121565b36610121576040517f08c379a000000000000000000000000000000000000000000000000000000000815260040161011890611b9f565b60405180910390fd5b600080fd5b34801561013257600080fd5b5061013b610376565b6040516101489190611bd8565b60405180910390f35b34801561015d57600080fd5b5061017860048036038101906101739190611cc4565b61037c565b005b34801561018657600080fd5b5061018f6107de565b60405161019c9190611bd8565b60405180910390f35b3480156101b157600080fd5b506101ba6107e5565b6040516101c79190611bd8565b60405180910390f35b3480156101dc57600080fd5b506101e56107ea565b6040516101f6959493929190611e60565b60405180910390f35b34801561020b57600080fd5b506102146109ed565b6040516102249493929190611ec8565b60405180910390f35b34801561023957600080fd5b50610242610bc3565b60405161024f9190611bd8565b60405180910390f35b610272600480360381019061026d9190611f22565b610bc9565b005b34801561028057600080fd5b50610289610f55565b6040516102969190611bd8565b60405180910390f35b3480156102ab57600080fd5b506102b4610f5c565b005b3480156102c257600080fd5b506102cb61193d565b6040516102d89190611bd8565b60405180910390f35b3480156102ed57600080fd5b506102f6611942565b6040516103039190611bd8565b60405180910390f35b34801561031857600080fd5b50610321611948565b60405161032e9190611bd8565b60405180910390f35b34801561034357600080fd5b5061035e60048036038101906103599190611f4f565b61194e565b60405161036d93929190611f7c565b60405180910390f35b60005481565b6000546000600160008381526020019081526020016000209050806001015442101580156103ad5750806002015442105b6103ec576040517f08c379a00000000000000000000000000000000000000000000000000000000081526004016103e390611fff565b60405180910390fd5b600160075414610431576040517f08c379a00000000000000000000000000000000000000000000000000000000081526004016104289061206b565b60405180910390fd5b600060078190555060006001600080548152602001908152602001600020905060008160050160003373ffffffffffffffffffffffffffffffffffffffff1673ffffffffffffffffffffffffffffffffffffffff16815260200190815260200160002090506000801b8160000154036104df576040517f08c379a00000000000000000000000000000000000000000000000000000000081526004016104d6906120d7565b60405180910390fd5b8060020160009054906101000a900460ff1615610531576040517f08c379a000000000000000000000000000000000000000000000000000000000815260040161052890612143565b60405180910390fd5b8b8b8b8b8b8b8b8b6040516020016105509897969594939291906121e4565b604051602081830303815290604052805190602001208160000154146105ab576040517f08c379a00000000000000000000000000000000000000000000000000000000081526004016105a290612289565b60405180910390fd5b80600101548c11156105f2576040517f08c379a00000000000000000000000000000000000000000000000000000000081526004016105e9906122f5565b60405180910390fd5b60646106418c8c8080601f016020809104026020016040519081016040528093929190818152602001838380828437600081840152601f19601f82011690508083019250505050505050611986565b1115610682576040517f08c379a000000000000000000000000000000000000000000000000000000000815260040161067990612361565b60405180910390fd5b6207d0008989905011156106cb576040517f08c379a00000000000000000000000000000000000000000000000000000000081526004016106c2906123cd565b60405180910390fd5b62100000878790501115610714576040517f08c379a000000000000000000000000000000000000000000000000000000000815260040161070b90612439565b60405180910390fd5b60018160020160006101000a81548160ff0219169083151502179055508b81600301819055508a8a82600401918261074d92919061269f565b50888882600501918261076192919061269f565b50868682600601918261077592919061269f565b503373ffffffffffffffffffffffffffffffffffffffff167f7f6e696a3e1ee7b129def0b695a9ff2dbe2aa14956e7ef220fe170dfefa2b5876000548e6040516107c092919061276f565b60405180910390a25050600160078190555050505050505050505050565b6210000081565b606481565b600060608060606000600260000160009054906101000a900473ffffffffffffffffffffffffffffffffffffffff1660026001016002800160026003016201518060065461083891906127c7565b838054610844906124c2565b80601f0160208091040260200160405190810160405280929190818152602001828054610870906124c2565b80156108bd5780601f10610892576101008083540402835291602001916108bd565b820191906000526020600020905b8154815290600101906020018083116108a057829003601f168201915b505050505093508280546108d0906124c2565b80601f01602080910402602001604051908101604052809291908181526020018280546108fc906124c2565b80156109495780601f1061091e57610100808354040283529160200191610949565b820191906000526020600020905b81548152906001019060200180831161092c57829003601f168201915b5050505050925081805461095c906124c2565b80601f0160208091040260200160405190810160405280929190818152602001828054610988906124c2565b80156109d55780601f106109aa576101008083540402835291602001916109d5565b820191906000526020600020905b8154815290600101906020018083116109b857829003601f168201915b50505050509150945094509450945094509091929394565b60028060000160009054906101000a900473ffffffffffffffffffffffffffffffffffffffff1690806001018054610a24906124c2565b80601f0160208091040260200160405190810160405280929190818152602001828054610a50906124c2565b8015610a9d5780601f10610a7257610100808354040283529160200191610a9d565b820191906000526020600020905b815481529060010190602001808311610a8057829003601f168201915b505050505090806002018054610ab2906124c2565b80601f0160208091040260200160405190810160405280929190818152602001828054610ade906124c2565b8015610b2b5780601f10610b0057610100808354040283529160200191610b2b565b820191906000526020600020905b815481529060010190602001808311610b0e57829003601f168201915b505050505090806003018054610b40906124c2565b80601f0160208091040260200160405190810160405280929190818152602001828054610b6c906124c2565b8015610bb95780601f10610b8e57610100808354040283529160200191610bb9565b820191906000526020600020905b815481529060010190602001808311610b9c57829003601f168201915b5050505050905084565b60065481565b600054600060016000838152602001908152602001600020905080600001544210158015610bfa5750806001015442105b610c39576040517f08c379a0000000000000000000000000000000000000000000000000000000008152600401610c3090612847565b60405180910390fd5b600160075414610c7e576040517f08c379a0000000000000000000000000000000000000000000000000000000008152600401610c759061206b565b60405180910390fd5b60006007819055506000600160008054815260200190815260200160002090506000801b8160050160003373ffffffffffffffffffffffffffffffffffffffff1673ffffffffffffffffffffffffffffffffffffffff1681526020019081526020016000206000015414610d27576040517f08c379a0000000000000000000000000000000000000000000000000000000008152600401610d1e906128b3565b60405180910390fd5b60003411610d6a576040517f08c379a0000000000000000000000000000000000000000000000000000000008152600401610d619061291f565b60405180910390fd5b80600401339080600181540180825580915050600190039060005260206000200160009091909190916101000a81548173ffffffffffffffffffffffffffffffffffffffff021916908373ffffffffffffffffffffffffffffffffffffffff1602179055506040518060e0016040528085815260200134815260200160001515815260200160008152602001604051806020016040528060008152508152602001604051806020016040528060008152508152602001604051806020016040528060008152508152508160050160003373ffffffffffffffffffffffffffffffffffffffff1673ffffffffffffffffffffffffffffffffffffffff168152602001908152602001600020600082015181600001556020820151816001015560408201518160020160006101000a81548160ff021916908315150217905550606082015181600301556080820151816004019081610ec7919061293f565b5060a0820151816005019081610edd919061293f565b5060c0820151816006019081610ef3919061293f565b509050503373ffffffffffffffffffffffffffffffffffffffff167f5edc8168be8240adbd40c80b80100b66c85826c01bf37440d3ba9cc61e062186600054604051610f3f9190611bd8565b60405180910390a2506001600781905550505050565b6207d00081565b60005460006001600083815260200190815260200160002090508060020154421015610fbd576040517f08c379a0000000000000000000000000000000000000000000000000000000008152600401610fb490612a5d565b60405180910390fd5b600160075414611002576040517f08c379a0000000000000000000000000000000000000000000000000000000008152600401610ff99061206b565b60405180910390fd5b60006007819055506000600160008054815260200190815260200160002090508060030160009054906101000a900460ff1615611074576040517f08c379a000000000000000000000000000000000000000000000000000000000815260040161106b90612ac9565b60405180910390fd5b6000806000606080606060005b87600401805490508110156111905760008860040182815481106110a8576110a7612ae9565b5b9060005260206000200160009054906101000a900473ffffffffffffffffffffffffffffffffffffffff16905060008960050160008373ffffffffffffffffffffffffffffffffffffffff1673ffffffffffffffffffffffffffffffffffffffff16815260200190815260200160002090508060020160009054906101000a900460ff16801561113b5750888160030154115b156111525788975080600301549850819650611181565b8060020160009054906101000a900460ff1680156111735750878160030154115b1561118057806003015497505b5b50508080600101915050611081565b50600073ffffffffffffffffffffffffffffffffffffffff168473ffffffffffffffffffffffffffffffffffffffff1603611200576040517f08c379a00000000000000000000000000000000000000000000000000000000081526004016111f790612b64565b60405180910390fd5b60008760050160008673ffffffffffffffffffffffffffffffffffffffff1673ffffffffffffffffffffffffffffffffffffffff1681526020019081526020016000209050848860060160006101000a81548173ffffffffffffffffffffffffffffffffffffffff021916908373ffffffffffffffffffffffffffffffffffffffff16021790555086886007018190555085886008018190555060018860030160006101000a81548160ff02191690831515021790555060405180608001604052808673ffffffffffffffffffffffffffffffffffffffff1681526020018260040180546112ed906124c2565b80601f0160208091040260200160405190810160405280929190818152602001828054611319906124c2565b80156113665780601f1061133b57610100808354040283529160200191611366565b820191906000526020600020905b81548152906001019060200180831161134957829003601f168201915b5050505050815260200182600501805461137f906124c2565b80601f01602080910402602001604051908101604052809291908181526020018280546113ab906124c2565b80156113f85780601f106113cd576101008083540402835291602001916113f8565b820191906000526020600020905b8154815290600101906020018083116113db57829003601f168201915b50505050508152602001826006018054611411906124c2565b80601f016020809104026020016040519081016040528092919081815260200182805461143d906124c2565b801561148a5780601f1061145f5761010080835404028352916020019161148a565b820191906000526020600020905b81548152906001019060200180831161146d57829003601f168201915b50505050508152508860090160008201518160000160006101000a81548173ffffffffffffffffffffffffffffffffffffffff021916908373ffffffffffffffffffffffffffffffffffffffff16021790555060208201518160010190816114f2919061293f565b506040820151816002019081611508919061293f565b50606082015181600301908161151e919061293f565b509050508760090160026000820160009054906101000a900473ffffffffffffffffffffffffffffffffffffffff168160000160006101000a81548173ffffffffffffffffffffffffffffffffffffffff021916908373ffffffffffffffffffffffffffffffffffffffff160217905550600182018160010190816115a39190612b9a565b50600282018160020190816115b89190612b9a565b50600382018160030190816115cd9190612b9a565b509050504260068190555060005b88600401805490508110156118c857600089600401828154811061160257611601612ae9565b5b9060005260206000200160009054906101000a900473ffffffffffffffffffffffffffffffffffffffff16905060008a60050160008373ffffffffffffffffffffffffffffffffffffffff1673ffffffffffffffffffffffffffffffffffffffff168152602001908152602001600020905060008873ffffffffffffffffffffffffffffffffffffffff168373ffffffffffffffffffffffffffffffffffffffff160361178a57898260010154116116bb5760006116cc565b8982600101546116cb9190612c82565b5b905060008111156117855760008373ffffffffffffffffffffffffffffffffffffffff16826040516116fd90612ce7565b60006040518083038185875af1925050503d806000811461173a576040519150601f19603f3d011682016040523d82523d6000602084013e61173f565b606091505b5050905080611783576040517f08c379a000000000000000000000000000000000000000000000000000000000815260040161177a90612d48565b60405180910390fd5b505b611866565b8160020160009054906101000a900460ff16156118645781600101549050600081111561185f5760008373ffffffffffffffffffffffffffffffffffffffff16826040516117d790612ce7565b60006040518083038185875af1925050503d8060008114611814576040519150601f19603f3d011682016040523d82523d6000602084013e611819565b606091505b505090508061185d576040517f08c379a000000000000000000000000000000000000000000000000000000000815260040161185490612d48565b60405180910390fd5b505b611865565b5b5b8273ffffffffffffffffffffffffffffffffffffffff167f73f04af9dcc582a923ec15d3eea990fe34adabfff2879e28d44572e01a54abb6600054836040516118b092919061276f565b60405180910390a250505080806001019150506115db565b508473ffffffffffffffffffffffffffffffffffffffff167fb66e3363ddce6e1af5cd43c439ad9f30db11e7055b4469b01f06712f37da952760005489878787604051611919959493929190612d68565b60405180910390a2611929611aba565b505050505050505060016007819055505050565b603c81565b61a8c081565b61a8c081565b600080600080600160008681526020019081526020016000209050806000015481600101548260020154935093509350509193909250565b6000808290506000805b8251811015611ab257602060f81b8382815181106119b1576119b0612ae9565b5b602001015160f81c60f81b7effffffffffffffffffffffffffffffffffffffffffffffffffffffffffffff191614158015611a2f5750600a60f81b8382815181106119ff576119fe612ae9565b5b602001015160f81c60f81b7effffffffffffffffffffffffffffffffffffffffffffffffffffffffffffff191614155b8015611a7e5750600960f81b838281518110611a4e57611a4d612ae9565b5b602001015160f81c60f81b7effffffffffffffffffffffffffffffffffffffffffffffffffffffffffffff191614155b15611aa05781611a9b578380611a9390612dd0565b945050600191505b611aa5565b600091505b8080600101915050611990565b505050919050565b600080815480929190611acc90612dd0565b919050555060006001600080548152602001908152602001600020905042816000018190555061a8c042611b0091906127c7565b816001018190555061a8c08160010154611b1a91906127c7565b816002018190555060008160030160006101000a81548160ff02191690831515021790555050565b600082825260208201905092915050565b7f55736520636f6d6d697442696400000000000000000000000000000000000000600082015250565b6000611b89600d83611b42565b9150611b9482611b53565b602082019050919050565b60006020820190508181036000830152611bb881611b7c565b9050919050565b6000819050919050565b611bd281611bbf565b82525050565b6000602082019050611bed6000830184611bc9565b92915050565b600080fd5b600080fd5b611c0681611bbf565b8114611c1157600080fd5b50565b600081359050611c2381611bfd565b92915050565b600080fd5b600080fd5b600080fd5b60008083601f840112611c4e57611c4d611c29565b5b8235905067ffffffffffffffff811115611c6b57611c6a611c2e565b5b602083019150836001820283011115611c8757611c86611c33565b5b9250929050565b6000819050919050565b611ca181611c8e565b8114611cac57600080fd5b50565b600081359050611cbe81611c98565b92915050565b60008060008060008060008060a0898b031215611ce457611ce3611bf3565b5b6000611cf28b828c01611c14565b985050602089013567ffffffffffffffff811115611d1357611d12611bf8565b5b611d1f8b828c01611c38565b9750975050604089013567ffffffffffffffff811115611d4257611d41611bf8565b5b611d4e8b828c01611c38565b9550955050606089013567ffffffffffffffff811115611d7157611d70611bf8565b5b611d7d8b828c01611c38565b93509350506080611d908b828c01611caf565b9150509295985092959890939650565b600073ffffffffffffffffffffffffffffffffffffffff82169050919050565b6000611dcb82611da0565b9050919050565b611ddb81611dc0565b82525050565b600081519050919050565b60005b83811015611e0a578082015181840152602081019050611def565b60008484015250505050565b6000601f19601f8301169050919050565b6000611e3282611de1565b611e3c8185611b42565b9350611e4c818560208601611dec565b611e5581611e16565b840191505092915050565b600060a082019050611e756000830188611dd2565b8181036020830152611e878187611e27565b90508181036040830152611e9b8186611e27565b90508181036060830152611eaf8185611e27565b9050611ebe6080830184611bc9565b9695505050505050565b6000608082019050611edd6000830187611dd2565b8181036020830152611eef8186611e27565b90508181036040830152611f038185611e27565b90508181036060830152611f178184611e27565b905095945050505050565b600060208284031215611f3857611f37611bf3565b5b6000611f4684828501611caf565b91505092915050565b600060208284031215611f6557611f64611bf3565b5b6000611f7384828501611c14565b91505092915050565b6000606082019050611f916000830186611bc9565b611f9e6020830185611bc9565b611fab6040830184611bc9565b949350505050565b7f4e6f7420696e2072657665616c20706861736500000000000000000000000000600082015250565b6000611fe9601383611b42565b9150611ff482611fb3565b602082019050919050565b6000602082019050818103600083015261201881611fdc565b9050919050565b7f5265656e7472616e637947756172643a204c4f434b4544000000000000000000600082015250565b6000612055601783611b42565b91506120608261201f565b602082019050919050565b6000602082019050818103600083015261208481612048565b9050919050565b7f4e6f20636f6d6d69740000000000000000000000000000000000000000000000600082015250565b60006120c1600983611b42565b91506120cc8261208b565b602082019050919050565b600060208201905081810360008301526120f0816120b4565b9050919050565b7f416c72656164792072657665616c656400000000000000000000000000000000600082015250565b600061212d601083611b42565b9150612138826120f7565b602082019050919050565b6000602082019050818103600083015261215c81612120565b9050919050565b6000819050919050565b61217e61217982611bbf565b612163565b82525050565b600081905092915050565b82818337600083830152505050565b60006121aa8385612184565b93506121b783858461218f565b82840190509392505050565b6000819050919050565b6121de6121d982611c8e565b6121c3565b82525050565b60006121f0828b61216d565b60208201915061220182898b61219e565b915061220e82878961219e565b915061221b82858761219e565b915061222782846121cd565b6020820191508190509998505050505050505050565b7f496e76616c69642072657665616c000000000000000000000000000000000000600082015250565b6000612273600e83611b42565b915061227e8261223d565b602082019050919050565b600060208201905081810360008301526122a281612266565b9050919050565b7f496e73756666696369656e7420636f6c6c61746572616c000000000000000000600082015250565b60006122df601783611b42565b91506122ea826122a9565b602082019050919050565b6000602082019050818103600083015261230e816122d2565b9050919050565b7f5465787420746f6f206c6f6e6700000000000000000000000000000000000000600082015250565b600061234b600d83611b42565b915061235682612315565b602082019050919050565b6000602082019050818103600083015261237a8161233e565b9050919050565b7f496d6167652043494420746f6f206c6172676500000000000000000000000000600082015250565b60006123b7601383611b42565b91506123c282612381565b602082019050919050565b600060208201905081810360008301526123e6816123aa565b9050919050565b7f566f6963652043494420746f6f206c6172676500000000000000000000000000600082015250565b6000612423601383611b42565b915061242e826123ed565b602082019050919050565b6000602082019050818103600083015261245281612416565b9050919050565b600082905092915050565b7f4e487b7100000000000000000000000000000000000000000000000000000000600052604160045260246000fd5b7f4e487b7100000000000000000000000000000000000000000000000000000000600052602260045260246000fd5b600060028204905060018216806124da57607f821691505b6020821081036124ed576124ec612493565b5b50919050565b60008190508160005260206000209050919050565b60006020601f8301049050919050565b600082821b905092915050565b6000600883026125557fffffffffffffffffffffffffffffffffffffffffffffffffffffffffffffffff82612518565b61255f8683612518565b95508019841693508086168417925050509392505050565b6000819050919050565b600061259c61259761259284611bbf565b612577565b611bbf565b9050919050565b6000819050919050565b6125b683612581565b6125ca6125c2826125a3565b848454612525565b825550505050565b600090565b6125df6125d2565b6125ea8184846125ad565b505050565b5b8181101561260e576126036000826125d7565b6001810190506125f0565b5050565b601f82111561265357612624816124f3565b61262d84612508565b8101602085101561263c578190505b61265061264885612508565b8301826125ef565b50505b505050565b600082821c905092915050565b600061267660001984600802612658565b1980831691505092915050565b600061268f8383612665565b9150826002028217905092915050565b6126a98383612459565b67ffffffffffffffff8111156126c2576126c1612464565b5b6126cc82546124c2565b6126d7828285612612565b6000601f83116001811461270657600084156126f4578287013590505b6126fe8582612683565b865550612766565b601f198416612714866124f3565b60005b8281101561273c57848901358255600182019150602085019450602081019050612717565b868310156127595784890135612755601f891682612665565b8355505b6001600288020188555050505b50505050505050565b60006040820190506127846000830185611bc9565b6127916020830184611bc9565b9392505050565b7f4e487b7100000000000000000000000000000000000000000000000000000000600052601160045260246000fd5b60006127d282611bbf565b91506127dd83611bbf565b92508282019050808211156127f5576127f4612798565b5b92915050565b7f4e6f7420696e20636f6d6d697420706861736500000000000000000000000000600082015250565b6000612831601383611b42565b915061283c826127fb565b602082019050919050565b6000602082019050818103600083015261286081612824565b9050919050565b7f416c726561647920636f6d6d6974746564000000000000000000000000000000600082015250565b600061289d601183611b42565b91506128a882612867565b602082019050919050565b600060208201905081810360008301526128cc81612890565b9050919050565b7f436f6c6c61746572616c20726571756972656400000000000000000000000000600082015250565b6000612909601383611b42565b9150612914826128d3565b602082019050919050565b60006020820190508181036000830152612938816128fc565b9050919050565b61294882611de1565b67ffffffffffffffff81111561296157612960612464565b5b61296b82546124c2565b612976828285612612565b600060209050601f8311600181146129a95760008415612997578287015190505b6129a18582612683565b865550612a09565b601f1984166129b7866124f3565b60005b828110156129df578489015182556001820191506020850194506020810190506129ba565b868310156129fc57848901516129f8601f891682612665565b8355505b6001600288020188555050505b505050505050565b7f52657665616c206e6f7420656e64656400000000000000000000000000000000600082015250565b6000612a47601083611b42565b9150612a5282612a11565b602082019050919050565b60006020820190508181036000830152612a7681612a3a565b9050919050565b7f416c726561647920736574746c65640000000000000000000000000000000000600082015250565b6000612ab3600f83611b42565b9150612abe82612a7d565b602082019050919050565b60006020820190508181036000830152612ae281612aa6565b9050919050565b7f4e487b7100000000000000000000000000000000000000000000000000000000600052603260045260246000fd5b7f4e6f2076616c6964206269647300000000000000000000000000000000000000600082015250565b6000612b4e600d83611b42565b9150612b5982612b18565b602082019050919050565b60006020820190508181036000830152612b7d81612b41565b9050919050565b600081549050612b93816124c2565b9050919050565b818103612ba8575050612c80565b612bb182612b84565b67ffffffffffffffff811115612bca57612bc9612464565b5b612bd482546124c2565b612bdf828285612612565b6000601f831160018114612c0e5760008415612bfc578287015490505b612c068582612683565b865550612c79565b601f198416612c1c876124f3565b9650612c27866124f3565b60005b82811015612c4f57848901548255600182019150600185019450602081019050612c2a565b86831015612c6c5784890154612c68601f891682612665565b8355505b6001600288020188555050505b5050505050505b565b6000612c8d82611bbf565b9150612c9883611bbf565b9250828203905081811115612cb057612caf612798565b5b92915050565b600081905092915050565b50565b6000612cd1600083612cb6565b9150612cdc82612cc1565b600082019050919050565b6000612cf282612cc4565b9150819050919050565b7f526566756e64206661696c656400000000000000000000000000000000000000600082015250565b6000612d32600d83611b42565b9150612d3d82612cfc565b602082019050919050565b60006020820190508181036000830152612d6181612d25565b9050919050565b600060a082019050612d7d6000830188611bc9565b612d8a6020830187611bc9565b8181036040830152612d9c8186611e27565b90508181036060830152612db08185611e27565b90508181036080830152612dc48184611e27565b90509695505050505050565b6000612ddb82611bbf565b91507fffffffffffffffffffffffffffffffffffffffffffffffffffffffffffffffff8203612e0d57612e0c612798565b5b60018201905091905056fea264697066735822122022009f104f617bb4f1d0dfaf7013319b4910c308f6e1247e44c1974e640b0b0164736f6c634300081c0033","opcodes":"PUSH1 0x80 PUSH1 0x40 MSTORE PUSH1 0x1 PUSH1 0x7 SSTORE CALLVALUE DUP1 ISZERO PUSH2 0x15 JUMPI PUSH1 0x0 DUP1 REVERT JUMPDEST POP PUSH2 0x24 PUSH2 0x29 PUSH1 0x20 SHL PUSH1 0x20 SHR JUMP JUMPDEST PUSH2 0x166 JUMP JUMPDEST PUSH1 0x0 DUP1 DUP2 SLOAD DUP1 SWAP3 SWAP2 SWAP1 PUSH2 0x3B SWAP1 PUSH2 0xEA JUMP JUMPDEST SWAP2 SWAP1 POP SSTORE POP PUSH1 0x0 PUSH1 0x1 PUSH1 0x0 DUP1 SLOAD DUP2 MSTORE PUSH1 0x20 ADD SWAP1 DUP2 MSTORE PUSH1 0x20 ADD PUSH1 0x0 KECCAK256 SWAP1 POP TIMESTAMP DUP2 PUSH1 0x0 ADD DUP2 SWAP1 SSTORE POP PUSH2 0xA8C0 TIMESTAMP PUSH2 0x6F SWAP2 SWAP1 PUSH2 0x132 JUMP JUMPDEST DUP2 PUSH1 0x1 ADD DUP2 SWAP1 SSTORE POP PUSH2 0xA8C0 DUP2 PUSH1 0x1 ADD SLOAD PUSH2 0x89 SWAP2 SWAP1 PUSH2 0x132 JUMP JUMPDEST DUP2 PUSH1 0x2 ADD DUP2 SWAP1 SSTORE POP PUSH1 0x0 DUP2 PUSH1 0x3 ADD PUSH1 0x0 PUSH2 0x100 EXP DUP2 SLOAD DUP2 PUSH1 0xFF MUL NOT AND SWAP1 DUP4 ISZERO ISZERO MUL OR SWAP1 SSTORE POP POP JUMP JUMPDEST PUSH32 0x4E487B7100000000000000000000000000000000000000000000000000000000 PUSH1 0x0 MSTORE PUSH1 0x11 PUSH1 0x4 MSTORE PUSH1 0x24 PUSH1 0x0 REVERT JUMPDEST PUSH1 0x0 DUP2 SWAP1 POP SWAP2 SWAP1 POP JUMP JUMPDEST PUSH1 0x0 PUSH2 0xF5 DUP3 PUSH2 0xE0 JUMP JUMPDEST SWAP2 POP PUSH32 0xFFFFFFFFFFFFFFFFFFFFFFFFFFFFFFFFFFFFFFFFFFFFFFFFFFFFFFFFFFFFFFFF DUP3 SUB PUSH2 0x127 JUMPI PUSH2 0x126 PUSH2 0xB1 JUMP JUMPDEST JUMPDEST PUSH1 0x1 DUP3 ADD SWAP1 POP SWAP2 SWAP1 POP JUMP JUMPDEST PUSH1 0x0 PUSH2 0x13D DUP3 PUSH2 0xE0 JUMP JUMPDEST SWAP2 POP PUSH2 0x148 DUP4 PUSH2 0xE0 JUMP JUMPDEST SWAP3 POP DUP3 DUP3 ADD SWAP1 POP DUP1 DUP3 GT ISZERO PUSH2 0x160 JUMPI PUSH2 0x15F PUSH2 0xB1 JUMP JUMPDEST JUMPDEST SWAP3 SWAP2 POP POP JUMP JUMPDEST PUSH2 0x2E4E DUP1 PUSH2 0x175 PUSH1 0x0 CODECOPY PUSH1 0x0 RETURN INVALID PUSH1 0x80 PUSH1 0x40 MSTORE PUSH1 0x4 CALLDATASIZE LT PUSH2 0xE1 JUMPI PUSH1 0x0 CALLDATALOAD PUSH1 0xE0 SHR DUP1 PUSH4 0x86A2CC27 GT PUSH2 0x7F JUMPI DUP1 PUSH4 0xB18DFEEE GT PUSH2 0x59 JUMPI DUP1 PUSH4 0xB18DFEEE EQ PUSH2 0x2B6 JUMPI DUP1 PUSH4 0xB39773A6 EQ PUSH2 0x2E1 JUMPI DUP1 PUSH4 0xB971E2FD EQ PUSH2 0x30C JUMPI DUP1 PUSH4 0xF6CF5D7D EQ PUSH2 0x337 JUMPI PUSH2 0x121 JUMP JUMPDEST DUP1 PUSH4 0x86A2CC27 EQ PUSH2 0x258 JUMPI DUP1 PUSH4 0x8E8DCB93 EQ PUSH2 0x274 JUMPI DUP1 PUSH4 0xA4D0A17E EQ PUSH2 0x29F JUMPI PUSH2 0x121 JUMP JUMPDEST DUP1 PUSH4 0x6BD83375 GT PUSH2 0xBB JUMPI DUP1 PUSH4 0x6BD83375 EQ PUSH2 0x1A5 JUMPI DUP1 PUSH4 0x7069BFDB EQ PUSH2 0x1D0 JUMPI DUP1 PUSH4 0x78CAD813 EQ PUSH2 0x1FF JUMPI DUP1 PUSH4 0x8422F022 EQ PUSH2 0x22D JUMPI PUSH2 0x121 JUMP JUMPDEST DUP1 PUSH4 0xC0B86CA EQ PUSH2 0x126 JUMPI DUP1 PUSH4 0x22C6CD2D EQ PUSH2 0x151 JUMPI DUP1 PUSH4 0x2D144995 EQ PUSH2 0x17A JUMPI PUSH2 0x121 JUMP JUMPDEST CALLDATASIZE PUSH2 0x121 JUMPI PUSH1 0x40 MLOAD PUSH32 0x8C379A000000000000000000000000000000000000000000000000000000000 DUP2 MSTORE PUSH1 0x4 ADD PUSH2 0x118 SWAP1 PUSH2 0x1B9F JUMP JUMPDEST PUSH1 0x40 MLOAD DUP1 SWAP2 SUB SWAP1 REVERT JUMPDEST PUSH1 0x0 DUP1 REVERT JUMPDEST CALLVALUE DUP1 ISZERO PUSH2 0x132 JUMPI PUSH1 0x0 DUP1 REVERT JUMPDEST POP PUSH2 0x13B PUSH2 0x376 JUMP JUMPDEST PUSH1 0x40 MLOAD PUSH2 0x148 SWAP2 SWAP1 PUSH2 0x1BD8 JUMP JUMPDEST PUSH1 0x40 MLOAD DUP1 SWAP2 SUB SWAP1 RETURN JUMPDEST CALLVALUE DUP1 ISZERO PUSH2 0x15D JUMPI PUSH1 0x0 DUP1 REVERT JUMPDEST POP PUSH2 0x178 PUSH1 0x4 DUP1 CALLDATASIZE SUB DUP2 ADD SWAP1 PUSH2 0x173 SWAP2 SWAP1 PUSH2 0x1CC4 JUMP JUMPDEST PUSH2 0x37C JUMP JUMPDEST STOP JUMPDEST CALLVALUE DUP1 ISZERO PUSH2 0x186 JUMPI PUSH1 0x0 DUP1 REVERT JUMPDEST POP PUSH2 0x18F PUSH2 0x7DE JUMP JUMPDEST PUSH1 0x40 MLOAD PUSH2 0x19C SWAP2 SWAP1 PUSH2 0x1BD8 JUMP JUMPDEST PUSH1 0x40 MLOAD DUP1 SWAP2 SUB SWAP1 RETURN JUMPDEST CALLVALUE DUP1 ISZERO PUSH2 0x1B1 JUMPI PUSH1 0x0 DUP1 REVERT JUMPDEST POP PUSH2 0x1BA PUSH2 0x7E5 JUMP JUMPDEST PUSH1 0x40 MLOAD PUSH2 0x1C7 SWAP2 SWAP1 PUSH2 0x1BD8 JUMP JUMPDEST PUSH1 0x40 MLOAD DUP1 SWAP2 SUB SWAP1 RETURN JUMPDEST CALLVALUE DUP1 ISZERO PUSH2 0x1DC JUMPI PUSH1 0x0 DUP1 REVERT JUMPDEST POP PUSH2 0x1E5 PUSH2 0x7EA JUMP JUMPDEST PUSH1 0x40 MLOAD PUSH2 0x1F6 SWAP6 SWAP5 SWAP4 SWAP3 SWAP2 SWAP1 PUSH2 0x1E60 JUMP JUMPDEST PUSH1 0x40 MLOAD DUP1 SWAP2 SUB SWAP1 RETURN JUMPDEST CALLVALUE DUP1 ISZERO PUSH2 0x20B JUMPI PUSH1 0x0 DUP1 REVERT JUMPDEST POP PUSH2 0x214 PUSH2 0x9ED JUMP JUMPDEST PUSH1 0x40 MLOAD PUSH2 0x224 SWAP5 SWAP4 SWAP3 SWAP2 SWAP1 PUSH2 0x1EC8 JUMP JUMPDEST PUSH1 0x40 MLOAD DUP1 SWAP2 SUB SWAP1 RETURN JUMPDEST CALLVALUE DUP1 ISZERO PUSH2 0x239 JUMPI PUSH1 0x0 DUP1 REVERT JUMPDEST POP PUSH2 0x242 PUSH2 0xBC3 JUMP JUMPDEST PUSH1 0x40 MLOAD PUSH2 0x24F SWAP2 SWAP1 PUSH2 0x1BD8 JUMP JUMPDEST PUSH1 0x40 MLOAD DUP1 SWAP2 SUB SWAP1 RETURN JUMPDEST PUSH2 0x272 PUSH1 0x4 DUP1 CALLDATASIZE SUB DUP2 ADD SWAP1 PUSH2 0x26D SWAP2 SWAP1 PUSH2 0x1F22 JUMP JUMPDEST PUSH2 0xBC9 JUMP JUMPDEST STOP JUMPDEST CALLVALUE DUP1 ISZERO PUSH2 0x280 JUMPI PUSH1 0x0 DUP1 REVERT JUMPDEST POP PUSH2 0x289 PUSH2 0xF55 JUMP JUMPDEST PUSH1 0x40 MLOAD PUSH2 0x296 SWAP2 SWAP1 PUSH2 0x1BD8 JUMP JUMPDEST PUSH1 0x40 MLOAD DUP1 SWAP2 SUB SWAP1 RETURN JUMPDEST CALLVALUE DUP1 ISZERO PUSH2 0x2AB JUMPI PUSH1 0x0 DUP1 REVERT JUMPDEST POP PUSH2 0x2B4 PUSH2 0xF5C JUMP JUMPDEST STOP JUMPDEST CALLVALUE DUP1 ISZERO PUSH2 0x2C2 JUMPI PUSH1 0x0 DUP1 REVERT JUMPDEST POP PUSH2 0x2CB PUSH2 0x193D JUMP JUMPDEST PUSH1 0x40 MLOAD PUSH2 0x2D8 SWAP2 SWAP1 PUSH2 0x1BD8 JUMP JUMPDEST PUSH1 0x40 MLOAD DUP1 SWAP2 SUB SWAP1 RETURN JUMPDEST CALLVALUE DUP1 ISZERO PUSH2 0x2ED JUMPI PUSH1 0x0 DUP1 REVERT JUMPDEST POP PUSH2 0x2F6 PUSH2 0x1942 JUMP JUMPDEST PUSH1 0x40 MLOAD PUSH2 0x303 SWAP2 SWAP1 PUSH2 0x1BD8 JUMP JUMPDEST PUSH1 0x40 MLOAD DUP1 SWAP2 SUB SWAP1 RETURN JUMPDEST CALLVALUE DUP1 ISZERO PUSH2 0x318 JUMPI PUSH1 0x0 DUP1 REVERT JUMPDEST POP PUSH2 0x321 PUSH2 0x1948 JUMP JUMPDEST PUSH1 0x40 MLOAD PUSH2 0x32E SWAP2 SWAP1 PUSH2 0x1BD8 JUMP JUMPDEST PUSH1 0x40 MLOAD DUP1 SWAP2 SUB SWAP1 RETURN JUMPDEST CALLVALUE DUP1 ISZERO PUSH2 0x343 JUMPI PUSH1 0x0 DUP1 REVERT JUMPDEST POP PUSH2 0x35E PUSH1 0x4 DUP1 CALLDATASIZE SUB DUP2 ADD SWAP1 PUSH2 0x359 SWAP2 SWAP1 PUSH2 0x1F4F JUMP JUMPDEST PUSH2 0x194E JUMP JUMPDEST PUSH1 0x40 MLOAD PUSH2 0x36D SWAP4 SWAP3 SWAP2 SWAP1 PUSH2 0x1F7C JUMP JUMPDEST PUSH1 0x40 MLOAD DUP1 SWAP2 SUB SWAP1 RETURN JUMPDEST PUSH1 0x0 SLOAD DUP2 JUMP JUMPDEST PUSH1 0x0 SLOAD PUSH1 0x0 PUSH1 0x1 PUSH1 0x0 DUP4 DUP2 MSTORE PUSH1 0x20 ADD SWAP1 DUP2 MSTORE PUSH1 0x20 ADD PUSH1 0x0 KECCAK256 SWAP1 POP DUP1 PUSH1 0x1 ADD SLOAD TIMESTAMP LT ISZERO DUP1 ISZERO PUSH2 0x3AD JUMPI POP DUP1 PUSH1 0x2 ADD SLOAD TIMESTAMP LT JUMPDEST PUSH2 0x3EC JUMPI PUSH1 0x40 MLOAD PUSH32 0x8C379A000000000000000000000000000000000000000000000000000000000 DUP2 MSTORE PUSH1 0x4 ADD PUSH2 0x3E3 SWAP1 PUSH2 0x1FFF JUMP JUMPDEST PUSH1 0x40 MLOAD DUP1 SWAP2 SUB SWAP1 REVERT JUMPDEST PUSH1 0x1 PUSH1 0x7 SLOAD EQ PUSH2 0x431 JUMPI PUSH1 0x40 MLOAD PUSH32 0x8C379A000000000000000000000000000000000000000000000000000000000 DUP2 MSTORE PUSH1 0x4 ADD PUSH2 0x428 SWAP1 PUSH2 0x206B JUMP JUMPDEST PUSH1 0x40 MLOAD DUP1 SWAP2 SUB SWAP1 REVERT JUMPDEST PUSH1 0x0 PUSH1 0x7 DUP2 SWAP1 SSTORE POP PUSH1 0x0 PUSH1 0x1 PUSH1 0x0 DUP1 SLOAD DUP2 MSTORE PUSH1 0x20 ADD SWAP1 DUP2 MSTORE PUSH1 0x20 ADD PUSH1 0x0 KECCAK256 SWAP1 POP PUSH1 0x0 DUP2 PUSH1 0x5 ADD PUSH1 0x0 CALLER PUSH20 0xFFFFFFFFFFFFFFFFFFFFFFFFFFFFFFFFFFFFFFFF AND PUSH20 0xFFFFFFFFFFFFFFFFFFFFFFFFFFFFFFFFFFFFFFFF AND DUP2 MSTORE PUSH1 0x20 ADD SWAP1 DUP2 MSTORE PUSH1 0x20 ADD PUSH1 0x0 KECCAK256 SWAP1 POP PUSH1 0x0 DUP1 SHL DUP2 PUSH1 0x0 ADD SLOAD SUB PUSH2 0x4DF JUMPI PUSH1 0x40 MLOAD PUSH32 0x8C379A000000000000000000000000000000000000000000000000000000000 DUP2 MSTORE PUSH1 0x4 ADD PUSH2 0x4D6 SWAP1 PUSH2 0x20D7 JUMP JUMPDEST PUSH1 0x40 MLOAD DUP1 SWAP2 SUB SWAP1 REVERT JUMPDEST DUP1 PUSH1 0x2 ADD PUSH1 0x0 SWAP1 SLOAD SWAP1 PUSH2 0x100 EXP SWAP1 DIV PUSH1 0xFF AND ISZERO PUSH2 0x531 JUMPI PUSH1 0x40 MLOAD PUSH32 0x8C379A000000000000000000000000000000000000000000000000000000000 DUP2 MSTORE PUSH1 0x4 ADD PUSH2 0x528 SWAP1 PUSH2 0x2143 JUMP JUMPDEST PUSH1 0x40 MLOAD DUP1 SWAP2 SUB SWAP1 REVERT JUMPDEST DUP12 DUP12 DUP12 DUP12 DUP12 DUP12 DUP12 DUP12 PUSH1 0x40 MLOAD PUSH1 0x20 ADD PUSH2 0x550 SWAP9 SWAP8 SWAP7 SWAP6 SWAP5 SWAP4 SWAP3 SWAP2 SWAP1 PUSH2 0x21E4 JUMP JUMPDEST PUSH1 0x40 MLOAD PUSH1 0x20 DUP2 DUP4 SUB SUB DUP2 MSTORE SWAP1 PUSH1 0x40 MSTORE DUP1 MLOAD SWAP1 PUSH1 0x20 ADD KECCAK256 DUP2 PUSH1 0x0 ADD SLOAD EQ PUSH2 0x5AB JUMPI PUSH1 0x40 MLOAD PUSH32 0x8C379A000000000000000000000000000000000000000000000000000000000 DUP2 MSTORE PUSH1 0x4 ADD PUSH2 0x5A2 SWAP1 PUSH2 0x2289 JUMP JUMPDEST PUSH1 0x40 MLOAD DUP1 SWAP2 SUB SWAP1 REVERT JUMPDEST DUP1 PUSH1 0x1 ADD SLOAD DUP13 GT ISZERO PUSH2 0x5F2 JUMPI PUSH1 0x40 MLOAD PUSH32 0x8C379A000000000000000000000000000000000000000000000000000000000 DUP2 MSTORE PUSH1 0x4 ADD PUSH2 0x5E9 SWAP1 PUSH2 0x22F5 JUMP JUMPDEST PUSH1 0x40 MLOAD DUP1 SWAP2 SUB SWAP1 REVERT JUMPDEST PUSH1 0x64 PUSH2 0x641 DUP13 DUP13 DUP1 DUP1 PUSH1 0x1F ADD PUSH1 0x20 DUP1 SWAP2 DIV MUL PUSH1 0x20 ADD PUSH1 0x40 MLOAD SWAP1 DUP2 ADD PUSH1 0x40 MSTORE DUP1 SWAP4 SWAP3 SWAP2 SWAP1 DUP2 DUP2 MSTORE PUSH1 0x20 ADD DUP4 DUP4 DUP1 DUP3 DUP5 CALLDATACOPY PUSH1 0x0 DUP2 DUP5 ADD MSTORE PUSH1 0x1F NOT PUSH1 0x1F DUP3 ADD AND SWAP1 POP DUP1 DUP4 ADD SWAP3 POP POP POP POP POP POP POP PUSH2 0x1986 JUMP JUMPDEST GT ISZERO PUSH2 0x682 JUMPI PUSH1 0x40 MLOAD PUSH32 0x8C379A000000000000000000000000000000000000000000000000000000000 DUP2 MSTORE PUSH1 0x4 ADD PUSH2 0x679 SWAP1 PUSH2 0x2361 JUMP JUMPDEST PUSH1 0x40 MLOAD DUP1 SWAP2 SUB SWAP1 REVERT JUMPDEST PUSH3 0x7D000 DUP10 DUP10 SWAP1 POP GT ISZERO PUSH2 0x6CB JUMPI PUSH1 0x40 MLOAD PUSH32 0x8C379A000000000000000000000000000000000000000000000000000000000 DUP2 MSTORE PUSH1 0x4 ADD PUSH2 0x6C2 SWAP1 PUSH2 0x23CD JUMP JUMPDEST PUSH1 0x40 MLOAD DUP1 SWAP2 SUB SWAP1 REVERT JUMPDEST PUSH3 0x100000 DUP8 DUP8 SWAP1 POP GT ISZERO PUSH2 0x714 JUMPI PUSH1 0x40 MLOAD PUSH32 0x8C379A000000000000000000000000000000000000000000000000000000000 DUP2 MSTORE PUSH1 0x4 ADD PUSH2 0x70B SWAP1 PUSH2 0x2439 JUMP JUMPDEST PUSH1 0x40 MLOAD DUP1 SWAP2 SUB SWAP1 REVERT JUMPDEST PUSH1 0x1 DUP2 PUSH1 0x2 ADD PUSH1 0x0 PUSH2 0x100 EXP DUP2 SLOAD DUP2 PUSH1 0xFF MUL NOT AND SWAP1 DUP4 ISZERO ISZERO MUL OR SWAP1 SSTORE POP DUP12 DUP2 PUSH1 0x3 ADD DUP2 SWAP1 SSTORE POP DUP11 DUP11 DUP3 PUSH1 0x4 ADD SWAP2 DUP3 PUSH2 0x74D SWAP3 SWAP2 SWAP1 PUSH2 0x269F JUMP JUMPDEST POP DUP9 DUP9 DUP3 PUSH1 0x5 ADD SWAP2 DUP3 PUSH2 0x761 SWAP3 SWAP2 SWAP1 PUSH2 0x269F JUMP JUMPDEST POP DUP7 DUP7 DUP3 PUSH1 0x6 ADD SWAP2 DUP3 PUSH2 0x775 SWAP3 SWAP2 SWAP1 PUSH2 0x269F JUMP JUMPDEST POP CALLER PUSH20 0xFFFFFFFFFFFFFFFFFFFFFFFFFFFFFFFFFFFFFFFF AND PUSH32 0x7F6E696A3E1EE7B129DEF0B695A9FF2DBE2AA14956E7EF220FE170DFEFA2B587 PUSH1 0x0 SLOAD DUP15 PUSH1 0x40 MLOAD PUSH2 0x7C0 SWAP3 SWAP2 SWAP1 PUSH2 0x276F JUMP JUMPDEST PUSH1 0x40 MLOAD DUP1 SWAP2 SUB SWAP1 LOG2 POP POP PUSH1 0x1 PUSH1 0x7 DUP2 SWAP1 SSTORE POP POP POP POP POP POP POP POP POP POP POP JUMP JUMPDEST PUSH3 0x100000 DUP2 JUMP JUMPDEST PUSH1 0x64 DUP2 JUMP JUMPDEST PUSH1 0x0 PUSH1 0x60 DUP1 PUSH1 0x60 PUSH1 0x0 PUSH1 0x2 PUSH1 0x0 ADD PUSH1 0x0 SWAP1 SLOAD SWAP1 PUSH2 0x100 EXP SWAP1 DIV PUSH20 0xFFFFFFFFFFFFFFFFFFFFFFFFFFFFFFFFFFFFFFFF AND PUSH1 0x2 PUSH1 0x1 ADD PUSH1 0x2 DUP1 ADD PUSH1 0x2 PUSH1 0x3 ADD PUSH3 0x15180 PUSH1 0x6 SLOAD PUSH2 0x838 SWAP2 SWAP1 PUSH2 0x27C7 JUMP JUMPDEST DUP4 DUP1 SLOAD PUSH2 0x844 SWAP1 PUSH2 0x24C2 JUMP JUMPDEST DUP1 PUSH1 0x1F ADD PUSH1 0x20 DUP1 SWAP2 DIV MUL PUSH1 0x20 ADD PUSH1 0x40 MLOAD SWAP1 DUP2 ADD PUSH1 0x40 MSTORE DUP1 SWAP3 SWAP2 SWAP1 DUP2 DUP2 MSTORE PUSH1 0x20 ADD DUP3 DUP1 SLOAD PUSH2 0x870 SWAP1 PUSH2 0x24C2 JUMP JUMPDEST DUP1 ISZERO PUSH2 0x8BD JUMPI DUP1 PUSH1 0x1F LT PUSH2 0x892 JUMPI PUSH2 0x100 DUP1 DUP4 SLOAD DIV MUL DUP4 MSTORE SWAP2 PUSH1 0x20 ADD SWAP2 PUSH2 0x8BD JUMP JUMPDEST DUP3 ADD SWAP2 SWAP1 PUSH1 0x0 MSTORE PUSH1 0x20 PUSH1 0x0 KECCAK256 SWAP1 JUMPDEST DUP2 SLOAD DUP2 MSTORE SWAP1 PUSH1 0x1 ADD SWAP1 PUSH1 0x20 ADD DUP1 DUP4 GT PUSH2 0x8A0 JUMPI DUP3 SWAP1 SUB PUSH1 0x1F AND DUP3 ADD SWAP2 JUMPDEST POP POP POP POP POP SWAP4 POP DUP3 DUP1 SLOAD PUSH2 0x8D0 SWAP1 PUSH2 0x24C2 JUMP JUMPDEST DUP1 PUSH1 0x1F ADD PUSH1 0x20 DUP1 SWAP2 DIV MUL PUSH1 0x20 ADD PUSH1 0x40 MLOAD SWAP1 DUP2 ADD PUSH1 0x40 MSTORE DUP1 SWAP3 SWAP2 SWAP1 DUP2 DUP2 MSTORE PUSH1 0x20 ADD DUP3 DUP1 SLOAD PUSH2 0x8FC SWAP1 PUSH2 0x24C2 JUMP JUMPDEST DUP1 ISZERO PUSH2 0x949 JUMPI DUP1 PUSH1 0x1F LT PUSH2 0x91E JUMPI PUSH2 0x100 DUP1 DUP4 SLOAD DIV MUL DUP4 MSTORE SWAP2 PUSH1 0x20 ADD SWAP2 PUSH2 0x949 JUMP JUMPDEST DUP3 ADD SWAP2 SWAP1 PUSH1 0x0 MSTORE PUSH1 0x20 PUSH1 0x0 KECCAK256 SWAP1 JUMPDEST DUP2 SLOAD DUP2 MSTORE SWAP1 PUSH1 0x1 ADD SWAP1 PUSH1 0x20 ADD DUP1 DUP4 GT PUSH2 0x92C JUMPI DUP3 SWAP1 SUB PUSH1 0x1F AND DUP3 ADD SWAP2 JUMPDEST POP POP POP POP POP SWAP3 POP DUP2 DUP1 SLOAD PUSH2 0x95C SWAP1 PUSH2 0x24C2 JUMP JUMPDEST DUP1 PUSH1 0x1F ADD PUSH1 0x20 DUP1 SWAP2 DIV MUL PUSH1 0x20 ADD PUSH1 0x40 MLOAD SWAP1 DUP2 ADD PUSH1 0x40 MSTORE DUP1 SWAP3 SWAP2 SWAP1 DUP2 DUP2 MSTORE PUSH1 0x20 ADD DUP3 DUP1 SLOAD PUSH2 0x988 SWAP1 PUSH2 0x24C2 JUMP JUMPDEST DUP1 ISZERO PUSH2 0x9D5 JUMPI DUP1 PUSH1 0x1F LT PUSH2 0x9AA JUMPI PUSH2 0x100 DUP1 DUP4 SLOAD DIV MUL DUP4 MSTORE SWAP2 PUSH1 0x20 ADD SWAP2 PUSH2 0x9D5 JUMP JUMPDEST DUP3 ADD SWAP2 SWAP1 PUSH1 0x0 MSTORE PUSH1 0x20 PUSH1 0x0 KECCAK256 SWAP1 JUMPDEST DUP2 SLOAD DUP2 MSTORE SWAP1 PUSH1 0x1 ADD SWAP1 PUSH1 0x20 ADD DUP1 DUP4 GT PUSH2 0x9B8 JUMPI DUP3 SWAP1 SUB PUSH1 0x1F AND DUP3 ADD SWAP2 JUMPDEST POP POP POP POP POP SWAP2 POP SWAP5 POP SWAP5 POP SWAP5 POP SWAP5 POP SWAP5 POP SWAP1 SWAP2 SWAP3 SWAP4 SWAP5 JUMP JUMPDEST PUSH1 0x2 DUP1 PUSH1 0x0 ADD PUSH1 0x0 SWAP1 SLOAD SWAP1 PUSH2 0x100 EXP SWAP1 DIV PUSH20 0xFFFFFFFFFFFFFFFFFFFFFFFFFFFFFFFFFFFFFFFF AND SWAP1 DUP1 PUSH1 0x1 ADD DUP1 SLOAD PUSH2 0xA24 SWAP1 PUSH2 0x24C2 JUMP JUMPDEST DUP1 PUSH1 0x1F ADD PUSH1 0x20 DUP1 SWAP2 DIV MUL PUSH1 0x20 ADD PUSH1 0x40 MLOAD SWAP1 DUP2 ADD PUSH1 0x40 MSTORE DUP1 SWAP3 SWAP2 SWAP1 DUP2 DUP2 MSTORE PUSH1 0x20 ADD DUP3 DUP1 SLOAD PUSH2 0xA50 SWAP1 PUSH2 0x24C2 JUMP JUMPDEST DUP1 ISZERO PUSH2 0xA9D JUMPI DUP1 PUSH1 0x1F LT PUSH2 0xA72 JUMPI PUSH2 0x100 DUP1 DUP4 SLOAD DIV MUL DUP4 MSTORE SWAP2 PUSH1 0x20 ADD SWAP2 PUSH2 0xA9D JUMP JUMPDEST DUP3 ADD SWAP2 SWAP1 PUSH1 0x0 MSTORE PUSH1 0x20 PUSH1 0x0 KECCAK256 SWAP1 JUMPDEST DUP2 SLOAD DUP2 MSTORE SWAP1 PUSH1 0x1 ADD SWAP1 PUSH1 0x20 ADD DUP1 DUP4 GT PUSH2 0xA80 JUMPI DUP3 SWAP1 SUB PUSH1 0x1F AND DUP3 ADD SWAP2 JUMPDEST POP POP POP POP POP SWAP1 DUP1 PUSH1 0x2 ADD DUP1 SLOAD PUSH2 0xAB2 SWAP1 PUSH2 0x24C2 JUMP JUMPDEST DUP1 PUSH1 0x1F ADD PUSH1 0x20 DUP1 SWAP2 DIV MUL PUSH1 0x20 ADD PUSH1 0x40 MLOAD SWAP1 DUP2 ADD PUSH1 0x40 MSTORE DUP1 SWAP3 SWAP2 SWAP1 DUP2 DUP2 MSTORE PUSH1 0x20 ADD DUP3 DUP1 SLOAD PUSH2 0xADE SWAP1 PUSH2 0x24C2 JUMP JUMPDEST DUP1 ISZERO PUSH2 0xB2B JUMPI DUP1 PUSH1 0x1F LT PUSH2 0xB00 JUMPI PUSH2 0x100 DUP1 DUP4 SLOAD DIV MUL DUP4 MSTORE SWAP2 PUSH1 0x20 ADD SWAP2 PUSH2 0xB2B JUMP JUMPDEST DUP3 ADD SWAP2 SWAP1 PUSH1 0x0 MSTORE PUSH1 0x20 PUSH1 0x0 KECCAK256 SWAP1 JUMPDEST DUP2 SLOAD DUP2 MSTORE SWAP1 PUSH1 0x1 ADD SWAP1 PUSH1 0x20 ADD DUP1 DUP4 GT PUSH2 0xB0E JUMPI DUP3 SWAP1 SUB PUSH1 0x1F AND DUP3 ADD SWAP2 JUMPDEST POP POP POP POP POP SWAP1 DUP1 PUSH1 0x3 ADD DUP1 SLOAD PUSH2 0xB40 SWAP1 PUSH2 0x24C2 JUMP JUMPDEST DUP1 PUSH1 0x1F ADD PUSH1 0x20 DUP1 SWAP2 DIV MUL PUSH1 0x20 ADD PUSH1 0x40 MLOAD SWAP1 DUP2 ADD PUSH1 0x40 MSTORE DUP1 SWAP3 SWAP2 SWAP1 DUP2 DUP2 MSTORE PUSH1 0x20 ADD DUP3 DUP1 SLOAD PUSH2 0xB6C SWAP1 PUSH2 0x24C2 JUMP JUMPDEST DUP1 ISZERO PUSH2 0xBB9 JUMPI DUP1 PUSH1 0x1F LT PUSH2 0xB8E JUMPI PUSH2 0x100 DUP1 DUP4 SLOAD DIV MUL DUP4 MSTORE SWAP2 PUSH1 0x20 ADD SWAP2 PUSH2 0xBB9 JUMP JUMPDEST DUP3 ADD SWAP2 SWAP1 PUSH1 0x0 MSTORE PUSH1 0x20 PUSH1 0x0 KECCAK256 SWAP1 JUMPDEST DUP2 SLOAD DUP2 MSTORE SWAP1 PUSH1 0x1 ADD SWAP1 PUSH1 0x20 ADD DUP1 DUP4 GT PUSH2 0xB9C JUMPI DUP3 SWAP1 SUB PUSH1 0x1F AND DUP3 ADD SWAP2 JUMPDEST POP POP POP POP POP SWAP1 POP DUP5 JUMP JUMPDEST PUSH1 0x6 SLOAD DUP2 JUMP JUMPDEST PUSH1 0x0 SLOAD PUSH1 0x0 PUSH1 0x1 PUSH1 0x0 DUP4 DUP2 MSTORE PUSH1 0x20 ADD SWAP1 DUP2 MSTORE PUSH1 0x20 ADD PUSH1 0x0 KECCAK256 SWAP1 POP DUP1 PUSH1 0x0 ADD SLOAD TIMESTAMP LT ISZERO DUP1 ISZERO PUSH2 0xBFA JUMPI POP DUP1 PUSH1 0x1 ADD SLOAD TIMESTAMP LT JUMPDEST PUSH2 0xC39 JUMPI PUSH1 0x40 MLOAD PUSH32 0x8C379A000000000000000000000000000000000000000000000000000000000 DUP2 MSTORE PUSH1 0x4 ADD PUSH2 0xC30 SWAP1 PUSH2 0x2847 JUMP JUMPDEST PUSH1 0x40 MLOAD DUP1 SWAP2 SUB SWAP1 REVERT JUMPDEST PUSH1 0x1 PUSH1 0x7 SLOAD EQ PUSH2 0xC7E JUMPI PUSH1 0x40 MLOAD PUSH32 0x8C379A000000000000000000000000000000000000000000000000000000000 DUP2 MSTORE PUSH1 0x4 ADD PUSH2 0xC75 SWAP1 PUSH2 0x206B JUMP JUMPDEST PUSH1 0x40 MLOAD DUP1 SWAP2 SUB SWAP1 REVERT JUMPDEST PUSH1 0x0 PUSH1 0x7 DUP2 SWAP1 SSTORE POP PUSH1 0x0 PUSH1 0x1 PUSH1 0x0 DUP1 SLOAD DUP2 MSTORE PUSH1 0x20 ADD SWAP1 DUP2 MSTORE PUSH1 0x20 ADD PUSH1 0x0 KECCAK256 SWAP1 POP PUSH1 0x0 DUP1 SHL DUP2 PUSH1 0x5 ADD PUSH1 0x0 CALLER PUSH20 0xFFFFFFFFFFFFFFFFFFFFFFFFFFFFFFFFFFFFFFFF AND PUSH20 0xFFFFFFFFFFFFFFFFFFFFFFFFFFFFFFFFFFFFFFFF AND DUP2 MSTORE PUSH1 0x20 ADD SWAP1 DUP2 MSTORE PUSH1 0x20 ADD PUSH1 0x0 KECCAK256 PUSH1 0x0 ADD SLOAD EQ PUSH2 0xD27 JUMPI PUSH1 0x40 MLOAD PUSH32 0x8C379A000000000000000000000000000000000000000000000000000000000 DUP2 MSTORE PUSH1 0x4 ADD PUSH2 0xD1E SWAP1 PUSH2 0x28B3 JUMP JUMPDEST PUSH1 0x40 MLOAD DUP1 SWAP2 SUB SWAP1 REVERT JUMPDEST PUSH1 0x0 CALLVALUE GT PUSH2 0xD6A JUMPI PUSH1 0x40 MLOAD PUSH32 0x8C379A000000000000000000000000000000000000000000000000000000000 DUP2 MSTORE PUSH1 0x4 ADD PUSH2 0xD61 SWAP1 PUSH2 0x291F JUMP JUMPDEST PUSH1 0x40 MLOAD DUP1 SWAP2 SUB SWAP1 REVERT JUMPDEST DUP1 PUSH1 0x4 ADD CALLER SWAP1 DUP1 PUSH1 0x1 DUP2 SLOAD ADD DUP1 DUP3 SSTORE DUP1 SWAP2 POP POP PUSH1 0x1 SWAP1 SUB SWAP1 PUSH1 0x0 MSTORE PUSH1 0x20 PUSH1 0x0 KECCAK256 ADD PUSH1 0x0 SWAP1 SWAP2 SWAP1 SWAP2 SWAP1 SWAP2 PUSH2 0x100 EXP DUP2 SLOAD DUP2 PUSH20 0xFFFFFFFFFFFFFFFFFFFFFFFFFFFFFFFFFFFFFFFF MUL NOT AND SWAP1 DUP4 PUSH20 0xFFFFFFFFFFFFFFFFFFFFFFFFFFFFFFFFFFFFFFFF AND MUL OR SWAP1 SSTORE POP PUSH1 0x40 MLOAD DUP1 PUSH1 0xE0 ADD PUSH1 0x40 MSTORE DUP1 DUP6 DUP2 MSTORE PUSH1 0x20 ADD CALLVALUE DUP2 MSTORE PUSH1 0x20 ADD PUSH1 0x0 ISZERO ISZERO DUP2 MSTORE PUSH1 0x20 ADD PUSH1 0x0 DUP2 MSTORE PUSH1 0x20 ADD PUSH1 0x40 MLOAD DUP1 PUSH1 0x20 ADD PUSH1 0x40 MSTORE DUP1 PUSH1 0x0 DUP2 MSTORE POP DUP2 MSTORE PUSH1 0x20 ADD PUSH1 0x40 MLOAD DUP1 PUSH1 0x20 ADD PUSH1 0x40 MSTORE DUP1 PUSH1 0x0 DUP2 MSTORE POP DUP2 MSTORE PUSH1 0x20 ADD PUSH1 0x40 MLOAD DUP1 PUSH1 0x20 ADD PUSH1 0x40 MSTORE DUP1 PUSH1 0x0 DUP2 MSTORE POP DUP2 MSTORE POP DUP2 PUSH1 0x5 ADD PUSH1 0x0 CALLER PUSH20 0xFFFFFFFFFFFFFFFFFFFFFFFFFFFFFFFFFFFFFFFF AND PUSH20 0xFFFFFFFFFFFFFFFFFFFFFFFFFFFFFFFFFFFFFFFF AND DUP2 MSTORE PUSH1 0x20 ADD SWAP1 DUP2 MSTORE PUSH1 0x20 ADD PUSH1 0x0 KECCAK256 PUSH1 0x0 DUP3 ADD MLOAD DUP2 PUSH1 0x0 ADD SSTORE PUSH1 0x20 DUP3 ADD MLOAD DUP2 PUSH1 0x1 ADD SSTORE PUSH1 0x40 DUP3 ADD MLOAD DUP2 PUSH1 0x2 ADD PUSH1 0x0 PUSH2 0x100 EXP DUP2 SLOAD DUP2 PUSH1 0xFF MUL NOT AND SWAP1 DUP4 ISZERO ISZERO MUL OR SWAP1 SSTORE POP PUSH1 0x60 DUP3 ADD MLOAD DUP2 PUSH1 0x3 ADD SSTORE PUSH1 0x80 DUP3 ADD MLOAD DUP2 PUSH1 0x4 ADD SWAP1 DUP2 PUSH2 0xEC7 SWAP2 SWAP1 PUSH2 0x293F JUMP JUMPDEST POP PUSH1 0xA0 DUP3 ADD MLOAD DUP2 PUSH1 0x5 ADD SWAP1 DUP2 PUSH2 0xEDD SWAP2 SWAP1 PUSH2 0x293F JUMP JUMPDEST POP PUSH1 0xC0 DUP3 ADD MLOAD DUP2 PUSH1 0x6 ADD SWAP1 DUP2 PUSH2 0xEF3 SWAP2 SWAP1 PUSH2 0x293F JUMP JUMPDEST POP SWAP1 POP POP CALLER PUSH20 0xFFFFFFFFFFFFFFFFFFFFFFFFFFFFFFFFFFFFFFFF AND PUSH32 0x5EDC8168BE8240ADBD40C80B80100B66C85826C01BF37440D3BA9CC61E062186 PUSH1 0x0 SLOAD PUSH1 0x40 MLOAD PUSH2 0xF3F SWAP2 SWAP1 PUSH2 0x1BD8 JUMP JUMPDEST PUSH1 0x40 MLOAD DUP1 SWAP2 SUB SWAP1 LOG2 POP PUSH1 0x1 PUSH1 0x7 DUP2 SWAP1 SSTORE POP POP POP POP JUMP JUMPDEST PUSH3 0x7D000 DUP2 JUMP JUMPDEST PUSH1 0x0 SLOAD PUSH1 0x0 PUSH1 0x1 PUSH1 0x0 DUP4 DUP2 MSTORE PUSH1 0x20 ADD SWAP1 DUP2 MSTORE PUSH1 0x20 ADD PUSH1 0x0 KECCAK256 SWAP1 POP DUP1 PUSH1 0x2 ADD SLOAD TIMESTAMP LT ISZERO PUSH2 0xFBD JUMPI PUSH1 0x40 MLOAD PUSH32 0x8C379A000000000000000000000000000000000000000000000000000000000 DUP2 MSTORE PUSH1 0x4 ADD PUSH2 0xFB4 SWAP1 PUSH2 0x2A5D JUMP JUMPDEST PUSH1 0x40 MLOAD DUP1 SWAP2 SUB SWAP1 REVERT JUMPDEST PUSH1 0x1 PUSH1 0x7 SLOAD EQ PUSH2 0x1002 JUMPI PUSH1 0x40 MLOAD PUSH32 0x8C379A000000000000000000000000000000000000000000000000000000000 DUP2 MSTORE PUSH1 0x4 ADD PUSH2 0xFF9 SWAP1 PUSH2 0x206B JUMP JUMPDEST PUSH1 0x40 MLOAD DUP1 SWAP2 SUB SWAP1 REVERT JUMPDEST PUSH1 0x0 PUSH1 0x7 DUP2 SWAP1 SSTORE POP PUSH1 0x0 PUSH1 0x1 PUSH1 0x0 DUP1 SLOAD DUP2 MSTORE PUSH1 0x20 ADD SWAP1 DUP2 MSTORE PUSH1 0x20 ADD PUSH1 0x0 KECCAK256 SWAP1 POP DUP1 PUSH1 0x3 ADD PUSH1 0x0 SWAP1 SLOAD SWAP1 PUSH2 0x100 EXP SWAP1 DIV PUSH1 0xFF AND ISZERO PUSH2 0x1074 JUMPI PUSH1 0x40 MLOAD PUSH32 0x8C379A000000000000000000000000000000000000000000000000000000000 DUP2 MSTORE PUSH1 0x4 ADD PUSH2 0x106B SWAP1 PUSH2 0x2AC9 JUMP JUMPDEST PUSH1 0x40 MLOAD DUP1 SWAP2 SUB SWAP1 REVERT JUMPDEST PUSH1 0x0 DUP1 PUSH1 0x0 PUSH1 0x60 DUP1 PUSH1 0x60 PUSH1 0x0 JUMPDEST DUP8 PUSH1 0x4 ADD DUP1 SLOAD SWAP1 POP DUP2 LT ISZERO PUSH2 0x1190 JUMPI PUSH1 0x0 DUP9 PUSH1 0x4 ADD DUP3 DUP2 SLOAD DUP2 LT PUSH2 0x10A8 JUMPI PUSH2 0x10A7 PUSH2 0x2AE9 JUMP JUMPDEST JUMPDEST SWAP1 PUSH1 0x0 MSTORE PUSH1 0x20 PUSH1 0x0 KECCAK256 ADD PUSH1 0x0 SWAP1 SLOAD SWAP1 PUSH2 0x100 EXP SWAP1 DIV PUSH20 0xFFFFFFFFFFFFFFFFFFFFFFFFFFFFFFFFFFFFFFFF AND SWAP1 POP PUSH1 0x0 DUP10 PUSH1 0x5 ADD PUSH1 0x0 DUP4 PUSH20 0xFFFFFFFFFFFFFFFFFFFFFFFFFFFFFFFFFFFFFFFF AND PUSH20 0xFFFFFFFFFFFFFFFFFFFFFFFFFFFFFFFFFFFFFFFF AND DUP2 MSTORE PUSH1 0x20 ADD SWAP1 DUP2 MSTORE PUSH1 0x20 ADD PUSH1 0x0 KECCAK256 SWAP1 POP DUP1 PUSH1 0x2 ADD PUSH1 0x0 SWAP1 SLOAD SWAP1 PUSH2 0x100 EXP SWAP1 DIV PUSH1 0xFF AND DUP1 ISZERO PUSH2 0x113B JUMPI POP DUP9 DUP2 PUSH1 0x3 ADD SLOAD GT JUMPDEST ISZERO PUSH2 0x1152 JUMPI DUP9 SWAP8 POP DUP1 PUSH1 0x3 ADD SLOAD SWAP9 POP DUP2 SWAP7 POP PUSH2 0x1181 JUMP JUMPDEST DUP1 PUSH1 0x2 ADD PUSH1 0x0 SWAP1 SLOAD SWAP1 PUSH2 0x100 EXP SWAP1 DIV PUSH1 0xFF AND DUP1 ISZERO PUSH2 0x1173 JUMPI POP DUP8 DUP2 PUSH1 0x3 ADD SLOAD GT JUMPDEST ISZERO PUSH2 0x1180 JUMPI DUP1 PUSH1 0x3 ADD SLOAD SWAP8 POP JUMPDEST JUMPDEST POP POP DUP1 DUP1 PUSH1 0x1 ADD SWAP2 POP POP PUSH2 0x1081 JUMP JUMPDEST POP PUSH1 0x0 PUSH20 0xFFFFFFFFFFFFFFFFFFFFFFFFFFFFFFFFFFFFFFFF AND DUP5 PUSH20 0xFFFFFFFFFFFFFFFFFFFFFFFFFFFFFFFFFFFFFFFF AND SUB PUSH2 0x1200 JUMPI PUSH1 0x40 MLOAD PUSH32 0x8C379A000000000000000000000000000000000000000000000000000000000 DUP2 MSTORE PUSH1 0x4 ADD PUSH2 0x11F7 SWAP1 PUSH2 0x2B64 JUMP JUMPDEST PUSH1 0x40 MLOAD DUP1 SWAP2 SUB SWAP1 REVERT JUMPDEST PUSH1 0x0 DUP8 PUSH1 0x5 ADD PUSH1 0x0 DUP7 PUSH20 0xFFFFFFFFFFFFFFFFFFFFFFFFFFFFFFFFFFFFFFFF AND PUSH20 0xFFFFFFFFFFFFFFFFFFFFFFFFFFFFFFFFFFFFFFFF AND DUP2 MSTORE PUSH1 0x20 ADD SWAP1 DUP2 MSTORE PUSH1 0x20 ADD PUSH1 0x0 KECCAK256 SWAP1 POP DUP5 DUP9 PUSH1 0x6 ADD PUSH1 0x0 PUSH2 0x100 EXP DUP2 SLOAD DUP2 PUSH20 0xFFFFFFFFFFFFFFFFFFFFFFFFFFFFFFFFFFFFFFFF MUL NOT AND SWAP1 DUP4 PUSH20 0xFFFFFFFFFFFFFFFFFFFFFFFFFFFFFFFFFFFFFFFF AND MUL OR SWAP1 SSTORE POP DUP7 DUP9 PUSH1 0x7 ADD DUP2 SWAP1 SSTORE POP DUP6 DUP9 PUSH1 0x8 ADD DUP2 SWAP1 SSTORE POP PUSH1 0x1 DUP9 PUSH1 0x3 ADD PUSH1 0x0 PUSH2 0x100 EXP DUP2 SLOAD DUP2 PUSH1 0xFF MUL NOT AND SWAP1 DUP4 ISZERO ISZERO MUL OR SWAP1 SSTORE POP PUSH1 0x40 MLOAD DUP1 PUSH1 0x80 ADD PUSH1 0x40 MSTORE DUP1 DUP7 PUSH20 0xFFFFFFFFFFFFFFFFFFFFFFFFFFFFFFFFFFFFFFFF AND DUP2 MSTORE PUSH1 0x20 ADD DUP3 PUSH1 0x4 ADD DUP1 SLOAD PUSH2 0x12ED SWAP1 PUSH2 0x24C2 JUMP JUMPDEST DUP1 PUSH1 0x1F ADD PUSH1 0x20 DUP1 SWAP2 DIV MUL PUSH1 0x20 ADD PUSH1 0x40 MLOAD SWAP1 DUP2 ADD PUSH1 0x40 MSTORE DUP1 SWAP3 SWAP2 SWAP1 DUP2 DUP2 MSTORE PUSH1 0x20 ADD DUP3 DUP1 SLOAD PUSH2 0x1319 SWAP1 PUSH2 0x24C2 JUMP JUMPDEST DUP1 ISZERO PUSH2 0x1366 JUMPI DUP1 PUSH1 0x1F LT PUSH2 0x133B JUMPI PUSH2 0x100 DUP1 DUP4 SLOAD DIV MUL DUP4 MSTORE SWAP2 PUSH1 0x20 ADD SWAP2 PUSH2 0x1366 JUMP JUMPDEST DUP3 ADD SWAP2 SWAP1 PUSH1 0x0 MSTORE PUSH1 0x20 PUSH1 0x0 KECCAK256 SWAP1 JUMPDEST DUP2 SLOAD DUP2 MSTORE SWAP1 PUSH1 0x1 ADD SWAP1 PUSH1 0x20 ADD DUP1 DUP4 GT PUSH2 0x1349 JUMPI DUP3 SWAP1 SUB PUSH1 0x1F AND DUP3 ADD SWAP2 JUMPDEST POP POP POP POP POP DUP2 MSTORE PUSH1 0x20 ADD DUP3 PUSH1 0x5 ADD DUP1 SLOAD PUSH2 0x137F SWAP1 PUSH2 0x24C2 JUMP JUMPDEST DUP1 PUSH1 0x1F ADD PUSH1 0x20 DUP1 SWAP2 DIV MUL PUSH1 0x20 ADD PUSH1 0x40 MLOAD SWAP1 DUP2 ADD PUSH1 0x40 MSTORE DUP1 SWAP3 SWAP2 SWAP1 DUP2 DUP2 MSTORE PUSH1 0x20 ADD DUP3 DUP1 SLOAD PUSH2 0x13AB SWAP1 PUSH2 0x24C2 JUMP JUMPDEST DUP1 ISZERO PUSH2 0x13F8 JUMPI DUP1 PUSH1 0x1F LT PUSH2 0x13CD JUMPI PUSH2 0x100 DUP1 DUP4 SLOAD DIV MUL DUP4 MSTORE SWAP2 PUSH1 0x20 ADD SWAP2 PUSH2 0x13F8 JUMP JUMPDEST DUP3 ADD SWAP2 SWAP1 PUSH1 0x0 MSTORE PUSH1 0x20 PUSH1 0x0 KECCAK256 SWAP1 JUMPDEST DUP2 SLOAD DUP2 MSTORE SWAP1 PUSH1 0x1 ADD SWAP1 PUSH1 0x20 ADD DUP1 DUP4 GT PUSH2 0x13DB JUMPI DUP3 SWAP1 SUB PUSH1 0x1F AND DUP3 ADD SWAP2 JUMPDEST POP POP POP POP POP DUP2 MSTORE PUSH1 0x20 ADD DUP3 PUSH1 0x6 ADD DUP1 SLOAD PUSH2 0x1411 SWAP1 PUSH2 0x24C2 JUMP JUMPDEST DUP1 PUSH1 0x1F ADD PUSH1 0x20 DUP1 SWAP2 DIV MUL PUSH1 0x20 ADD PUSH1 0x40 MLOAD SWAP1 DUP2 ADD PUSH1 0x40 MSTORE DUP1 SWAP3 SWAP2 SWAP1 DUP2 DUP2 MSTORE PUSH1 0x20 ADD DUP3 DUP1 SLOAD PUSH2 0x143D SWAP1 PUSH2 0x24C2 JUMP JUMPDEST DUP1 ISZERO PUSH2 0x148A JUMPI DUP1 PUSH1 0x1F LT PUSH2 0x145F JUMPI PUSH2 0x100 DUP1 DUP4 SLOAD DIV MUL DUP4 MSTORE SWAP2 PUSH1 0x20 ADD SWAP2 PUSH2 0x148A JUMP JUMPDEST DUP3 ADD SWAP2 SWAP1 PUSH1 0x0 MSTORE PUSH1 0x20 PUSH1 0x0 KECCAK256 SWAP1 JUMPDEST DUP2 SLOAD DUP2 MSTORE SWAP1 PUSH1 0x1 ADD SWAP1 PUSH1 0x20 ADD DUP1 DUP4 GT PUSH2 0x146D JUMPI DUP3 SWAP1 SUB PUSH1 0x1F AND DUP3 ADD SWAP2 JUMPDEST POP POP POP POP POP DUP2 MSTORE POP DUP9 PUSH1 0x9 ADD PUSH1 0x0 DUP3 ADD MLOAD DUP2 PUSH1 0x0 ADD PUSH1 0x0 PUSH2 0x100 EXP DUP2 SLOAD DUP2 PUSH20 0xFFFFFFFFFFFFFFFFFFFFFFFFFFFFFFFFFFFFFFFF MUL NOT AND SWAP1 DUP4 PUSH20 0xFFFFFFFFFFFFFFFFFFFFFFFFFFFFFFFFFFFFFFFF AND MUL OR SWAP1 SSTORE POP PUSH1 0x20 DUP3 ADD MLOAD DUP2 PUSH1 0x1 ADD SWAP1 DUP2 PUSH2 0x14F2 SWAP2 SWAP1 PUSH2 0x293F JUMP JUMPDEST POP PUSH1 0x40 DUP3 ADD MLOAD DUP2 PUSH1 0x2 ADD SWAP1 DUP2 PUSH2 0x1508 SWAP2 SWAP1 PUSH2 0x293F JUMP JUMPDEST POP PUSH1 0x60 DUP3 ADD MLOAD DUP2 PUSH1 0x3 ADD SWAP1 DUP2 PUSH2 0x151E SWAP2 SWAP1 PUSH2 0x293F JUMP JUMPDEST POP SWAP1 POP POP DUP8 PUSH1 0x9 ADD PUSH1 0x2 PUSH1 0x0 DUP3 ADD PUSH1 0x0 SWAP1 SLOAD SWAP1 PUSH2 0x100 EXP SWAP1 DIV PUSH20 0xFFFFFFFFFFFFFFFFFFFFFFFFFFFFFFFFFFFFFFFF AND DUP2 PUSH1 0x0 ADD PUSH1 0x0 PUSH2 0x100 EXP DUP2 SLOAD DUP2 PUSH20 0xFFFFFFFFFFFFFFFFFFFFFFFFFFFFFFFFFFFFFFFF MUL NOT AND SWAP1 DUP4 PUSH20 0xFFFFFFFFFFFFFFFFFFFFFFFFFFFFFFFFFFFFFFFF AND MUL OR SWAP1 SSTORE POP PUSH1 0x1 DUP3 ADD DUP2 PUSH1 0x1 ADD SWAP1 DUP2 PUSH2 0x15A3 SWAP2 SWAP1 PUSH2 0x2B9A JUMP JUMPDEST POP PUSH1 0x2 DUP3 ADD DUP2 PUSH1 0x2 ADD SWAP1 DUP2 PUSH2 0x15B8 SWAP2 SWAP1 PUSH2 0x2B9A JUMP JUMPDEST POP PUSH1 0x3 DUP3 ADD DUP2 PUSH1 0x3 ADD SWAP1 DUP2 PUSH2 0x15CD SWAP2 SWAP1 PUSH2 0x2B9A JUMP JUMPDEST POP SWAP1 POP POP TIMESTAMP PUSH1 0x6 DUP2 SWAP1 SSTORE POP PUSH1 0x0 JUMPDEST DUP9 PUSH1 0x4 ADD DUP1 SLOAD SWAP1 POP DUP2 LT ISZERO PUSH2 0x18C8 JUMPI PUSH1 0x0 DUP10 PUSH1 0x4 ADD DUP3 DUP2 SLOAD DUP2 LT PUSH2 0x1602 JUMPI PUSH2 0x1601 PUSH2 0x2AE9 JUMP JUMPDEST JUMPDEST SWAP1 PUSH1 0x0 MSTORE PUSH1 0x20 PUSH1 0x0 KECCAK256 ADD PUSH1 0x0 SWAP1 SLOAD SWAP1 PUSH2 0x100 EXP SWAP1 DIV PUSH20 0xFFFFFFFFFFFFFFFFFFFFFFFFFFFFFFFFFFFFFFFF AND SWAP1 POP PUSH1 0x0 DUP11 PUSH1 0x5 ADD PUSH1 0x0 DUP4 PUSH20 0xFFFFFFFFFFFFFFFFFFFFFFFFFFFFFFFFFFFFFFFF AND PUSH20 0xFFFFFFFFFFFFFFFFFFFFFFFFFFFFFFFFFFFFFFFF AND DUP2 MSTORE PUSH1 0x20 ADD SWAP1 DUP2 MSTORE PUSH1 0x20 ADD PUSH1 0x0 KECCAK256 SWAP1 POP PUSH1 0x0 DUP9 PUSH20 0xFFFFFFFFFFFFFFFFFFFFFFFFFFFFFFFFFFFFFFFF AND DUP4 PUSH20 0xFFFFFFFFFFFFFFFFFFFFFFFFFFFFFFFFFFFFFFFF AND SUB PUSH2 0x178A JUMPI DUP10 DUP3 PUSH1 0x1 ADD SLOAD GT PUSH2 0x16BB JUMPI PUSH1 0x0 PUSH2 0x16CC JUMP JUMPDEST DUP10 DUP3 PUSH1 0x1 ADD SLOAD PUSH2 0x16CB SWAP2 SWAP1 PUSH2 0x2C82 JUMP JUMPDEST JUMPDEST SWAP1 POP PUSH1 0x0 DUP2 GT ISZERO PUSH2 0x1785 JUMPI PUSH1 0x0 DUP4 PUSH20 0xFFFFFFFFFFFFFFFFFFFFFFFFFFFFFFFFFFFFFFFF AND DUP3 PUSH1 0x40 MLOAD PUSH2 0x16FD SWAP1 PUSH2 0x2CE7 JUMP JUMPDEST PUSH1 0x0 PUSH1 0x40 MLOAD DUP1 DUP4 SUB DUP2 DUP6 DUP8 GAS CALL SWAP3 POP POP POP RETURNDATASIZE DUP1 PUSH1 0x0 DUP2 EQ PUSH2 0x173A JUMPI PUSH1 0x40 MLOAD SWAP2 POP PUSH1 0x1F NOT PUSH1 0x3F RETURNDATASIZE ADD AND DUP3 ADD PUSH1 0x40 MSTORE RETURNDATASIZE DUP3 MSTORE RETURNDATASIZE PUSH1 0x0 PUSH1 0x20 DUP5 ADD RETURNDATACOPY PUSH2 0x173F JUMP JUMPDEST PUSH1 0x60 SWAP2 POP JUMPDEST POP POP SWAP1 POP DUP1 PUSH2 0x1783 JUMPI PUSH1 0x40 MLOAD PUSH32 0x8C379A000000000000000000000000000000000000000000000000000000000 DUP2 MSTORE PUSH1 0x4 ADD PUSH2 0x177A SWAP1 PUSH2 0x2D48 JUMP JUMPDEST PUSH1 0x40 MLOAD DUP1 SWAP2 SUB SWAP1 REVERT JUMPDEST POP JUMPDEST PUSH2 0x1866 JUMP JUMPDEST DUP2 PUSH1 0x2 ADD PUSH1 0x0 SWAP1 SLOAD SWAP1 PUSH2 0x100 EXP SWAP1 DIV PUSH1 0xFF AND ISZERO PUSH2 0x1864 JUMPI DUP2 PUSH1 0x1 ADD SLOAD SWAP1 POP PUSH1 0x0 DUP2 GT ISZERO PUSH2 0x185F JUMPI PUSH1 0x0 DUP4 PUSH20 0xFFFFFFFFFFFFFFFFFFFFFFFFFFFFFFFFFFFFFFFF AND DUP3 PUSH1 0x40 MLOAD PUSH2 0x17D7 SWAP1 PUSH2 0x2CE7 JUMP JUMPDEST PUSH1 0x0 PUSH1 0x40 MLOAD DUP1 DUP4 SUB DUP2 DUP6 DUP8 GAS CALL SWAP3 POP POP POP RETURNDATASIZE DUP1 PUSH1 0x0 DUP2 EQ PUSH2 0x1814 JUMPI PUSH1 0x40 MLOAD SWAP2 POP PUSH1 0x1F NOT PUSH1 0x3F RETURNDATASIZE ADD AND DUP3 ADD PUSH1 0x40 MSTORE RETURNDATASIZE DUP3 MSTORE RETURNDATASIZE PUSH1 0x0 PUSH1 0x20 DUP5 ADD RETURNDATACOPY PUSH2 0x1819 JUMP JUMPDEST PUSH1 0x60 SWAP2 POP JUMPDEST POP POP SWAP1 POP DUP1 PUSH2 0x185D JUMPI PUSH1 0x40 MLOAD PUSH32 0x8C379A000000000000000000000000000000000000000000000000000000000 DUP2 MSTORE PUSH1 0x4 ADD PUSH2 0x1854 SWAP1 PUSH2 0x2D48 JUMP JUMPDEST PUSH1 0x40 MLOAD DUP1 SWAP2 SUB SWAP1 REVERT JUMPDEST POP JUMPDEST PUSH2 0x1865 JUMP JUMPDEST JUMPDEST JUMPDEST DUP3 PUSH20 0xFFFFFFFFFFFFFFFFFFFFFFFFFFFFFFFFFFFFFFFF AND PUSH32 0x73F04AF9DCC582A923EC15D3EEA990FE34ADABFFF2879E28D44572E01A54ABB6 PUSH1 0x0 SLOAD DUP4 PUSH1 0x40 MLOAD PUSH2 0x18B0 SWAP3 SWAP2 SWAP1 PUSH2 0x276F JUMP JUMPDEST PUSH1 0x40 MLOAD DUP1 SWAP2 SUB SWAP1 LOG2 POP POP POP DUP1 DUP1 PUSH1 0x1 ADD SWAP2 POP POP PUSH2 0x15DB JUMP JUMPDEST POP DUP5 PUSH20 0xFFFFFFFFFFFFFFFFFFFFFFFFFFFFFFFFFFFFFFFF AND PUSH32 0xB66E3363DDCE6E1AF5CD43C439AD9F30DB11E7055B4469B01F06712F37DA9527 PUSH1 0x0 SLOAD DUP10 DUP8 DUP8 DUP8 PUSH1 0x40 MLOAD PUSH2 0x1919 SWAP6 SWAP5 SWAP4 SWAP3 SWAP2 SWAP1 PUSH2 0x2D68 JUMP JUMPDEST PUSH1 0x40 MLOAD DUP1 SWAP2 SUB SWAP1 LOG2 PUSH2 0x1929 PUSH2 0x1ABA JUMP JUMPDEST POP POP POP POP POP POP POP POP PUSH1 0x1 PUSH1 0x7 DUP2 SWAP1 SSTORE POP POP POP JUMP JUMPDEST PUSH1 0x3C DUP2 JUMP JUMPDEST PUSH2 0xA8C0 DUP2 JUMP JUMPDEST PUSH2 0xA8C0 DUP2 JUMP JUMPDEST PUSH1 0x0 DUP1 PUSH1 0x0 DUP1 PUSH1 0x1 PUSH1 0x0 DUP7 DUP2 MSTORE PUSH1 0x20 ADD SWAP1 DUP2 MSTORE PUSH1 0x20 ADD PUSH1 0x0 KECCAK256 SWAP1 POP DUP1 PUSH1 0x0 ADD SLOAD DUP2 PUSH1 0x1 ADD SLOAD DUP3 PUSH1 0x2 ADD SLOAD SWAP4 POP SWAP4 POP SWAP4 POP POP SWAP2 SWAP4 SWAP1 SWAP3 POP JUMP JUMPDEST PUSH1 0x0 DUP1 DUP3 SWAP1 POP PUSH1 0x0 DUP1 JUMPDEST DUP3 MLOAD DUP2 LT ISZERO PUSH2 0x1AB2 JUMPI PUSH1 0x20 PUSH1 0xF8 SHL DUP4 DUP3 DUP2 MLOAD DUP2 LT PUSH2 0x19B1 JUMPI PUSH2 0x19B0 PUSH2 0x2AE9 JUMP JUMPDEST JUMPDEST PUSH1 0x20 ADD ADD MLOAD PUSH1 0xF8 SHR PUSH1 0xF8 SHL PUSH31 0xFFFFFFFFFFFFFFFFFFFFFFFFFFFFFFFFFFFFFFFFFFFFFFFFFFFFFFFFFFFFFF NOT AND EQ ISZERO DUP1 ISZERO PUSH2 0x1A2F JUMPI POP PUSH1 0xA PUSH1 0xF8 SHL DUP4 DUP3 DUP2 MLOAD DUP2 LT PUSH2 0x19FF JUMPI PUSH2 0x19FE PUSH2 0x2AE9 JUMP JUMPDEST JUMPDEST PUSH1 0x20 ADD ADD MLOAD PUSH1 0xF8 SHR PUSH1 0xF8 SHL PUSH31 0xFFFFFFFFFFFFFFFFFFFFFFFFFFFFFFFFFFFFFFFFFFFFFFFFFFFFFFFFFFFFFF NOT AND EQ ISZERO JUMPDEST DUP1 ISZERO PUSH2 0x1A7E JUMPI POP PUSH1 0x9 PUSH1 0xF8 SHL DUP4 DUP3 DUP2 MLOAD DUP2 LT PUSH2 0x1A4E JUMPI PUSH2 0x1A4D PUSH2 0x2AE9 JUMP JUMPDEST JUMPDEST PUSH1 0x20 ADD ADD MLOAD PUSH1 0xF8 SHR PUSH1 0xF8 SHL PUSH31 0xFFFFFFFFFFFFFFFFFFFFFFFFFFFFFFFFFFFFFFFFFFFFFFFFFFFFFFFFFFFFFF NOT AND EQ ISZERO JUMPDEST ISZERO PUSH2 0x1AA0 JUMPI DUP2 PUSH2 0x1A9B JUMPI DUP4 DUP1 PUSH2 0x1A93 SWAP1 PUSH2 0x2DD0 JUMP JUMPDEST SWAP5 POP POP PUSH1 0x1 SWAP2 POP JUMPDEST PUSH2 0x1AA5 JUMP JUMPDEST PUSH1 0x0 SWAP2 POP JUMPDEST DUP1 DUP1 PUSH1 0x1 ADD SWAP2 POP POP PUSH2 0x1990 JUMP JUMPDEST POP POP POP SWAP2 SWAP1 POP JUMP JUMPDEST PUSH1 0x0 DUP1 DUP2 SLOAD DUP1 SWAP3 SWAP2 SWAP1 PUSH2 0x1ACC SWAP1 PUSH2 0x2DD0 JUMP JUMPDEST SWAP2 SWAP1 POP SSTORE POP PUSH1 0x0 PUSH1 0x1 PUSH1 0x0 DUP1 SLOAD DUP2 MSTORE PUSH1 0x20 ADD SWAP1 DUP2 MSTORE PUSH1 0x20 ADD PUSH1 0x0 KECCAK256 SWAP1 POP TIMESTAMP DUP2 PUSH1 0x0 ADD DUP2 SWAP1 SSTORE POP PUSH2 0xA8C0 TIMESTAMP PUSH2 0x1B00 SWAP2 SWAP1 PUSH2 0x27C7 JUMP JUMPDEST DUP2 PUSH1 0x1 ADD DUP2 SWAP1 SSTORE POP PUSH2 0xA8C0 DUP2 PUSH1 0x1 ADD SLOAD PUSH2 0x1B1A SWAP2 SWAP1 PUSH2 0x27C7 JUMP JUMPDEST DUP2 PUSH1 0x2 ADD DUP2 SWAP1 SSTORE POP PUSH1 0x0 DUP2 PUSH1 0x3 ADD PUSH1 0x0 PUSH2 0x100 EXP DUP2 SLOAD DUP2 PUSH1 0xFF MUL NOT AND SWAP1 DUP4 ISZERO ISZERO MUL OR SWAP1 SSTORE POP POP JUMP JUMPDEST PUSH1 0x0 DUP3 DUP3 MSTORE PUSH1 0x20 DUP3 ADD SWAP1 POP SWAP3 SWAP2 POP POP JUMP JUMPDEST PUSH32 0x55736520636F6D6D697442696400000000000000000000000000000000000000 PUSH1 0x0 DUP3 ADD MSTORE POP JUMP JUMPDEST PUSH1 0x0 PUSH2 0x1B89 PUSH1 0xD DUP4 PUSH2 0x1B42 JUMP JUMPDEST SWAP2 POP PUSH2 0x1B94 DUP3 PUSH2 0x1B53 JUMP JUMPDEST PUSH1 0x20 DUP3 ADD SWAP1 POP SWAP2 SWAP1 POP JUMP JUMPDEST PUSH1 0x0 PUSH1 0x20 DUP3 ADD SWAP1 POP DUP2 DUP2 SUB PUSH1 0x0 DUP4 ADD MSTORE PUSH2 0x1BB8 DUP2 PUSH2 0x1B7C JUMP JUMPDEST SWAP1 POP SWAP2 SWAP1 POP JUMP JUMPDEST PUSH1 0x0 DUP2 SWAP1 POP SWAP2 SWAP1 POP JUMP JUMPDEST PUSH2 0x1BD2 DUP2 PUSH2 0x1BBF JUMP JUMPDEST DUP3 MSTORE POP POP JUMP JUMPDEST PUSH1 0x0 PUSH1 0x20 DUP3 ADD SWAP1 POP PUSH2 0x1BED PUSH1 0x0 DUP4 ADD DUP5 PUSH2 0x1BC9 JUMP JUMPDEST SWAP3 SWAP2 POP POP JUMP JUMPDEST PUSH1 0x0 DUP1 REVERT JUMPDEST PUSH1 0x0 DUP1 REVERT JUMPDEST PUSH2 0x1C06 DUP2 PUSH2 0x1BBF JUMP JUMPDEST DUP2 EQ PUSH2 0x1C11 JUMPI PUSH1 0x0 DUP1 REVERT JUMPDEST POP JUMP JUMPDEST PUSH1 0x0 DUP2 CALLDATALOAD SWAP1 POP PUSH2 0x1C23 DUP2 PUSH2 0x1BFD JUMP JUMPDEST SWAP3 SWAP2 POP POP JUMP JUMPDEST PUSH1 0x0 DUP1 REVERT JUMPDEST PUSH1 0x0 DUP1 REVERT JUMPDEST PUSH1 0x0 DUP1 REVERT JUMPDEST PUSH1 0x0 DUP1 DUP4 PUSH1 0x1F DUP5 ADD SLT PUSH2 0x1C4E JUMPI PUSH2 0x1C4D PUSH2 0x1C29 JUMP JUMPDEST JUMPDEST DUP3 CALLDATALOAD SWAP1 POP PUSH8 0xFFFFFFFFFFFFFFFF DUP2 GT ISZERO PUSH2 0x1C6B JUMPI PUSH2 0x1C6A PUSH2 0x1C2E JUMP JUMPDEST JUMPDEST PUSH1 0x20 DUP4 ADD SWAP2 POP DUP4 PUSH1 0x1 DUP3 MUL DUP4 ADD GT ISZERO PUSH2 0x1C87 JUMPI PUSH2 0x1C86 PUSH2 0x1C33 JUMP JUMPDEST JUMPDEST SWAP3 POP SWAP3 SWAP1 POP JUMP JUMPDEST PUSH1 0x0 DUP2 SWAP1 POP SWAP2 SWAP1 POP JUMP JUMPDEST PUSH2 0x1CA1 DUP2 PUSH2 0x1C8E JUMP JUMPDEST DUP2 EQ PUSH2 0x1CAC JUMPI PUSH1 0x0 DUP1 REVERT JUMPDEST POP JUMP JUMPDEST PUSH1 0x0 DUP2 CALLDATALOAD SWAP1 POP PUSH2 0x1CBE DUP2 PUSH2 0x1C98 JUMP JUMPDEST SWAP3 SWAP2 POP POP JUMP JUMPDEST PUSH1 0x0 DUP1 PUSH1 0x0 DUP1 PUSH1 0x0 DUP1 PUSH1 0x0 DUP1 PUSH1 0xA0 DUP10 DUP12 SUB SLT ISZERO PUSH2 0x1CE4 JUMPI PUSH2 0x1CE3 PUSH2 0x1BF3 JUMP JUMPDEST JUMPDEST PUSH1 0x0 PUSH2 0x1CF2 DUP12 DUP3 DUP13 ADD PUSH2 0x1C14 JUMP JUMPDEST SWAP9 POP POP PUSH1 0x20 DUP10 ADD CALLDATALOAD PUSH8 0xFFFFFFFFFFFFFFFF DUP2 GT ISZERO PUSH2 0x1D13 JUMPI PUSH2 0x1D12 PUSH2 0x1BF8 JUMP JUMPDEST JUMPDEST PUSH2 0x1D1F DUP12 DUP3 DUP13 ADD PUSH2 0x1C38 JUMP JUMPDEST SWAP8 POP SWAP8 POP POP PUSH1 0x40 DUP10 ADD CALLDATALOAD PUSH8 0xFFFFFFFFFFFFFFFF DUP2 GT ISZERO PUSH2 0x1D42 JUMPI PUSH2 0x1D41 PUSH2 0x1BF8 JUMP JUMPDEST JUMPDEST PUSH2 0x1D4E DUP12 DUP3 DUP13 ADD PUSH2 0x1C38 JUMP JUMPDEST SWAP6 POP SWAP6 POP POP PUSH1 0x60 DUP10 ADD CALLDATALOAD PUSH8 0xFFFFFFFFFFFFFFFF DUP2 GT ISZERO PUSH2 0x1D71 JUMPI PUSH2 0x1D70 PUSH2 0x1BF8 JUMP JUMPDEST JUMPDEST PUSH2 0x1D7D DUP12 DUP3 DUP13 ADD PUSH2 0x1C38 JUMP JUMPDEST SWAP4 POP SWAP4 POP POP PUSH1 0x80 PUSH2 0x1D90 DUP12 DUP3 DUP13 ADD PUSH2 0x1CAF JUMP JUMPDEST SWAP2 POP POP SWAP3 SWAP6 SWAP9 POP SWAP3 SWAP6 SWAP9 SWAP1 SWAP4 SWAP7 POP JUMP JUMPDEST PUSH1 0x0 PUSH20 0xFFFFFFFFFFFFFFFFFFFFFFFFFFFFFFFFFFFFFFFF DUP3 AND SWAP1 POP SWAP2 SWAP1 POP JUMP JUMPDEST PUSH1 0x0 PUSH2 0x1DCB DUP3 PUSH2 0x1DA0 JUMP JUMPDEST SWAP1 POP SWAP2 SWAP1 POP JUMP JUMPDEST PUSH2 0x1DDB DUP2 PUSH2 0x1DC0 JUMP JUMPDEST DUP3 MSTORE POP POP JUMP JUMPDEST PUSH1 0x0 DUP2 MLOAD SWAP1 POP SWAP2 SWAP1 POP JUMP JUMPDEST PUSH1 0x0 JUMPDEST DUP4 DUP2 LT ISZERO PUSH2 0x1E0A JUMPI DUP1 DUP3 ADD MLOAD DUP2 DUP5 ADD MSTORE PUSH1 0x20 DUP2 ADD SWAP1 POP PUSH2 0x1DEF JUMP JUMPDEST PUSH1 0x0 DUP5 DUP5 ADD MSTORE POP POP POP POP JUMP JUMPDEST PUSH1 0x0 PUSH1 0x1F NOT PUSH1 0x1F DUP4 ADD AND SWAP1 POP SWAP2 SWAP1 POP JUMP JUMPDEST PUSH1 0x0 PUSH2 0x1E32 DUP3 PUSH2 0x1DE1 JUMP JUMPDEST PUSH2 0x1E3C DUP2 DUP6 PUSH2 0x1B42 JUMP JUMPDEST SWAP4 POP PUSH2 0x1E4C DUP2 DUP6 PUSH1 0x20 DUP7 ADD PUSH2 0x1DEC JUMP JUMPDEST PUSH2 0x1E55 DUP2 PUSH2 0x1E16 JUMP JUMPDEST DUP5 ADD SWAP2 POP POP SWAP3 SWAP2 POP POP JUMP JUMPDEST PUSH1 0x0 PUSH1 0xA0 DUP3 ADD SWAP1 POP PUSH2 0x1E75 PUSH1 0x0 DUP4 ADD DUP9 PUSH2 0x1DD2 JUMP JUMPDEST DUP2 DUP2 SUB PUSH1 0x20 DUP4 ADD MSTORE PUSH2 0x1E87 DUP2 DUP8 PUSH2 0x1E27 JUMP JUMPDEST SWAP1 POP DUP2 DUP2 SUB PUSH1 0x40 DUP4 ADD MSTORE PUSH2 0x1E9B DUP2 DUP7 PUSH2 0x1E27 JUMP JUMPDEST SWAP1 POP DUP2 DUP2 SUB PUSH1 0x60 DUP4 ADD MSTORE PUSH2 0x1EAF DUP2 DUP6 PUSH2 0x1E27 JUMP JUMPDEST SWAP1 POP PUSH2 0x1EBE PUSH1 0x80 DUP4 ADD DUP5 PUSH2 0x1BC9 JUMP JUMPDEST SWAP7 SWAP6 POP POP POP POP POP POP JUMP JUMPDEST PUSH1 0x0 PUSH1 0x80 DUP3 ADD SWAP1 POP PUSH2 0x1EDD PUSH1 0x0 DUP4 ADD DUP8 PUSH2 0x1DD2 JUMP JUMPDEST DUP2 DUP2 SUB PUSH1 0x20 DUP4 ADD MSTORE PUSH2 0x1EEF DUP2 DUP7 PUSH2 0x1E27 JUMP JUMPDEST SWAP1 POP DUP2 DUP2 SUB PUSH1 0x40 DUP4 ADD MSTORE PUSH2 0x1F03 DUP2 DUP6 PUSH2 0x1E27 JUMP JUMPDEST SWAP1 POP DUP2 DUP2 SUB PUSH1 0x60 DUP4 ADD MSTORE PUSH2 0x1F17 DUP2 DUP5 PUSH2 0x1E27 JUMP JUMPDEST SWAP1 POP SWAP6 SWAP5 POP POP POP POP POP JUMP JUMPDEST PUSH1 0x0 PUSH1 0x20 DUP3 DUP5 SUB SLT ISZERO PUSH2 0x1F38 JUMPI PUSH2 0x1F37 PUSH2 0x1BF3 JUMP JUMPDEST JUMPDEST PUSH1 0x0 PUSH2 0x1F46 DUP5 DUP3 DUP6 ADD PUSH2 0x1CAF JUMP JUMPDEST SWAP2 POP POP SWAP3 SWAP2 POP POP JUMP JUMPDEST PUSH1 0x0 PUSH1 0x20 DUP3 DUP5 SUB SLT ISZERO PUSH2 0x1F65 JUMPI PUSH2 0x1F64 PUSH2 0x1BF3 JUMP JUMPDEST JUMPDEST PUSH1 0x0 PUSH2 0x1F73 DUP5 DUP3 DUP6 ADD PUSH2 0x1C14 JUMP JUMPDEST SWAP2 POP POP SWAP3 SWAP2 POP POP JUMP JUMPDEST PUSH1 0x0 PUSH1 0x60 DUP3 ADD SWAP1 POP PUSH2 0x1F91 PUSH1 0x0 DUP4 ADD DUP7 PUSH2 0x1BC9 JUMP JUMPDEST PUSH2 0x1F9E PUSH1 0x20 DUP4 ADD DUP6 PUSH2 0x1BC9 JUMP JUMPDEST PUSH2 0x1FAB PUSH1 0x40 DUP4 ADD DUP5 PUSH2 0x1BC9 JUMP JUMPDEST SWAP5 SWAP4 POP POP POP POP JUMP JUMPDEST PUSH32 0x4E6F7420696E2072657665616C20706861736500000000000000000000000000 PUSH1 0x0 DUP3 ADD MSTORE POP JUMP JUMPDEST PUSH1 0x0 PUSH2 0x1FE9 PUSH1 0x13 DUP4 PUSH2 0x1B42 JUMP JUMPDEST SWAP2 POP PUSH2 0x1FF4 DUP3 PUSH2 0x1FB3 JUMP JUMPDEST PUSH1 0x20 DUP3 ADD SWAP1 POP SWAP2 SWAP1 POP JUMP JUMPDEST PUSH1 0x0 PUSH1 0x20 DUP3 ADD SWAP1 POP DUP2 DUP2 SUB PUSH1 0x0 DUP4 ADD MSTORE PUSH2 0x2018 DUP2 PUSH2 0x1FDC JUMP JUMPDEST SWAP1 POP SWAP2 SWAP1 POP JUMP JUMPDEST PUSH32 0x5265656E7472616E637947756172643A204C4F434B4544000000000000000000 PUSH1 0x0 DUP3 ADD MSTORE POP JUMP JUMPDEST PUSH1 0x0 PUSH2 0x2055 PUSH1 0x17 DUP4 PUSH2 0x1B42 JUMP JUMPDEST SWAP2 POP PUSH2 0x2060 DUP3 PUSH2 0x201F JUMP JUMPDEST PUSH1 0x20 DUP3 ADD SWAP1 POP SWAP2 SWAP1 POP JUMP JUMPDEST PUSH1 0x0 PUSH1 0x20 DUP3 ADD SWAP1 POP DUP2 DUP2 SUB PUSH1 0x0 DUP4 ADD MSTORE PUSH2 0x2084 DUP2 PUSH2 0x2048 JUMP JUMPDEST SWAP1 POP SWAP2 SWAP1 POP JUMP JUMPDEST PUSH32 0x4E6F20636F6D6D69740000000000000000000000000000000000000000000000 PUSH1 0x0 DUP3 ADD MSTORE POP JUMP JUMPDEST PUSH1 0x0 PUSH2 0x20C1 PUSH1 0x9 DUP4 PUSH2 0x1B42 JUMP JUMPDEST SWAP2 POP PUSH2 0x20CC DUP3 PUSH2 0x208B JUMP JUMPDEST PUSH1 0x20 DUP3 ADD SWAP1 POP SWAP2 SWAP1 POP JUMP JUMPDEST PUSH1 0x0 PUSH1 0x20 DUP3 ADD SWAP1 POP DUP2 DUP2 SUB PUSH1 0x0 DUP4 ADD MSTORE PUSH2 0x20F0 DUP2 PUSH2 0x20B4 JUMP JUMPDEST SWAP1 POP SWAP2 SWAP1 POP JUMP JUMPDEST PUSH32 0x416C72656164792072657665616C656400000000000000000000000000000000 PUSH1 0x0 DUP3 ADD MSTORE POP JUMP JUMPDEST PUSH1 0x0 PUSH2 0x212D PUSH1 0x10 DUP4 PUSH2 0x1B42 JUMP JUMPDEST SWAP2 POP PUSH2 0x2138 DUP3 PUSH2 0x20F7 JUMP JUMPDEST PUSH1 0x20 DUP3 ADD SWAP1 POP SWAP2 SWAP1 POP JUMP JUMPDEST PUSH1 0x0 PUSH1 0x20 DUP3 ADD SWAP1 POP DUP2 DUP2 SUB PUSH1 0x0 DUP4 ADD MSTORE PUSH2 0x215C DUP2 PUSH2 0x2120 JUMP JUMPDEST SWAP1 POP SWAP2 SWAP1 POP JUMP JUMPDEST PUSH1 0x0 DUP2 SWAP1 POP SWAP2 SWAP1 POP JUMP JUMPDEST PUSH2 0x217E PUSH2 0x2179 DUP3 PUSH2 0x1BBF JUMP JUMPDEST PUSH2 0x2163 JUMP JUMPDEST DUP3 MSTORE POP POP JUMP JUMPDEST PUSH1 0x0 DUP2 SWAP1 POP SWAP3 SWAP2 POP POP JUMP JUMPDEST DUP3 DUP2 DUP4 CALLDATACOPY PUSH1 0x0 DUP4 DUP4 ADD MSTORE POP POP POP JUMP JUMPDEST PUSH1 0x0 PUSH2 0x21AA DUP4 DUP6 PUSH2 0x2184 JUMP JUMPDEST SWAP4 POP PUSH2 0x21B7 DUP4 DUP6 DUP5 PUSH2 0x218F JUMP JUMPDEST DUP3 DUP5 ADD SWAP1 POP SWAP4 SWAP3 POP POP POP JUMP JUMPDEST PUSH1 0x0 DUP2 SWAP1 POP SWAP2 SWAP1 POP JUMP JUMPDEST PUSH2 0x21DE PUSH2 0x21D9 DUP3 PUSH2 0x1C8E JUMP JUMPDEST PUSH2 0x21C3 JUMP JUMPDEST DUP3 MSTORE POP POP JUMP JUMPDEST PUSH1 0x0 PUSH2 0x21F0 DUP3 DUP12 PUSH2 0x216D JUMP JUMPDEST PUSH1 0x20 DUP3 ADD SWAP2 POP PUSH2 0x2201 DUP3 DUP10 DUP12 PUSH2 0x219E JUMP JUMPDEST SWAP2 POP PUSH2 0x220E DUP3 DUP8 DUP10 PUSH2 0x219E JUMP JUMPDEST SWAP2 POP PUSH2 0x221B DUP3 DUP6 DUP8 PUSH2 0x219E JUMP JUMPDEST SWAP2 POP PUSH2 0x2227 DUP3 DUP5 PUSH2 0x21CD JUMP JUMPDEST PUSH1 0x20 DUP3 ADD SWAP2 POP DUP2 SWAP1 POP SWAP10 SWAP9 POP POP POP POP POP POP POP POP POP JUMP JUMPDEST PUSH32 0x496E76616C69642072657665616C000000000000000000000000000000000000 PUSH1 0x0 DUP3 ADD MSTORE POP JUMP JUMPDEST PUSH1 0x0 PUSH2 0x2273 PUSH1 0xE DUP4 PUSH2 0x1B42 JUMP JUMPDEST SWAP2 POP PUSH2 0x227E DUP3 PUSH2 0x223D JUMP JUMPDEST PUSH1 0x20 DUP3 ADD SWAP1 POP SWAP2 SWAP1 POP JUMP JUMPDEST PUSH1 0x0 PUSH1 0x20 DUP3 ADD SWAP1 POP DUP2 DUP2 SUB PUSH1 0x0 DUP4 ADD MSTORE PUSH2 0x22A2 DUP2 PUSH2 0x2266 JUMP JUMPDEST SWAP1 POP SWAP2 SWAP1 POP JUMP JUMPDEST PUSH32 0x496E73756666696369656E7420636F6C6C61746572616C000000000000000000 PUSH1 0x0 DUP3 ADD MSTORE POP JUMP JUMPDEST PUSH1 0x0 PUSH2 0x22DF PUSH1 0x17 DUP4 PUSH2 0x1B42 JUMP JUMPDEST SWAP2 POP PUSH2 0x22EA DUP3 PUSH2 0x22A9 JUMP JUMPDEST PUSH1 0x20 DUP3 ADD SWAP1 POP SWAP2 SWAP1 POP JUMP JUMPDEST PUSH1 0x0 PUSH1 0x20 DUP3 ADD SWAP1 POP DUP2 DUP2 SUB PUSH1 0x0 DUP4 ADD MSTORE PUSH2 0x230E DUP2 PUSH2 0x22D2 JUMP JUMPDEST SWAP1 POP SWAP2 SWAP1 POP JUMP JUMPDEST PUSH32 0x5465787420746F6F206C6F6E6700000000000000000000000000000000000000 PUSH1 0x0 DUP3 ADD MSTORE POP JUMP JUMPDEST PUSH1 0x0 PUSH2 0x234B PUSH1 0xD DUP4 PUSH2 0x1B42 JUMP JUMPDEST SWAP2 POP PUSH2 0x2356 DUP3 PUSH2 0x2315 JUMP JUMPDEST PUSH1 0x20 DUP3 ADD SWAP1 POP SWAP2 SWAP1 POP JUMP JUMPDEST PUSH1 0x0 PUSH1 0x20 DUP3 ADD SWAP1 POP DUP2 DUP2 SUB PUSH1 0x0 DUP4 ADD MSTORE PUSH2 0x237A DUP2 PUSH2 0x233E JUMP JUMPDEST SWAP1 POP SWAP2 SWAP1 POP JUMP JUMPDEST PUSH32 0x496D6167652043494420746F6F206C6172676500000000000000000000000000 PUSH1 0x0 DUP3 ADD MSTORE POP JUMP JUMPDEST PUSH1 0x0 PUSH2 0x23B7 PUSH1 0x13 DUP4 PUSH2 0x1B42 JUMP JUMPDEST SWAP2 POP PUSH2 0x23C2 DUP3 PUSH2 0x2381 JUMP JUMPDEST PUSH1 0x20 DUP3 ADD SWAP1 POP SWAP2 SWAP1 POP JUMP JUMPDEST PUSH1 0x0 PUSH1 0x20 DUP3 ADD SWAP1 POP DUP2 DUP2 SUB PUSH1 0x0 DUP4 ADD MSTORE PUSH2 0x23E6 DUP2 PUSH2 0x23AA JUMP JUMPDEST SWAP1 POP SWAP2 SWAP1 POP JUMP JUMPDEST PUSH32 0x566F6963652043494420746F6F206C6172676500000000000000000000000000 PUSH1 0x0 DUP3 ADD MSTORE POP JUMP JUMPDEST PUSH1 0x0 PUSH2 0x2423 PUSH1 0x13 DUP4 PUSH2 0x1B42 JUMP JUMPDEST SWAP2 POP PUSH2 0x242E DUP3 PUSH2 0x23ED JUMP JUMPDEST PUSH1 0x20 DUP3 ADD SWAP1 POP SWAP2 SWAP1 POP JUMP JUMPDEST PUSH1 0x0 PUSH1 0x20 DUP3 ADD SWAP1 POP DUP2 DUP2 SUB PUSH1 0x0 DUP4 ADD MSTORE PUSH2 0x2452 DUP2 PUSH2 0x2416 JUMP JUMPDEST SWAP1 POP SWAP2 SWAP1 POP JUMP JUMPDEST PUSH1 0x0 DUP3 SWAP1 POP SWAP3 SWAP2 POP POP JUMP JUMPDEST PUSH32 0x4E487B7100000000000000000000000000000000000000000000000000000000 PUSH1 0x0 MSTORE PUSH1 0x41 PUSH1 0x4 MSTORE PUSH1 0x24 PUSH1 0x0 REVERT JUMPDEST PUSH32 0x4E487B7100000000000000000000000000000000000000000000000000000000 PUSH1 0x0 MSTORE PUSH1 0x22 PUSH1 0x4 MSTORE PUSH1 0x24 PUSH1 0x0 REVERT JUMPDEST PUSH1 0x0 PUSH1 0x2 DUP3 DIV SWAP1 POP PUSH1 0x1 DUP3 AND DUP1 PUSH2 0x24DA JUMPI PUSH1 0x7F DUP3 AND SWAP2 POP JUMPDEST PUSH1 0x20 DUP3 LT DUP2 SUB PUSH2 0x24ED JUMPI PUSH2 0x24EC PUSH2 0x2493 JUMP JUMPDEST JUMPDEST POP SWAP2 SWAP1 POP JUMP JUMPDEST PUSH1 0x0 DUP2 SWAP1 POP DUP2 PUSH1 0x0 MSTORE PUSH1 0x20 PUSH1 0x0 KECCAK256 SWAP1 POP SWAP2 SWAP1 POP JUMP JUMPDEST PUSH1 0x0 PUSH1 0x20 PUSH1 0x1F DUP4 ADD DIV SWAP1 POP SWAP2 SWAP1 POP JUMP JUMPDEST PUSH1 0x0 DUP3 DUP3 SHL SWAP1 POP SWAP3 SWAP2 POP POP JUMP JUMPDEST PUSH1 0x0 PUSH1 0x8 DUP4 MUL PUSH2 0x2555 PUSH32 0xFFFFFFFFFFFFFFFFFFFFFFFFFFFFFFFFFFFFFFFFFFFFFFFFFFFFFFFFFFFFFFFF DUP3 PUSH2 0x2518 JUMP JUMPDEST PUSH2 0x255F DUP7 DUP4 PUSH2 0x2518 JUMP JUMPDEST SWAP6 POP DUP1 NOT DUP5 AND SWAP4 POP DUP1 DUP7 AND DUP5 OR SWAP3 POP POP POP SWAP4 SWAP3 POP POP POP JUMP JUMPDEST PUSH1 0x0 DUP2 SWAP1 POP SWAP2 SWAP1 POP JUMP JUMPDEST PUSH1 0x0 PUSH2 0x259C PUSH2 0x2597 PUSH2 0x2592 DUP5 PUSH2 0x1BBF JUMP JUMPDEST PUSH2 0x2577 JUMP JUMPDEST PUSH2 0x1BBF JUMP JUMPDEST SWAP1 POP SWAP2 SWAP1 POP JUMP JUMPDEST PUSH1 0x0 DUP2 SWAP1 POP SWAP2 SWAP1 POP JUMP JUMPDEST PUSH2 0x25B6 DUP4 PUSH2 0x2581 JUMP JUMPDEST PUSH2 0x25CA PUSH2 0x25C2 DUP3 PUSH2 0x25A3 JUMP JUMPDEST DUP5 DUP5 SLOAD PUSH2 0x2525 JUMP JUMPDEST DUP3 SSTORE POP POP POP POP JUMP JUMPDEST PUSH1 0x0 SWAP1 JUMP JUMPDEST PUSH2 0x25DF PUSH2 0x25D2 JUMP JUMPDEST PUSH2 0x25EA DUP2 DUP5 DUP5 PUSH2 0x25AD JUMP JUMPDEST POP POP POP JUMP JUMPDEST JUMPDEST DUP2 DUP2 LT ISZERO PUSH2 0x260E JUMPI PUSH2 0x2603 PUSH1 0x0 DUP3 PUSH2 0x25D7 JUMP JUMPDEST PUSH1 0x1 DUP2 ADD SWAP1 POP PUSH2 0x25F0 JUMP JUMPDEST POP POP JUMP JUMPDEST PUSH1 0x1F DUP3 GT ISZERO PUSH2 0x2653 JUMPI PUSH2 0x2624 DUP2 PUSH2 0x24F3 JUMP JUMPDEST PUSH2 0x262D DUP5 PUSH2 0x2508 JUMP JUMPDEST DUP2 ADD PUSH1 0x20 DUP6 LT ISZERO PUSH2 0x263C JUMPI DUP2 SWAP1 POP JUMPDEST PUSH2 0x2650 PUSH2 0x2648 DUP6 PUSH2 0x2508 JUMP JUMPDEST DUP4 ADD DUP3 PUSH2 0x25EF JUMP JUMPDEST POP POP JUMPDEST POP POP POP JUMP JUMPDEST PUSH1 0x0 DUP3 DUP3 SHR SWAP1 POP SWAP3 SWAP2 POP POP JUMP JUMPDEST PUSH1 0x0 PUSH2 0x2676 PUSH1 0x0 NOT DUP5 PUSH1 0x8 MUL PUSH2 0x2658 JUMP JUMPDEST NOT DUP1 DUP4 AND SWAP2 POP POP SWAP3 SWAP2 POP POP JUMP JUMPDEST PUSH1 0x0 PUSH2 0x268F DUP4 DUP4 PUSH2 0x2665 JUMP JUMPDEST SWAP2 POP DUP3 PUSH1 0x2 MUL DUP3 OR SWAP1 POP SWAP3 SWAP2 POP POP JUMP JUMPDEST PUSH2 0x26A9 DUP4 DUP4 PUSH2 0x2459 JUMP JUMPDEST PUSH8 0xFFFFFFFFFFFFFFFF DUP2 GT ISZERO PUSH2 0x26C2 JUMPI PUSH2 0x26C1 PUSH2 0x2464 JUMP JUMPDEST JUMPDEST PUSH2 0x26CC DUP3 SLOAD PUSH2 0x24C2 JUMP JUMPDEST PUSH2 0x26D7 DUP3 DUP3 DUP6 PUSH2 0x2612 JUMP JUMPDEST PUSH1 0x0 PUSH1 0x1F DUP4 GT PUSH1 0x1 DUP2 EQ PUSH2 0x2706 JUMPI PUSH1 0x0 DUP5 ISZERO PUSH2 0x26F4 JUMPI DUP3 DUP8 ADD CALLDATALOAD SWAP1 POP JUMPDEST PUSH2 0x26FE DUP6 DUP3 PUSH2 0x2683 JUMP JUMPDEST DUP7 SSTORE POP PUSH2 0x2766 JUMP JUMPDEST PUSH1 0x1F NOT DUP5 AND PUSH2 0x2714 DUP7 PUSH2 0x24F3 JUMP JUMPDEST PUSH1 0x0 JUMPDEST DUP3 DUP2 LT ISZERO PUSH2 0x273C JUMPI DUP5 DUP10 ADD CALLDATALOAD DUP3 SSTORE PUSH1 0x1 DUP3 ADD SWAP2 POP PUSH1 0x20 DUP6 ADD SWAP5 POP PUSH1 0x20 DUP2 ADD SWAP1 POP PUSH2 0x2717 JUMP JUMPDEST DUP7 DUP4 LT ISZERO PUSH2 0x2759 JUMPI DUP5 DUP10 ADD CALLDATALOAD PUSH2 0x2755 PUSH1 0x1F DUP10 AND DUP3 PUSH2 0x2665 JUMP JUMPDEST DUP4 SSTORE POP JUMPDEST PUSH1 0x1 PUSH1 0x2 DUP9 MUL ADD DUP9 SSTORE POP POP POP JUMPDEST POP POP POP POP POP POP POP JUMP JUMPDEST PUSH1 0x0 PUSH1 0x40 DUP3 ADD SWAP1 POP PUSH2 0x2784 PUSH1 0x0 DUP4 ADD DUP6 PUSH2 0x1BC9 JUMP JUMPDEST PUSH2 0x2791 PUSH1 0x20 DUP4 ADD DUP5 PUSH2 0x1BC9 JUMP JUMPDEST SWAP4 SWAP3 POP POP POP JUMP JUMPDEST PUSH32 0x4E487B7100000000000000000000000000000000000000000000000000000000 PUSH1 0x0 MSTORE PUSH1 0x11 PUSH1 0x4 MSTORE PUSH1 0x24 PUSH1 0x0 REVERT JUMPDEST PUSH1 0x0 PUSH2 0x27D2 DUP3 PUSH2 0x1BBF JUMP JUMPDEST SWAP2 POP PUSH2 0x27DD DUP4 PUSH2 0x1BBF JUMP JUMPDEST SWAP3 POP DUP3 DUP3 ADD SWAP1 POP DUP1 DUP3 GT ISZERO PUSH2 0x27F5 JUMPI PUSH2 0x27F4 PUSH2 0x2798 JUMP JUMPDEST JUMPDEST SWAP3 SWAP2 POP POP JUMP JUMPDEST PUSH32 0x4E6F7420696E20636F6D6D697420706861736500000000000000000000000000 PUSH1 0x0 DUP3 ADD MSTORE POP JUMP JUMPDEST PUSH1 0x0 PUSH2 0x2831 PUSH1 0x13 DUP4 PUSH2 0x1B42 JUMP JUMPDEST SWAP2 POP PUSH2 0x283C DUP3 PUSH2 0x27FB JUMP JUMPDEST PUSH1 0x20 DUP3 ADD SWAP1 POP SWAP2 SWAP1 POP JUMP JUMPDEST PUSH1 0x0 PUSH1 0x20 DUP3 ADD SWAP1 POP DUP2 DUP2 SUB PUSH1 0x0 DUP4 ADD MSTORE PUSH2 0x2860 DUP2 PUSH2 0x2824 JUMP JUMPDEST SWAP1 POP SWAP2 SWAP1 POP JUMP JUMPDEST PUSH32 0x416C726561647920636F6D6D6974746564000000000000000000000000000000 PUSH1 0x0 DUP3 ADD MSTORE POP JUMP JUMPDEST PUSH1 0x0 PUSH2 0x289D PUSH1 0x11 DUP4 PUSH2 0x1B42 JUMP JUMPDEST SWAP2 POP PUSH2 0x28A8 DUP3 PUSH2 0x2867 JUMP JUMPDEST PUSH1 0x20 DUP3 ADD SWAP1 POP SWAP2 SWAP1 POP JUMP JUMPDEST PUSH1 0x0 PUSH1 0x20 DUP3 ADD SWAP1 POP DUP2 DUP2 SUB PUSH1 0x0 DUP4 ADD MSTORE PUSH2 0x28CC DUP2 PUSH2 0x2890 JUMP JUMPDEST SWAP1 POP SWAP2 SWAP1 POP JUMP JUMPDEST PUSH32 0x436F6C6C61746572616C20726571756972656400000000000000000000000000 PUSH1 0x0 DUP3 ADD MSTORE POP JUMP JUMPDEST PUSH1 0x0 PUSH2 0x2909 PUSH1 0x13 DUP4 PUSH2 0x1B42 JUMP JUMPDEST SWAP2 POP PUSH2 0x2914 DUP3 PUSH2 0x28D3 JUMP JUMPDEST PUSH1 0x20 DUP3 ADD SWAP1 POP SWAP2 SWAP1 POP JUMP JUMPDEST PUSH1 0x0 PUSH1 0x20 DUP3 ADD SWAP1 POP DUP2 DUP2 SUB PUSH1 0x0 DUP4 ADD MSTORE PUSH2 0x2938 DUP2 PUSH2 0x28FC JUMP JUMPDEST SWAP1 POP SWAP2 SWAP1 POP JUMP JUMPDEST PUSH2 0x2948 DUP3 PUSH2 0x1DE1 JUMP JUMPDEST PUSH8 0xFFFFFFFFFFFFFFFF DUP2 GT ISZERO PUSH2 0x2961 JUMPI PUSH2 0x2960 PUSH2 0x2464 JUMP JUMPDEST JUMPDEST PUSH2 0x296B DUP3 SLOAD PUSH2 0x24C2 JUMP JUMPDEST PUSH2 0x2976 DUP3 DUP3 DUP6 PUSH2 0x2612 JUMP JUMPDEST PUSH1 0x0 PUSH1 0x20 SWAP1 POP PUSH1 0x1F DUP4 GT PUSH1 0x1 DUP2 EQ PUSH2 0x29A9 JUMPI PUSH1 0x0 DUP5 ISZERO PUSH2 0x2997 JUMPI DUP3 DUP8 ADD MLOAD SWAP1 POP JUMPDEST PUSH2 0x29A1 DUP6 DUP3 PUSH2 0x2683 JUMP JUMPDEST DUP7 SSTORE POP PUSH2 0x2A09 JUMP JUMPDEST PUSH1 0x1F NOT DUP5 AND PUSH2 0x29B7 DUP7 PUSH2 0x24F3 JUMP JUMPDEST PUSH1 0x0 JUMPDEST DUP3 DUP2 LT ISZERO PUSH2 0x29DF JUMPI DUP5 DUP10 ADD MLOAD DUP3 SSTORE PUSH1 0x1 DUP3 ADD SWAP2 POP PUSH1 0x20 DUP6 ADD SWAP5 POP PUSH1 0x20 DUP2 ADD SWAP1 POP PUSH2 0x29BA JUMP JUMPDEST DUP7 DUP4 LT ISZERO PUSH2 0x29FC JUMPI DUP5 DUP10 ADD MLOAD PUSH2 0x29F8 PUSH1 0x1F DUP10 AND DUP3 PUSH2 0x2665 JUMP JUMPDEST DUP4 SSTORE POP JUMPDEST PUSH1 0x1 PUSH1 0x2 DUP9 MUL ADD DUP9 SSTORE POP POP POP JUMPDEST POP POP POP POP POP POP JUMP JUMPDEST PUSH32 0x52657665616C206E6F7420656E64656400000000000000000000000000000000 PUSH1 0x0 DUP3 ADD MSTORE POP JUMP JUMPDEST PUSH1 0x0 PUSH2 0x2A47 PUSH1 0x10 DUP4 PUSH2 0x1B42 JUMP JUMPDEST SWAP2 POP PUSH2 0x2A52 DUP3 PUSH2 0x2A11 JUMP JUMPDEST PUSH1 0x20 DUP3 ADD SWAP1 POP SWAP2 SWAP1 POP JUMP JUMPDEST PUSH1 0x0 PUSH1 0x20 DUP3 ADD SWAP1 POP DUP2 DUP2 SUB PUSH1 0x0 DUP4 ADD MSTORE PUSH2 0x2A76 DUP2 PUSH2 0x2A3A JUMP JUMPDEST SWAP1 POP SWAP2 SWAP1 POP JUMP JUMPDEST PUSH32 0x416C726561647920736574746C65640000000000000000000000000000000000 PUSH1 0x0 DUP3 ADD MSTORE POP JUMP JUMPDEST PUSH1 0x0 PUSH2 0x2AB3 PUSH1 0xF DUP4 PUSH2 0x1B42 JUMP JUMPDEST SWAP2 POP PUSH2 0x2ABE DUP3 PUSH2 0x2A7D JUMP JUMPDEST PUSH1 0x20 DUP3 ADD SWAP1 POP SWAP2 SWAP1 POP JUMP JUMPDEST PUSH1 0x0 PUSH1 0x20 DUP3 ADD SWAP1 POP DUP2 DUP2 SUB PUSH1 0x0 DUP4 ADD MSTORE PUSH2 0x2AE2 DUP2 PUSH2 0x2AA6 JUMP JUMPDEST SWAP1 POP SWAP2 SWAP1 POP JUMP JUMPDEST PUSH32 0x4E487B7100000000000000000000000000000000000000000000000000000000 PUSH1 0x0 MSTORE PUSH1 0x32 PUSH1 0x4 MSTORE PUSH1 0x24 PUSH1 0x0 REVERT JUMPDEST PUSH32 0x4E6F2076616C6964206269647300000000000000000000000000000000000000 PUSH1 0x0 DUP3 ADD MSTORE POP JUMP JUMPDEST PUSH1 0x0 PUSH2 0x2B4E PUSH1 0xD DUP4 PUSH2 0x1B42 JUMP JUMPDEST SWAP2 POP PUSH2 0x2B59 DUP3 PUSH2 0x2B18 JUMP JUMPDEST PUSH1 0x20 DUP3 ADD SWAP1 POP SWAP2 SWAP1 POP JUMP JUMPDEST PUSH1 0x0 PUSH1 0x20 DUP3 ADD SWAP1 POP DUP2 DUP2 SUB PUSH1 0x0 DUP4 ADD MSTORE PUSH2 0x2B7D DUP2 PUSH2 0x2B41 JUMP JUMPDEST SWAP1 POP SWAP2 SWAP1 POP JUMP JUMPDEST PUSH1 0x0 DUP2 SLOAD SWAP1 POP PUSH2 0x2B93 DUP2 PUSH2 0x24C2 JUMP JUMPDEST SWAP1 POP SWAP2 SWAP1 POP JUMP JUMPDEST DUP2 DUP2 SUB PUSH2 0x2BA8 JUMPI POP POP PUSH2 0x2C80 JUMP JUMPDEST PUSH2 0x2BB1 DUP3 PUSH2 0x2B84 JUMP JUMPDEST PUSH8 0xFFFFFFFFFFFFFFFF DUP2 GT ISZERO PUSH2 0x2BCA JUMPI PUSH2 0x2BC9 PUSH2 0x2464 JUMP JUMPDEST JUMPDEST PUSH2 0x2BD4 DUP3 SLOAD PUSH2 0x24C2 JUMP JUMPDEST PUSH2 0x2BDF DUP3 DUP3 DUP6 PUSH2 0x2612 JUMP JUMPDEST PUSH1 0x0 PUSH1 0x1F DUP4 GT PUSH1 0x1 DUP2 EQ PUSH2 0x2C0E JUMPI PUSH1 0x0 DUP5 ISZERO PUSH2 0x2BFC JUMPI DUP3 DUP8 ADD SLOAD SWAP1 POP JUMPDEST PUSH2 0x2C06 DUP6 DUP3 PUSH2 0x2683 JUMP JUMPDEST DUP7 SSTORE POP PUSH2 0x2C79 JUMP JUMPDEST PUSH1 0x1F NOT DUP5 AND PUSH2 0x2C1C DUP8 PUSH2 0x24F3 JUMP JUMPDEST SWAP7 POP PUSH2 0x2C27 DUP7 PUSH2 0x24F3 JUMP JUMPDEST PUSH1 0x0 JUMPDEST DUP3 DUP2 LT ISZERO PUSH2 0x2C4F JUMPI DUP5 DUP10 ADD SLOAD DUP3 SSTORE PUSH1 0x1 DUP3 ADD SWAP2 POP PUSH1 0x1 DUP6 ADD SWAP5 POP PUSH1 0x20 DUP2 ADD SWAP1 POP PUSH2 0x2C2A JUMP JUMPDEST DUP7 DUP4 LT ISZERO PUSH2 0x2C6C JUMPI DUP5 DUP10 ADD SLOAD PUSH2 0x2C68 PUSH1 0x1F DUP10 AND DUP3 PUSH2 0x2665 JUMP JUMPDEST DUP4 SSTORE POP JUMPDEST PUSH1 0x1 PUSH1 0x2 DUP9 MUL ADD DUP9 SSTORE POP POP POP JUMPDEST POP POP POP POP POP POP JUMPDEST JUMP JUMPDEST PUSH1 0x0 PUSH2 0x2C8D DUP3 PUSH2 0x1BBF JUMP JUMPDEST SWAP2 POP PUSH2 0x2C98 DUP4 PUSH2 0x1BBF JUMP JUMPDEST SWAP3 POP DUP3 DUP3 SUB SWAP1 POP DUP2 DUP2 GT ISZERO PUSH2 0x2CB0 JUMPI PUSH2 0x2CAF PUSH2 0x2798 JUMP JUMPDEST JUMPDEST SWAP3 SWAP2 POP POP JUMP JUMPDEST PUSH1 0x0 DUP2 SWAP1 POP SWAP3 SWAP2 POP POP JUMP JUMPDEST POP JUMP JUMPDEST PUSH1 0x0 PUSH2 0x2CD1 PUSH1 0x0 DUP4 PUSH2 0x2CB6 JUMP JUMPDEST SWAP2 POP PUSH2 0x2CDC DUP3 PUSH2 0x2CC1 JUMP JUMPDEST PUSH1 0x0 DUP3 ADD SWAP1 POP SWAP2 SWAP1 POP JUMP JUMPDEST PUSH1 0x0 PUSH2 0x2CF2 DUP3 PUSH2 0x2CC4 JUMP JUMPDEST SWAP2 POP DUP2 SWAP1 POP SWAP2 SWAP1 POP JUMP JUMPDEST PUSH32 0x526566756E64206661696C656400000000000000000000000000000000000000 PUSH1 0x0 DUP3 ADD MSTORE POP JUMP JUMPDEST PUSH1 0x0 PUSH2 0x2D32 PUSH1 0xD DUP4 PUSH2 0x1B42 JUMP JUMPDEST SWAP2 POP PUSH2 0x2D3D DUP3 PUSH2 0x2CFC JUMP JUMPDEST PUSH1 0x20 DUP3 ADD SWAP1 POP SWAP2 SWAP1 POP JUMP JUMPDEST PUSH1 0x0 PUSH1 0x20 DUP3 ADD SWAP1 POP DUP2 DUP2 SUB PUSH1 0x0 DUP4 ADD MSTORE PUSH2 0x2D61 DUP2 PUSH2 0x2D25 JUMP JUMPDEST SWAP1 POP SWAP2 SWAP1 POP JUMP JUMPDEST PUSH1 0x0 PUSH1 0xA0 DUP3 ADD SWAP1 POP PUSH2 0x2D7D PUSH1 0x0 DUP4 ADD DUP9 PUSH2 0x1BC9 JUMP JUMPDEST PUSH2 0x2D8A PUSH1 0x20 DUP4 ADD DUP8 PUSH2 0x1BC9 JUMP JUMPDEST DUP2 DUP2 SUB PUSH1 0x40 DUP4 ADD MSTORE PUSH2 0x2D9C DUP2 DUP7 PUSH2 0x1E27 JUMP JUMPDEST SWAP1 POP DUP2 DUP2 SUB PUSH1 0x60 DUP4 ADD MSTORE PUSH2 0x2DB0 DUP2 DUP6 PUSH2 0x1E27 JUMP JUMPDEST SWAP1 POP DUP2 DUP2 SUB PUSH1 0x80 DUP4 ADD MSTORE PUSH2 0x2DC4 DUP2 DUP5 PUSH2 0x1E27 JUMP JUMPDEST SWAP1 POP SWAP7 SWAP6 POP POP POP POP POP POP JUMP JUMPDEST PUSH1 0x0 PUSH2 0x2DDB DUP3 PUSH2 0x1BBF JUMP JUMPDEST SWAP2 POP PUSH32 0xFFFFFFFFFFFFFFFFFFFFFFFFFFFFFFFFFFFFFFFFFFFFFFFFFFFFFFFFFFFFFFFF DUP3 SUB PUSH2 0x2E0D JUMPI PUSH2 0x2E0C PUSH2 0x2798 JUMP JUMPDEST JUMPDEST PUSH1 0x1 DUP3 ADD SWAP1 POP SWAP2 SWAP1 POP JUMP INVALID LOG2 PUSH5 0x6970667358 0x22 SLT KECCAK256 0x22 STOP SWAP16 LT 0x4F PUSH2 0x7BB4 CALL 0xD0 0xDF 0xAF PUSH17 0x13319B4910C308F6E1247E44C1974E640B SIGNEXTEND ADD PUSH5 0x736F6C6343 STOP ADDMOD SHR STOP CALLER "},"gasEstimates":{"creation":{"codeDepositCost":"2370800","executionCost":"infinite","totalCost":"infinite"},"external":{"COMMIT_DURATION()":"395","IMAGE_CID_LIMIT()":"374","REVEAL_DURATION()":"373","VOICE_CID_LIMIT()":"397","VOICE_SECONDS_LIMIT()":"351","WORD_LIMIT()":"352","commitBid(bytes32)":"infinite","currentAuctionId()":"2453","getAuctionTimes(uint256)":"infinite","getWinnerPost()":"infinite","lastWinnerPost()":"infinite","lastWinnerTime()":"2518","revealBid(uint256,string,string,string,bytes32)":"infinite","settleAuction()":"infinite"},"internal":{"_startNewAuction()":"infinite","_wordCount(string memory)":"infinite"}},"methodIdentifiers":{"COMMIT_DURATION()":"b971e2fd","IMAGE_CID_LIMIT()":"8e8dcb93","REVEAL_DURATION()":"b39773a6","VOICE_CID_LIMIT()":"2d144995","VOICE_SECONDS_LIMIT()":"b18dfeee","WORD_LIMIT()":"6bd83375","commitBid(bytes32)":"86a2cc27","currentAuctionId()":"0c0b86ca","getAuctionTimes(uint256)":"f6cf5d7d","getWinnerPost()":"7069bfdb","lastWinnerPost()":"78cad813","lastWinnerTime()":"8422f022","revealBid(uint256,string,string,string,bytes32)":"22c6cd2d","settleAuction()":"a4d0a17e"}},"storageLayout":{"storage":[{"astId":112,"contract":"contracts/HighestVoice.sol:HighestVoice","label":"currentAuctionId","offset":0,"slot":"0","type":"t_uint256"},{"astId":117,"contract":"contracts/HighestVoice.sol:HighestVoice","label":"auctions","offset":0,"slot":"1","type":"t_mapping(t_uint256,t_struct(Auction)88_storage)"},{"astId":120,"contract":"contracts/HighestVoice.sol:HighestVoice","label":"lastWinnerPost","offset":0,"slot":"2","type":"t_struct(Post)47_storage"},{"astId":122,"contract":"contracts/HighestVoice.sol:HighestVoice","label":"lastWinnerTime","offset":0,"slot":"6","type":"t_uint256"},{"astId":125,"contract":"contracts/HighestVoice.sol:HighestVoice","label":"unlocked","offset":0,"slot":"7","type":"t_uint256"}],"types":{"t_address":{"encoding":"inplace","label":"address","numberOfBytes":"20"},"t_array(t_address)dyn_storage":{"base":"t_address","encoding":"dynamic_array","label":"address[]","numberOfBytes":"32"},"t_bool":{"encoding":"inplace","label":"bool","numberOfBytes":"1"},"t_bytes32":{"encoding":"inplace","label":"bytes32","numberOfBytes":"32"},"t_mapping(t_address,t_struct(BidCommit)62_storage)":{"encoding":"mapping","key":"t_address","label":"mapping(address => struct HighestVoice.BidCommit)","numberOfBytes":"32","value":"t_struct(BidCommit)62_storage"},"t_mapping(t_uint256,t_struct(Auction)88_storage)":{"encoding":"mapping","key":"t_uint256","label":"mapping(uint256 => struct HighestVoice.Auction)","numberOfBytes":"32","value":"t_struct(Auction)88_storage"},"t_string_storage":{"encoding":"bytes","label":"string","numberOfBytes":"32"},"t_struct(Auction)88_storage":{"encoding":"inplace","label":"struct HighestVoice.Auction","members":[{"astId":64,"contract":"contracts/HighestVoice.sol:HighestVoice","label":"startTime","offset":0,"slot":"0","type":"t_uint256"},{"astId":66,"contract":"contracts/HighestVoice.sol:HighestVoice","label":"commitEnd","offset":0,"slot":"1","type":"t_uint256"},{"astId":68,"contract":"contracts/HighestVoice.sol:HighestVoice","label":"revealEnd","offset":0,"slot":"2","type":"t_uint256"},{"astId":70,"contract":"contracts/HighestVoice.sol:HighestVoice","label":"settled","offset":0,"slot":"3","type":"t_bool"},{"astId":73,"contract":"contracts/HighestVoice.sol:HighestVoice","label":"bidders","offset":0,"slot":"4","type":"t_array(t_address)dyn_storage"},{"astId":78,"contract":"contracts/HighestVoice.sol:HighestVoice","label":"commits","offset":0,"slot":"5","type":"t_mapping(t_address,t_struct(BidCommit)62_storage)"},{"astId":80,"contract":"contracts/HighestVoice.sol:HighestVoice","label":"winner","offset":0,"slot":"6","type":"t_address"},{"astId":82,"contract":"contracts/HighestVoice.sol:HighestVoice","label":"winningBid","offset":0,"slot":"7","type":"t_uint256"},{"astId":84,"contract":"contracts/HighestVoice.sol:HighestVoice","label":"secondBid","offset":0,"slot":"8","type":"t_uint256"},{"astId":87,"contract":"contracts/HighestVoice.sol:HighestVoice","label":"winnerPost","offset":0,"slot":"9","type":"t_struct(Post)47_storage"}],"numberOfBytes":"416"},"t_struct(BidCommit)62_storage":{"encoding":"inplace","label":"struct HighestVoice.BidCommit","members":[{"astId":49,"contract":"contracts/HighestVoice.sol:HighestVoice","label":"commitHash","offset":0,"slot":"0","type":"t_bytes32"},{"astId":51,"contract":"contracts/HighestVoice.sol:HighestVoice","label":"collateral","offset":0,"slot":"1","type":"t_uint256"},{"astId":53,"contract":"contracts/HighestVoice.sol:HighestVoice","label":"revealed","offset":0,"slot":"2","type":"t_bool"},{"astId":55,"contract":"contracts/HighestVoice.sol:HighestVoice","label":"revealedBid","offset":0,"slot":"3","type":"t_uint256"},{"astId":57,"contract":"contracts/HighestVoice.sol:HighestVoice","label":"text","offset":0,"slot":"4","type":"t_string_storage"},{"astId":59,"contract":"contracts/HighestVoice.sol:HighestVoice","label":"imageCid","offset":0,"slot":"5","type":"t_string_storage"},{"astId":61,"contract":"contracts/HighestVoice.sol:HighestVoice","label":"voiceCid","offset":0,"slot":"6","type":"t_string_storage"}],"numberOfBytes":"224"},"t_struct(Post)47_storage":{"encoding":"inplace","label":"struct HighestVoice.Post","members":[{"astId":40,"contract":"contracts/HighestVoice.sol:HighestVoice","label":"owner","offset":0,"slot":"0","type":"t_address"},{"astId":42,"contract":"contracts/HighestVoice.sol:HighestVoice","label":"text","offset":0,"slot":"1","type":"t_string_storage"},{"astId":44,"contract":"contracts/HighestVoice.sol:HighestVoice","label":"imageCid","offset":0,"slot":"2","type":"t_string_storage"},{"astId":46,"contract":"contracts/HighestVoice.sol:HighestVoice","label":"voiceCid","offset":0,"slot":"3","type":"t_string_storage"}],"numberOfBytes":"128"},"t_uint256":{"encoding":"inplace","label":"uint256","numberOfBytes":"32"}}},"userdoc":{"kind":"user","methods":{},"notice":"Permissionless, second-price sealed-bid auction for projecting the loudest voice on-chain.         Each auction round lasts 24h: 12h commit, 12h reveal. Winner's post is projected for 24h.         No owner/admin, ETH only, fully decentralized.","version":1}}}}