{
  "address": "0x5FbDB2315678afecb367f032d93F642f64180aa3",
  "abi": [
    {
      "inputs": [],
      "stateMutability": "nonpayable",
      "type": "constructor"
    },
    {
      "anonymous": false,
      "inputs": [
        {
          "indexed": true,
          "internalType": "address",
          "name": "bidder",
          "type": "address"
        },
        {
          "indexed": false,
          "internalType": "uint256",
          "name": "auctionId",
          "type": "uint256"
        }
      ],
      "name": "NewCommit",
      "type": "event"
    },
    {
      "anonymous": false,
      "inputs": [
        {
          "indexed": true,
          "internalType": "address",
          "name": "bidder",
          "type": "address"
        },
        {
          "indexed": false,
          "internalType": "uint256",
          "name": "auctionId",
          "type": "uint256"
        },
        {
          "indexed": false,
          "internalType": "uint256",
          "name": "bid",
          "type": "uint256"
        }
      ],
      "name": "NewReveal",
      "type": "event"
    },
    {
      "anonymous": false,
      "inputs": [
        {
          "indexed": true,
          "internalType": "address",
          "name": "winner",
          "type": "address"
        },
        {
          "indexed": false,
          "internalType": "uint256",
          "name": "auctionId",
          "type": "uint256"
        },
        {
          "indexed": false,
          "internalType": "uint256",
          "name": "amount",
          "type": "uint256"
        },
        {
          "indexed": false,
          "internalType": "string",
          "name": "text",
          "type": "string"
        },
        {
          "indexed": false,
          "internalType": "string",
          "name": "imageCid",
          "type": "string"
        },
        {
          "indexed": false,
          "internalType": "string",
          "name": "voiceCid",
          "type": "string"
        }
      ],
      "name": "NewWinner",
      "type": "event"
    },
    {
      "anonymous": false,
      "inputs": [
        {
          "indexed": true,
          "internalType": "address",
          "name": "bidder",
          "type": "address"
        },
        {
          "indexed": false,
          "internalType": "uint256",
          "name": "auctionId",
          "type": "uint256"
        },
        {
          "indexed": false,
          "internalType": "uint256",
          "name": "amount",
          "type": "uint256"
        }
      ],
      "name": "Refund",
      "type": "event"
    },
    {
      "inputs": [],
      "name": "COMMIT_DURATION",
      "outputs": [
        {
          "internalType": "uint256",
          "name": "",
          "type": "uint256"
        }
      ],
      "stateMutability": "view",
      "type": "function"
    },
    {
      "inputs": [],
      "name": "IMAGE_CID_LIMIT",
      "outputs": [
        {
          "internalType": "uint256",
          "name": "",
          "type": "uint256"
        }
      ],
      "stateMutability": "view",
      "type": "function"
    },
    {
      "inputs": [],
      "name": "REVEAL_DURATION",
      "outputs": [
        {
          "internalType": "uint256",
          "name": "",
          "type": "uint256"
        }
      ],
      "stateMutability": "view",
      "type": "function"
    },
    {
      "inputs": [],
      "name": "VOICE_CID_LIMIT",
      "outputs": [
        {
          "internalType": "uint256",
          "name": "",
          "type": "uint256"
        }
      ],
      "stateMutability": "view",
      "type": "function"
    },
    {
      "inputs": [],
      "name": "VOICE_SECONDS_LIMIT",
      "outputs": [
        {
          "internalType": "uint256",
          "name": "",
          "type": "uint256"
        }
      ],
      "stateMutability": "view",
      "type": "function"
    },
    {
      "inputs": [],
      "name": "WORD_LIMIT",
      "outputs": [
        {
          "internalType": "uint256",
          "name": "",
          "type": "uint256"
        }
      ],
      "stateMutability": "view",
      "type": "function"
    },
    {
      "inputs": [
        {
          "internalType": "bytes32",
          "name": "commitHash",
          "type": "bytes32"
        }
      ],
      "name": "commitBid",
      "outputs": [],
      "stateMutability": "payable",
      "type": "function"
    },
    {
      "inputs": [],
      "name": "currentAuctionId",
      "outputs": [
        {
          "internalType": "uint256",
          "name": "",
          "type": "uint256"
        }
      ],
      "stateMutability": "view",
      "type": "function"
    },
    {
      "inputs": [
        {
          "internalType": "uint256",
          "name": "auctionId",
          "type": "uint256"
        }
      ],
      "name": "getAuctionTimes",
      "outputs": [
        {
          "internalType": "uint256",
          "name": "start",
          "type": "uint256"
        },
        {
          "internalType": "uint256",
          "name": "commitEnd",
          "type": "uint256"
        },
        {
          "internalType": "uint256",
          "name": "revealEnd",
          "type": "uint256"
        }
      ],
      "stateMutability": "view",
      "type": "function"
    },
    {
      "inputs": [],
      "name": "getCountdownEnd",
      "outputs": [
        {
          "internalType": "uint256",
          "name": "",
          "type": "uint256"
        }
      ],
      "stateMutability": "view",
      "type": "function"
    },
    {
      "inputs": [],
      "name": "getWinnerPost",
      "outputs": [
        {
          "internalType": "address",
          "name": "owner",
          "type": "address"
        },
        {
          "internalType": "string",
          "name": "text",
          "type": "string"
        },
        {
          "internalType": "string",
          "name": "imageCid",
          "type": "string"
        },
        {
          "internalType": "string",
          "name": "voiceCid",
          "type": "string"
        },
        {
          "internalType": "uint256",
          "name": "projectedUntil",
          "type": "uint256"
        }
      ],
      "stateMutability": "view",
      "type": "function"
    },
    {
      "inputs": [],
      "name": "lastWinnerPost",
      "outputs": [
        {
          "internalType": "address",
          "name": "owner",
          "type": "address"
        },
        {
          "internalType": "string",
          "name": "text",
          "type": "string"
        },
        {
          "internalType": "string",
          "name": "imageCid",
          "type": "string"
        },
        {
          "internalType": "string",
          "name": "voiceCid",
          "type": "string"
        }
      ],
      "stateMutability": "view",
      "type": "function"
    },
    {
      "inputs": [],
      "name": "lastWinnerTime",
      "outputs": [
        {
          "internalType": "uint256",
          "name": "",
          "type": "uint256"
        }
      ],
      "stateMutability": "view",
      "type": "function"
    },
    {
      "inputs": [
        {
          "internalType": "uint256",
          "name": "bidAmount",
          "type": "uint256"
        },
        {
          "internalType": "string",
          "name": "text",
          "type": "string"
        },
        {
          "internalType": "string",
          "name": "imageCid",
          "type": "string"
        },
        {
          "internalType": "string",
          "name": "voiceCid",
          "type": "string"
        },
        {
          "internalType": "bytes32",
          "name": "salt",
          "type": "bytes32"
        }
      ],
      "name": "revealBid",
      "outputs": [],
      "stateMutability": "nonpayable",
      "type": "function"
    },
    {
      "inputs": [],
      "name": "settleAuction",
      "outputs": [],
      "stateMutability": "nonpayable",
      "type": "function"
    },
    {
      "stateMutability": "payable",
      "type": "receive"
    }
  ],
  "transactionHash": "0x5800a533575e1d5b5dfd521f9441b9f6582566e005480bc2b7c50cec1db24a5e",
  "args": [],
  "numDeployments": 1,
  "solcInputHash": "d155a3ecf88858e49793c82bbdeb533c",
  "bytecode": "0x6080604052600160075534801561001557600080fd5b5061002461002960201b60201c565b610166565b60008081548092919061003b906100ea565b919050555060006001600080548152602001908152602001600020905042816000018190555061a8c04261006f9190610132565b816001018190555061a8c081600101546100899190610132565b816002018190555060008160030160006101000a81548160ff02191690831515021790555050565b7f4e487b7100000000000000000000000000000000000000000000000000000000600052601160045260246000fd5b6000819050919050565b60006100f5826100e0565b91507fffffffffffffffffffffffffffffffffffffffffffffffffffffffffffffffff8203610127576101266100b1565b5b600182019050919050565b600061013d826100e0565b9150610148836100e0565b92508282019050808211156101605761015f6100b1565b5b92915050565b612ea3806101756000396000f3fe6080604052600436106100ec5760003560e01c80638422f0221161008a578063b18dfeee11610059578063b18dfeee146102ec578063b39773a614610317578063b971e2fd14610342578063f6cf5d7d1461036d5761012c565b80638422f0221461026357806386a2cc271461028e5780638e8dcb93146102aa578063a4d0a17e146102d55761012c565b80632d144995116100c65780632d144995146101b05780636bd83375146101db5780637069bfdb1461020657806378cad813146102355761012c565b806305a4e8c4146101315780630c0b86ca1461015c57806322c6cd2d146101875761012c565b3661012c576040517f08c379a000000000000000000000000000000000000000000000000000000000815260040161012390611bf4565b60405180910390fd5b600080fd5b34801561013d57600080fd5b506101466103ac565b6040516101539190611c2d565b60405180910390f35b34801561016857600080fd5b506101716103cb565b60405161017e9190611c2d565b60405180910390f35b34801561019357600080fd5b506101ae60048036038101906101a99190611d19565b6103d1565b005b3480156101bc57600080fd5b506101c5610833565b6040516101d29190611c2d565b60405180910390f35b3480156101e757600080fd5b506101f061083a565b6040516101fd9190611c2d565b60405180910390f35b34801561021257600080fd5b5061021b61083f565b60405161022c959493929190611eb5565b60405180910390f35b34801561024157600080fd5b5061024a610a42565b60405161025a9493929190611f1d565b60405180910390f35b34801561026f57600080fd5b50610278610c18565b6040516102859190611c2d565b60405180910390f35b6102a860048036038101906102a39190611f77565b610c1e565b005b3480156102b657600080fd5b506102bf610faa565b6040516102cc9190611c2d565b60405180910390f35b3480156102e157600080fd5b506102ea610fb1565b005b3480156102f857600080fd5b50610301611992565b60405161030e9190611c2d565b60405180910390f35b34801561032357600080fd5b5061032c611997565b6040516103399190611c2d565b60405180910390f35b34801561034e57600080fd5b5061035761199d565b6040516103649190611c2d565b60405180910390f35b34801561037957600080fd5b50610394600480360381019061038f9190611fa4565b6119a3565b6040516103a393929190611fd1565b60405180910390f35b6000600160008054815260200190815260200160002060020154905090565b60005481565b6000546000600160008381526020019081526020016000209050806001015442101580156104025750806002015442105b610441576040517f08c379a000000000000000000000000000000000000000000000000000000000815260040161043890612054565b60405180910390fd5b600160075414610486576040517f08c379a000000000000000000000000000000000000000000000000000000000815260040161047d906120c0565b60405180910390fd5b600060078190555060006001600080548152602001908152602001600020905060008160050160003373ffffffffffffffffffffffffffffffffffffffff1673ffffffffffffffffffffffffffffffffffffffff16815260200190815260200160002090506000801b816000015403610534576040517f08c379a000000000000000000000000000000000000000000000000000000000815260040161052b9061212c565b60405180910390fd5b8060020160009054906101000a900460ff1615610586576040517f08c379a000000000000000000000000000000000000000000000000000000000815260040161057d90612198565b60405180910390fd5b8b8b8b8b8b8b8b8b6040516020016105a5989796959493929190612239565b60405160208183030381529060405280519060200120816000015414610600576040517f08c379a00000000000000000000000000000000000000000000000000000000081526004016105f7906122de565b60405180910390fd5b80600101548c1115610647576040517f08c379a000000000000000000000000000000000000000000000000000000000815260040161063e9061234a565b60405180910390fd5b60646106968c8c8080601f016020809104026020016040519081016040528093929190818152602001838380828437600081840152601f19601f820116905080830192505050505050506119db565b11156106d7576040517f08c379a00000000000000000000000000000000000000000000000000000000081526004016106ce906123b6565b60405180910390fd5b6207d000898990501115610720576040517f08c379a000000000000000000000000000000000000000000000000000000000815260040161071790612422565b60405180910390fd5b62100000878790501115610769576040517f08c379a00000000000000000000000000000000000000000000000000000000081526004016107609061248e565b60405180910390fd5b60018160020160006101000a81548160ff0219169083151502179055508b81600301819055508a8a8260040191826107a29291906126f4565b5088888260050191826107b69291906126f4565b5086868260060191826107ca9291906126f4565b503373ffffffffffffffffffffffffffffffffffffffff167f7f6e696a3e1ee7b129def0b695a9ff2dbe2aa14956e7ef220fe170dfefa2b5876000548e6040516108159291906127c4565b60405180910390a25050600160078190555050505050505050505050565b6210000081565b606481565b600060608060606000600260000160009054906101000a900473ffffffffffffffffffffffffffffffffffffffff1660026001016002800160026003016201518060065461088d919061281c565b83805461089990612517565b80601f01602080910402602001604051908101604052809291908181526020018280546108c590612517565b80156109125780601f106108e757610100808354040283529160200191610912565b820191906000526020600020905b8154815290600101906020018083116108f557829003601f168201915b5050505050935082805461092590612517565b80601f016020809104026020016040519081016040528092919081815260200182805461095190612517565b801561099e5780601f106109735761010080835404028352916020019161099e565b820191906000526020600020905b81548152906001019060200180831161098157829003601f168201915b505050505092508180546109b190612517565b80601f01602080910402602001604051908101604052809291908181526020018280546109dd90612517565b8015610a2a5780601f106109ff57610100808354040283529160200191610a2a565b820191906000526020600020905b815481529060010190602001808311610a0d57829003601f168201915b50505050509150945094509450945094509091929394565b60028060000160009054906101000a900473ffffffffffffffffffffffffffffffffffffffff1690806001018054610a7990612517565b80601f0160208091040260200160405190810160405280929190818152602001828054610aa590612517565b8015610af25780601f10610ac757610100808354040283529160200191610af2565b820191906000526020600020905b815481529060010190602001808311610ad557829003601f168201915b505050505090806002018054610b0790612517565b80601f0160208091040260200160405190810160405280929190818152602001828054610b3390612517565b8015610b805780601f10610b5557610100808354040283529160200191610b80565b820191906000526020600020905b815481529060010190602001808311610b6357829003601f168201915b505050505090806003018054610b9590612517565b80601f0160208091040260200160405190810160405280929190818152602001828054610bc190612517565b8015610c0e5780601f10610be357610100808354040283529160200191610c0e565b820191906000526020600020905b815481529060010190602001808311610bf157829003601f168201915b5050505050905084565b60065481565b600054600060016000838152602001908152602001600020905080600001544210158015610c4f5750806001015442105b610c8e576040517f08c379a0000000000000000000000000000000000000000000000000000000008152600401610c859061289c565b60405180910390fd5b600160075414610cd3576040517f08c379a0000000000000000000000000000000000000000000000000000000008152600401610cca906120c0565b60405180910390fd5b60006007819055506000600160008054815260200190815260200160002090506000801b8160050160003373ffffffffffffffffffffffffffffffffffffffff1673ffffffffffffffffffffffffffffffffffffffff1681526020019081526020016000206000015414610d7c576040517f08c379a0000000000000000000000000000000000000000000000000000000008152600401610d7390612908565b60405180910390fd5b60003411610dbf576040517f08c379a0000000000000000000000000000000000000000000000000000000008152600401610db690612974565b60405180910390fd5b80600401339080600181540180825580915050600190039060005260206000200160009091909190916101000a81548173ffffffffffffffffffffffffffffffffffffffff021916908373ffffffffffffffffffffffffffffffffffffffff1602179055506040518060e0016040528085815260200134815260200160001515815260200160008152602001604051806020016040528060008152508152602001604051806020016040528060008152508152602001604051806020016040528060008152508152508160050160003373ffffffffffffffffffffffffffffffffffffffff1673ffffffffffffffffffffffffffffffffffffffff168152602001908152602001600020600082015181600001556020820151816001015560408201518160020160006101000a81548160ff021916908315150217905550606082015181600301556080820151816004019081610f1c9190612994565b5060a0820151816005019081610f329190612994565b5060c0820151816006019081610f489190612994565b509050503373ffffffffffffffffffffffffffffffffffffffff167f5edc8168be8240adbd40c80b80100b66c85826c01bf37440d3ba9cc61e062186600054604051610f949190611c2d565b60405180910390a2506001600781905550505050565b6207d00081565b60005460006001600083815260200190815260200160002090508060020154421015611012576040517f08c379a000000000000000000000000000000000000000000000000000000000815260040161100990612ab2565b60405180910390fd5b600160075414611057576040517f08c379a000000000000000000000000000000000000000000000000000000000815260040161104e906120c0565b60405180910390fd5b60006007819055506000600160008054815260200190815260200160002090508060030160009054906101000a900460ff16156110c9576040517f08c379a00000000000000000000000000000000000000000000000000000000081526004016110c090612b1e565b60405180910390fd5b6000806000606080606060005b87600401805490508110156111e55760008860040182815481106110fd576110fc612b3e565b5b9060005260206000200160009054906101000a900473ffffffffffffffffffffffffffffffffffffffff16905060008960050160008373ffffffffffffffffffffffffffffffffffffffff1673ffffffffffffffffffffffffffffffffffffffff16815260200190815260200160002090508060020160009054906101000a900460ff1680156111905750888160030154115b156111a757889750806003015498508196506111d6565b8060020160009054906101000a900460ff1680156111c85750878160030154115b156111d557806003015497505b5b505080806001019150506110d6565b50600073ffffffffffffffffffffffffffffffffffffffff168473ffffffffffffffffffffffffffffffffffffffff1603611255576040517f08c379a000000000000000000000000000000000000000000000000000000000815260040161124c90612bb9565b60405180910390fd5b60008760050160008673ffffffffffffffffffffffffffffffffffffffff1673ffffffffffffffffffffffffffffffffffffffff1681526020019081526020016000209050848860060160006101000a81548173ffffffffffffffffffffffffffffffffffffffff021916908373ffffffffffffffffffffffffffffffffffffffff16021790555086886007018190555085886008018190555060018860030160006101000a81548160ff02191690831515021790555060405180608001604052808673ffffffffffffffffffffffffffffffffffffffff16815260200182600401805461134290612517565b80601f016020809104026020016040519081016040528092919081815260200182805461136e90612517565b80156113bb5780601f10611390576101008083540402835291602001916113bb565b820191906000526020600020905b81548152906001019060200180831161139e57829003601f168201915b505050505081526020018260050180546113d490612517565b80601f016020809104026020016040519081016040528092919081815260200182805461140090612517565b801561144d5780601f106114225761010080835404028352916020019161144d565b820191906000526020600020905b81548152906001019060200180831161143057829003601f168201915b5050505050815260200182600601805461146690612517565b80601f016020809104026020016040519081016040528092919081815260200182805461149290612517565b80156114df5780601f106114b4576101008083540402835291602001916114df565b820191906000526020600020905b8154815290600101906020018083116114c257829003601f168201915b50505050508152508860090160008201518160000160006101000a81548173ffffffffffffffffffffffffffffffffffffffff021916908373ffffffffffffffffffffffffffffffffffffffff16021790555060208201518160010190816115479190612994565b50604082015181600201908161155d9190612994565b5060608201518160030190816115739190612994565b509050508760090160026000820160009054906101000a900473ffffffffffffffffffffffffffffffffffffffff168160000160006101000a81548173ffffffffffffffffffffffffffffffffffffffff021916908373ffffffffffffffffffffffffffffffffffffffff160217905550600182018160010190816115f89190612bef565b506002820181600201908161160d9190612bef565b50600382018160030190816116229190612bef565b509050504260068190555060005b886004018054905081101561191d57600089600401828154811061165757611656612b3e565b5b9060005260206000200160009054906101000a900473ffffffffffffffffffffffffffffffffffffffff16905060008a60050160008373ffffffffffffffffffffffffffffffffffffffff1673ffffffffffffffffffffffffffffffffffffffff168152602001908152602001600020905060008873ffffffffffffffffffffffffffffffffffffffff168373ffffffffffffffffffffffffffffffffffffffff16036117df5789826001015411611710576000611721565b8982600101546117209190612cd7565b5b905060008111156117da5760008373ffffffffffffffffffffffffffffffffffffffff168260405161175290612d3c565b60006040518083038185875af1925050503d806000811461178f576040519150601f19603f3d011682016040523d82523d6000602084013e611794565b606091505b50509050806117d8576040517f08c379a00000000000000000000000000000000000000000000000000000000081526004016117cf90612d9d565b60405180910390fd5b505b6118bb565b8160020160009054906101000a900460ff16156118b9578160010154905060008111156118b45760008373ffffffffffffffffffffffffffffffffffffffff168260405161182c90612d3c565b60006040518083038185875af1925050503d8060008114611869576040519150601f19603f3d011682016040523d82523d6000602084013e61186e565b606091505b50509050806118b2576040517f08c379a00000000000000000000000000000000000000000000000000000000081526004016118a990612d9d565b60405180910390fd5b505b6118ba565b5b5b8273ffffffffffffffffffffffffffffffffffffffff167f73f04af9dcc582a923ec15d3eea990fe34adabfff2879e28d44572e01a54abb6600054836040516119059291906127c4565b60405180910390a25050508080600101915050611630565b508473ffffffffffffffffffffffffffffffffffffffff167fb66e3363ddce6e1af5cd43c439ad9f30db11e7055b4469b01f06712f37da95276000548987878760405161196e959493929190612dbd565b60405180910390a261197e611b0f565b505050505050505060016007819055505050565b603c81565b61a8c081565b61a8c081565b600080600080600160008681526020019081526020016000209050806000015481600101548260020154935093509350509193909250565b6000808290506000805b8251811015611b0757602060f81b838281518110611a0657611a05612b3e565b5b602001015160f81c60f81b7effffffffffffffffffffffffffffffffffffffffffffffffffffffffffffff191614158015611a845750600a60f81b838281518110611a5457611a53612b3e565b5b602001015160f81c60f81b7effffffffffffffffffffffffffffffffffffffffffffffffffffffffffffff191614155b8015611ad35750600960f81b838281518110611aa357611aa2612b3e565b5b602001015160f81c60f81b7effffffffffffffffffffffffffffffffffffffffffffffffffffffffffffff191614155b15611af55781611af0578380611ae890612e25565b945050600191505b611afa565b600091505b80806001019150506119e5565b505050919050565b600080815480929190611b2190612e25565b919050555060006001600080548152602001908152602001600020905042816000018190555061a8c042611b55919061281c565b816001018190555061a8c08160010154611b6f919061281c565b816002018190555060008160030160006101000a81548160ff02191690831515021790555050565b600082825260208201905092915050565b7f55736520636f6d6d697442696400000000000000000000000000000000000000600082015250565b6000611bde600d83611b97565b9150611be982611ba8565b602082019050919050565b60006020820190508181036000830152611c0d81611bd1565b9050919050565b6000819050919050565b611c2781611c14565b82525050565b6000602082019050611c426000830184611c1e565b92915050565b600080fd5b600080fd5b611c5b81611c14565b8114611c6657600080fd5b50565b600081359050611c7881611c52565b92915050565b600080fd5b600080fd5b600080fd5b60008083601f840112611ca357611ca2611c7e565b5b8235905067ffffffffffffffff811115611cc057611cbf611c83565b5b602083019150836001820283011115611cdc57611cdb611c88565b5b9250929050565b6000819050919050565b611cf681611ce3565b8114611d0157600080fd5b50565b600081359050611d1381611ced565b92915050565b60008060008060008060008060a0898b031215611d3957611d38611c48565b5b6000611d478b828c01611c69565b985050602089013567ffffffffffffffff811115611d6857611d67611c4d565b5b611d748b828c01611c8d565b9750975050604089013567ffffffffffffffff811115611d9757611d96611c4d565b5b611da38b828c01611c8d565b9550955050606089013567ffffffffffffffff811115611dc657611dc5611c4d565b5b611dd28b828c01611c8d565b93509350506080611de58b828c01611d04565b9150509295985092959890939650565b600073ffffffffffffffffffffffffffffffffffffffff82169050919050565b6000611e2082611df5565b9050919050565b611e3081611e15565b82525050565b600081519050919050565b60005b83811015611e5f578082015181840152602081019050611e44565b60008484015250505050565b6000601f19601f8301169050919050565b6000611e8782611e36565b611e918185611b97565b9350611ea1818560208601611e41565b611eaa81611e6b565b840191505092915050565b600060a082019050611eca6000830188611e27565b8181036020830152611edc8187611e7c565b90508181036040830152611ef08186611e7c565b90508181036060830152611f048185611e7c565b9050611f136080830184611c1e565b9695505050505050565b6000608082019050611f326000830187611e27565b8181036020830152611f448186611e7c565b90508181036040830152611f588185611e7c565b90508181036060830152611f6c8184611e7c565b905095945050505050565b600060208284031215611f8d57611f8c611c48565b5b6000611f9b84828501611d04565b91505092915050565b600060208284031215611fba57611fb9611c48565b5b6000611fc884828501611c69565b91505092915050565b6000606082019050611fe66000830186611c1e565b611ff36020830185611c1e565b6120006040830184611c1e565b949350505050565b7f4e6f7420696e2072657665616c20706861736500000000000000000000000000600082015250565b600061203e601383611b97565b915061204982612008565b602082019050919050565b6000602082019050818103600083015261206d81612031565b9050919050565b7f5265656e7472616e637947756172643a204c4f434b4544000000000000000000600082015250565b60006120aa601783611b97565b91506120b582612074565b602082019050919050565b600060208201905081810360008301526120d98161209d565b9050919050565b7f4e6f20636f6d6d69740000000000000000000000000000000000000000000000600082015250565b6000612116600983611b97565b9150612121826120e0565b602082019050919050565b6000602082019050818103600083015261214581612109565b9050919050565b7f416c72656164792072657665616c656400000000000000000000000000000000600082015250565b6000612182601083611b97565b915061218d8261214c565b602082019050919050565b600060208201905081810360008301526121b181612175565b9050919050565b6000819050919050565b6121d36121ce82611c14565b6121b8565b82525050565b600081905092915050565b82818337600083830152505050565b60006121ff83856121d9565b935061220c8385846121e4565b82840190509392505050565b6000819050919050565b61223361222e82611ce3565b612218565b82525050565b6000612245828b6121c2565b60208201915061225682898b6121f3565b91506122638287896121f3565b91506122708285876121f3565b915061227c8284612222565b6020820191508190509998505050505050505050565b7f496e76616c69642072657665616c000000000000000000000000000000000000600082015250565b60006122c8600e83611b97565b91506122d382612292565b602082019050919050565b600060208201905081810360008301526122f7816122bb565b9050919050565b7f496e73756666696369656e7420636f6c6c61746572616c000000000000000000600082015250565b6000612334601783611b97565b915061233f826122fe565b602082019050919050565b6000602082019050818103600083015261236381612327565b9050919050565b7f5465787420746f6f206c6f6e6700000000000000000000000000000000000000600082015250565b60006123a0600d83611b97565b91506123ab8261236a565b602082019050919050565b600060208201905081810360008301526123cf81612393565b9050919050565b7f496d6167652043494420746f6f206c6172676500000000000000000000000000600082015250565b600061240c601383611b97565b9150612417826123d6565b602082019050919050565b6000602082019050818103600083015261243b816123ff565b9050919050565b7f566f6963652043494420746f6f206c6172676500000000000000000000000000600082015250565b6000612478601383611b97565b915061248382612442565b602082019050919050565b600060208201905081810360008301526124a78161246b565b9050919050565b600082905092915050565b7f4e487b7100000000000000000000000000000000000000000000000000000000600052604160045260246000fd5b7f4e487b7100000000000000000000000000000000000000000000000000000000600052602260045260246000fd5b6000600282049050600182168061252f57607f821691505b602082108103612542576125416124e8565b5b50919050565b60008190508160005260206000209050919050565b60006020601f8301049050919050565b600082821b905092915050565b6000600883026125aa7fffffffffffffffffffffffffffffffffffffffffffffffffffffffffffffffff8261256d565b6125b4868361256d565b95508019841693508086168417925050509392505050565b6000819050919050565b60006125f16125ec6125e784611c14565b6125cc565b611c14565b9050919050565b6000819050919050565b61260b836125d6565b61261f612617826125f8565b84845461257a565b825550505050565b600090565b612634612627565b61263f818484612602565b505050565b5b818110156126635761265860008261262c565b600181019050612645565b5050565b601f8211156126a85761267981612548565b6126828461255d565b81016020851015612691578190505b6126a561269d8561255d565b830182612644565b50505b505050565b600082821c905092915050565b60006126cb600019846008026126ad565b1980831691505092915050565b60006126e483836126ba565b9150826002028217905092915050565b6126fe83836124ae565b67ffffffffffffffff811115612717576127166124b9565b5b6127218254612517565b61272c828285612667565b6000601f83116001811461275b5760008415612749578287013590505b61275385826126d8565b8655506127bb565b601f19841661276986612548565b60005b828110156127915784890135825560018201915060208501945060208101905061276c565b868310156127ae57848901356127aa601f8916826126ba565b8355505b6001600288020188555050505b50505050505050565b60006040820190506127d96000830185611c1e565b6127e66020830184611c1e565b9392505050565b7f4e487b7100000000000000000000000000000000000000000000000000000000600052601160045260246000fd5b600061282782611c14565b915061283283611c14565b925082820190508082111561284a576128496127ed565b5b92915050565b7f4e6f7420696e20636f6d6d697420706861736500000000000000000000000000600082015250565b6000612886601383611b97565b915061289182612850565b602082019050919050565b600060208201905081810360008301526128b581612879565b9050919050565b7f416c726561647920636f6d6d6974746564000000000000000000000000000000600082015250565b60006128f2601183611b97565b91506128fd826128bc565b602082019050919050565b60006020820190508181036000830152612921816128e5565b9050919050565b7f436f6c6c61746572616c20726571756972656400000000000000000000000000600082015250565b600061295e601383611b97565b915061296982612928565b602082019050919050565b6000602082019050818103600083015261298d81612951565b9050919050565b61299d82611e36565b67ffffffffffffffff8111156129b6576129b56124b9565b5b6129c08254612517565b6129cb828285612667565b600060209050601f8311600181146129fe57600084156129ec578287015190505b6129f685826126d8565b865550612a5e565b601f198416612a0c86612548565b60005b82811015612a3457848901518255600182019150602085019450602081019050612a0f565b86831015612a515784890151612a4d601f8916826126ba565b8355505b6001600288020188555050505b505050505050565b7f52657665616c206e6f7420656e64656400000000000000000000000000000000600082015250565b6000612a9c601083611b97565b9150612aa782612a66565b602082019050919050565b60006020820190508181036000830152612acb81612a8f565b9050919050565b7f416c726561647920736574746c65640000000000000000000000000000000000600082015250565b6000612b08600f83611b97565b9150612b1382612ad2565b602082019050919050565b60006020820190508181036000830152612b3781612afb565b9050919050565b7f4e487b7100000000000000000000000000000000000000000000000000000000600052603260045260246000fd5b7f4e6f2076616c6964206269647300000000000000000000000000000000000000600082015250565b6000612ba3600d83611b97565b9150612bae82612b6d565b602082019050919050565b60006020820190508181036000830152612bd281612b96565b9050919050565b600081549050612be881612517565b9050919050565b818103612bfd575050612cd5565b612c0682612bd9565b67ffffffffffffffff811115612c1f57612c1e6124b9565b5b612c298254612517565b612c34828285612667565b6000601f831160018114612c635760008415612c51578287015490505b612c5b85826126d8565b865550612cce565b601f198416612c7187612548565b9650612c7c86612548565b60005b82811015612ca457848901548255600182019150600185019450602081019050612c7f565b86831015612cc15784890154612cbd601f8916826126ba565b8355505b6001600288020188555050505b5050505050505b565b6000612ce282611c14565b9150612ced83611c14565b9250828203905081811115612d0557612d046127ed565b5b92915050565b600081905092915050565b50565b6000612d26600083612d0b565b9150612d3182612d16565b600082019050919050565b6000612d4782612d19565b9150819050919050565b7f526566756e64206661696c656400000000000000000000000000000000000000600082015250565b6000612d87600d83611b97565b9150612d9282612d51565b602082019050919050565b60006020820190508181036000830152612db681612d7a565b9050919050565b600060a082019050612dd26000830188611c1e565b612ddf6020830187611c1e565b8181036040830152612df18186611e7c565b90508181036060830152612e058185611e7c565b90508181036080830152612e198184611e7c565b90509695505050505050565b6000612e3082611c14565b91507fffffffffffffffffffffffffffffffffffffffffffffffffffffffffffffffff8203612e6257612e616127ed565b5b60018201905091905056fea26469706673582212208898b02260ccaf5592ef9f374ed261af6cf18242f9a2e674473adbd835715afd64736f6c634300081c0033",
  "devdoc": {
    "kind": "dev",
    "methods": {},
    "title": "HighestVoice",
    "version": 1
  },
  "userdoc": {
    "kind": "user",
    "methods": {},
    "notice": "Permissionless, second-price sealed-bid auction for projecting the loudest voice on-chain.         Each auction round lasts 24h: 12h commit, 12h reveal. Winner's post is projected for 24h.         No owner/admin, ETH only, fully decentralized.",
    "version": 1
  },
  "storageLayout": {
    "storage": [
      {
        "astId": 112,
        "contract": "contracts/HighestVoice.sol:HighestVoice",
        "label": "currentAuctionId",
        "offset": 0,
        "slot": "0",
        "type": "t_uint256"
      },
      {
        "astId": 117,
        "contract": "contracts/HighestVoice.sol:HighestVoice",
        "label": "auctions",
        "offset": 0,
        "slot": "1",
        "type": "t_mapping(t_uint256,t_struct(Auction)88_storage)"
      },
      {
        "astId": 120,
        "contract": "contracts/HighestVoice.sol:HighestVoice",
        "label": "lastWinnerPost",
        "offset": 0,
        "slot": "2",
        "type": "t_struct(Post)47_storage"
      },
      {
        "astId": 122,
        "contract": "contracts/HighestVoice.sol:HighestVoice",
        "label": "lastWinnerTime",
        "offset": 0,
        "slot": "6",
        "type": "t_uint256"
      },
      {
        "astId": 125,
        "contract": "contracts/HighestVoice.sol:HighestVoice",
        "label": "unlocked",
        "offset": 0,
        "slot": "7",
        "type": "t_uint256"
      }
    ],
    "types": {
      "t_address": {
        "encoding": "inplace",
        "label": "address",
        "numberOfBytes": "20"
      },
      "t_array(t_address)dyn_storage": {
        "base": "t_address",
        "encoding": "dynamic_array",
        "label": "address[]",
        "numberOfBytes": "32"
      },
      "t_bool": {
        "encoding": "inplace",
        "label": "bool",
        "numberOfBytes": "1"
      },
      "t_bytes32": {
        "encoding": "inplace",
        "label": "bytes32",
        "numberOfBytes": "32"
      },
      "t_mapping(t_address,t_struct(BidCommit)62_storage)": {
        "encoding": "mapping",
        "key": "t_address",
        "label": "mapping(address => struct HighestVoice.BidCommit)",
        "numberOfBytes": "32",
        "value": "t_struct(BidCommit)62_storage"
      },
      "t_mapping(t_uint256,t_struct(Auction)88_storage)": {
        "encoding": "mapping",
        "key": "t_uint256",
        "label": "mapping(uint256 => struct HighestVoice.Auction)",
        "numberOfBytes": "32",
        "value": "t_struct(Auction)88_storage"
      },
      "t_string_storage": {
        "encoding": "bytes",
        "label": "string",
        "numberOfBytes": "32"
      },
      "t_struct(Auction)88_storage": {
        "encoding": "inplace",
        "label": "struct HighestVoice.Auction",
        "members": [
          {
            "astId": 64,
            "contract": "contracts/HighestVoice.sol:HighestVoice",
            "label": "startTime",
            "offset": 0,
            "slot": "0",
            "type": "t_uint256"
          },
          {
            "astId": 66,
            "contract": "contracts/HighestVoice.sol:HighestVoice",
            "label": "commitEnd",
            "offset": 0,
            "slot": "1",
            "type": "t_uint256"
          },
          {
            "astId": 68,
            "contract": "contracts/HighestVoice.sol:HighestVoice",
            "label": "revealEnd",
            "offset": 0,
            "slot": "2",
            "type": "t_uint256"
          },
          {
            "astId": 70,
            "contract": "contracts/HighestVoice.sol:HighestVoice",
            "label": "settled",
            "offset": 0,
            "slot": "3",
            "type": "t_bool"
          },
          {
            "astId": 73,
            "contract": "contracts/HighestVoice.sol:HighestVoice",
            "label": "bidders",
            "offset": 0,
            "slot": "4",
            "type": "t_array(t_address)dyn_storage"
          },
          {
            "astId": 78,
            "contract": "contracts/HighestVoice.sol:HighestVoice",
            "label": "commits",
            "offset": 0,
            "slot": "5",
            "type": "t_mapping(t_address,t_struct(BidCommit)62_storage)"
          },
          {
            "astId": 80,
            "contract": "contracts/HighestVoice.sol:HighestVoice",
            "label": "winner",
            "offset": 0,
            "slot": "6",
            "type": "t_address"
          },
          {
            "astId": 82,
            "contract": "contracts/HighestVoice.sol:HighestVoice",
            "label": "winningBid",
            "offset": 0,
            "slot": "7",
            "type": "t_uint256"
          },
          {
            "astId": 84,
            "contract": "contracts/HighestVoice.sol:HighestVoice",
            "label": "secondBid",
            "offset": 0,
            "slot": "8",
            "type": "t_uint256"
          },
          {
            "astId": 87,
            "contract": "contracts/HighestVoice.sol:HighestVoice",
            "label": "winnerPost",
            "offset": 0,
            "slot": "9",
            "type": "t_struct(Post)47_storage"
          }
        ],
        "numberOfBytes": "416"
      },
      "t_struct(BidCommit)62_storage": {
        "encoding": "inplace",
        "label": "struct HighestVoice.BidCommit",
        "members": [
          {
            "astId": 49,
            "contract": "contracts/HighestVoice.sol:HighestVoice",
            "label": "commitHash",
            "offset": 0,
            "slot": "0",
            "type": "t_bytes32"
          },
          {
            "astId": 51,
            "contract": "contracts/HighestVoice.sol:HighestVoice",
            "label": "collateral",
            "offset": 0,
            "slot": "1",
            "type": "t_uint256"
          },
          {
            "astId": 53,
            "contract": "contracts/HighestVoice.sol:HighestVoice",
            "label": "revealed",
            "offset": 0,
            "slot": "2",
            "type": "t_bool"
          },
          {
            "astId": 55,
            "contract": "contracts/HighestVoice.sol:HighestVoice",
            "label": "revealedBid",
            "offset": 0,
            "slot": "3",
            "type": "t_uint256"
          },
          {
            "astId": 57,
            "contract": "contracts/HighestVoice.sol:HighestVoice",
            "label": "text",
            "offset": 0,
            "slot": "4",
            "type": "t_string_storage"
          },
          {
            "astId": 59,
            "contract": "contracts/HighestVoice.sol:HighestVoice",
            "label": "imageCid",
            "offset": 0,
            "slot": "5",
            "type": "t_string_storage"
          },
          {
            "astId": 61,
            "contract": "contracts/HighestVoice.sol:HighestVoice",
            "label": "voiceCid",
            "offset": 0,
            "slot": "6",
            "type": "t_string_storage"
          }
        ],
        "numberOfBytes": "224"
      },
      "t_struct(Post)47_storage": {
        "encoding": "inplace",
        "label": "struct HighestVoice.Post",
        "members": [
          {
            "astId": 40,
            "contract": "contracts/HighestVoice.sol:HighestVoice",
            "label": "owner",
            "offset": 0,
            "slot": "0",
            "type": "t_address"
          },
          {
            "astId": 42,
            "contract": "contracts/HighestVoice.sol:HighestVoice",
            "label": "text",
            "offset": 0,
            "slot": "1",
            "type": "t_string_storage"
          },
          {
            "astId": 44,
            "contract": "contracts/HighestVoice.sol:HighestVoice",
            "label": "imageCid",
            "offset": 0,
            "slot": "2",
            "type": "t_string_storage"
          },
          {
            "astId": 46,
            "contract": "contracts/HighestVoice.sol:HighestVoice",
            "label": "voiceCid",
            "offset": 0,
            "slot": "3",
            "type": "t_string_storage"
          }
        ],
        "numberOfBytes": "128"
      },
      "t_uint256": {
        "encoding": "inplace",
        "label": "uint256",
        "numberOfBytes": "32"
      }
    }
  }
}