{
  "address": "0x5FbDB2315678afecb367f032d93F642f64180aa3",
  "abi": [
    {
      "inputs": [],
      "stateMutability": "nonpayable",
      "type": "constructor"
    },
    {
      "anonymous": false,
      "inputs": [
        {
          "indexed": true,
          "internalType": "address",
          "name": "bidder",
          "type": "address"
        },
        {
          "indexed": false,
          "internalType": "uint256",
          "name": "auctionId",
          "type": "uint256"
        }
      ],
      "name": "NewCommit",
      "type": "event"
    },
    {
      "anonymous": false,
      "inputs": [
        {
          "indexed": true,
          "internalType": "address",
          "name": "bidder",
          "type": "address"
        },
        {
          "indexed": false,
          "internalType": "uint256",
          "name": "auctionId",
          "type": "uint256"
        },
        {
          "indexed": false,
          "internalType": "uint256",
          "name": "bid",
          "type": "uint256"
        }
      ],
      "name": "NewReveal",
      "type": "event"
    },
    {
      "anonymous": false,
      "inputs": [
        {
          "indexed": true,
          "internalType": "address",
          "name": "winner",
          "type": "address"
        },
        {
          "indexed": false,
          "internalType": "uint256",
          "name": "auctionId",
          "type": "uint256"
        },
        {
          "indexed": false,
          "internalType": "uint256",
          "name": "amount",
          "type": "uint256"
        },
        {
          "indexed": false,
          "internalType": "string",
          "name": "text",
          "type": "string"
        },
        {
          "indexed": false,
          "internalType": "string",
          "name": "imageCid",
          "type": "string"
        },
        {
          "indexed": false,
          "internalType": "string",
          "name": "voiceCid",
          "type": "string"
        }
      ],
      "name": "NewWinner",
      "type": "event"
    },
    {
      "anonymous": false,
      "inputs": [
        {
          "indexed": true,
          "internalType": "address",
          "name": "bidder",
          "type": "address"
        },
        {
          "indexed": false,
          "internalType": "uint256",
          "name": "auctionId",
          "type": "uint256"
        },
        {
          "indexed": false,
          "internalType": "uint256",
          "name": "amount",
          "type": "uint256"
        }
      ],
      "name": "Refund",
      "type": "event"
    },
    {
      "inputs": [],
      "name": "COMMIT_DURATION",
      "outputs": [
        {
          "internalType": "uint256",
          "name": "",
          "type": "uint256"
        }
      ],
      "stateMutability": "view",
      "type": "function"
    },
    {
      "inputs": [],
      "name": "IMAGE_CID_LIMIT",
      "outputs": [
        {
          "internalType": "uint256",
          "name": "",
          "type": "uint256"
        }
      ],
      "stateMutability": "view",
      "type": "function"
    },
    {
      "inputs": [],
      "name": "REVEAL_DURATION",
      "outputs": [
        {
          "internalType": "uint256",
          "name": "",
          "type": "uint256"
        }
      ],
      "stateMutability": "view",
      "type": "function"
    },
    {
      "inputs": [],
      "name": "VOICE_CID_LIMIT",
      "outputs": [
        {
          "internalType": "uint256",
          "name": "",
          "type": "uint256"
        }
      ],
      "stateMutability": "view",
      "type": "function"
    },
    {
      "inputs": [],
      "name": "VOICE_SECONDS_LIMIT",
      "outputs": [
        {
          "internalType": "uint256",
          "name": "",
          "type": "uint256"
        }
      ],
      "stateMutability": "view",
      "type": "function"
    },
    {
      "inputs": [],
      "name": "WORD_LIMIT",
      "outputs": [
        {
          "internalType": "uint256",
          "name": "",
          "type": "uint256"
        }
      ],
      "stateMutability": "view",
      "type": "function"
    },
    {
      "inputs": [
        {
          "internalType": "bytes32",
          "name": "commitHash",
          "type": "bytes32"
        }
      ],
      "name": "commitBid",
      "outputs": [],
      "stateMutability": "payable",
      "type": "function"
    },
    {
      "inputs": [],
      "name": "currentAuctionId",
      "outputs": [
        {
          "internalType": "uint256",
          "name": "",
          "type": "uint256"
        }
      ],
      "stateMutability": "view",
      "type": "function"
    },
    {
      "inputs": [
        {
          "internalType": "uint256",
          "name": "auctionId",
          "type": "uint256"
        }
      ],
      "name": "getAuctionResult",
      "outputs": [
        {
          "internalType": "bool",
          "name": "settled",
          "type": "bool"
        },
        {
          "internalType": "address",
          "name": "winner",
          "type": "address"
        },
        {
          "internalType": "uint256",
          "name": "winningBid",
          "type": "uint256"
        },
        {
          "internalType": "uint256",
          "name": "secondBid",
          "type": "uint256"
        }
      ],
      "stateMutability": "view",
      "type": "function"
    },
    {
      "inputs": [
        {
          "internalType": "uint256",
          "name": "auctionId",
          "type": "uint256"
        }
      ],
      "name": "getAuctionTimes",
      "outputs": [
        {
          "internalType": "uint256",
          "name": "start",
          "type": "uint256"
        },
        {
          "internalType": "uint256",
          "name": "commitEnd",
          "type": "uint256"
        },
        {
          "internalType": "uint256",
          "name": "revealEnd",
          "type": "uint256"
        }
      ],
      "stateMutability": "view",
      "type": "function"
    },
    {
      "inputs": [],
      "name": "getCountdownEnd",
      "outputs": [
        {
          "internalType": "uint256",
          "name": "",
          "type": "uint256"
        }
      ],
      "stateMutability": "view",
      "type": "function"
    },
    {
      "inputs": [
        {
          "internalType": "uint256",
          "name": "auctionId",
          "type": "uint256"
        }
      ],
      "name": "getMyBid",
      "outputs": [
        {
          "internalType": "bytes32",
          "name": "commitHash",
          "type": "bytes32"
        },
        {
          "internalType": "uint256",
          "name": "collateral",
          "type": "uint256"
        },
        {
          "internalType": "bool",
          "name": "revealed",
          "type": "bool"
        },
        {
          "internalType": "uint256",
          "name": "revealedBid",
          "type": "uint256"
        },
        {
          "internalType": "string",
          "name": "text",
          "type": "string"
        },
        {
          "internalType": "string",
          "name": "imageCid",
          "type": "string"
        },
        {
          "internalType": "string",
          "name": "voiceCid",
          "type": "string"
        }
      ],
      "stateMutability": "view",
      "type": "function"
    },
    {
      "inputs": [],
      "name": "getWinnerPost",
      "outputs": [
        {
          "internalType": "address",
          "name": "owner",
          "type": "address"
        },
        {
          "internalType": "string",
          "name": "text",
          "type": "string"
        },
        {
          "internalType": "string",
          "name": "imageCid",
          "type": "string"
        },
        {
          "internalType": "string",
          "name": "voiceCid",
          "type": "string"
        },
        {
          "internalType": "uint256",
          "name": "projectedUntil",
          "type": "uint256"
        }
      ],
      "stateMutability": "view",
      "type": "function"
    },
    {
      "inputs": [],
      "name": "lastWinnerPost",
      "outputs": [
        {
          "internalType": "address",
          "name": "owner",
          "type": "address"
        },
        {
          "internalType": "string",
          "name": "text",
          "type": "string"
        },
        {
          "internalType": "string",
          "name": "imageCid",
          "type": "string"
        },
        {
          "internalType": "string",
          "name": "voiceCid",
          "type": "string"
        }
      ],
      "stateMutability": "view",
      "type": "function"
    },
    {
      "inputs": [],
      "name": "lastWinnerTime",
      "outputs": [
        {
          "internalType": "uint256",
          "name": "",
          "type": "uint256"
        }
      ],
      "stateMutability": "view",
      "type": "function"
    },
    {
      "inputs": [
        {
          "internalType": "bytes32",
          "name": "newCommitHash",
          "type": "bytes32"
        }
      ],
      "name": "raiseCommit",
      "outputs": [],
      "stateMutability": "payable",
      "type": "function"
    },
    {
      "inputs": [
        {
          "internalType": "uint256",
          "name": "bidAmount",
          "type": "uint256"
        },
        {
          "internalType": "string",
          "name": "text",
          "type": "string"
        },
        {
          "internalType": "string",
          "name": "imageCid",
          "type": "string"
        },
        {
          "internalType": "string",
          "name": "voiceCid",
          "type": "string"
        },
        {
          "internalType": "bytes32",
          "name": "salt",
          "type": "bytes32"
        }
      ],
      "name": "revealBid",
      "outputs": [],
      "stateMutability": "nonpayable",
      "type": "function"
    },
    {
      "inputs": [],
      "name": "settleAuction",
      "outputs": [],
      "stateMutability": "nonpayable",
      "type": "function"
    },
    {
      "stateMutability": "payable",
      "type": "receive"
    }
  ],
  "transactionHash": "0x2d1ac5e25152cae411301191b8eb296682d0b5559683630f4f92dfa4522d707b",
  "args": [],
  "numDeployments": 1,
  "solcInputHash": "1f334f651dd84c0396ef4456de0f0e86",
  "bytecode": "0x6080604052600160075534801561001557600080fd5b5061002461002960201b60201c565b610166565b60008081548092919061003b906100ea565b919050555060006001600080548152602001908152602001600020905042816000018190555061a8c04261006f9190610132565b816001018190555061a8c081600101546100899190610132565b816002018190555060008160030160006101000a81548160ff02191690831515021790555050565b7f4e487b7100000000000000000000000000000000000000000000000000000000600052601160045260246000fd5b6000819050919050565b60006100f5826100e0565b91507fffffffffffffffffffffffffffffffffffffffffffffffffffffffffffffffff8203610127576101266100b1565b5b600182019050919050565b600061013d826100e0565b9150610148836100e0565b92508282019050808211156101605761015f6100b1565b5b92915050565b613638806101756000396000f3fe60806040526004361061010d5760003560e01c80638df6d6e611610095578063b18dfeee11610064578063b18dfeee1461036c578063b39773a614610397578063b971e2fd146103c2578063cb08dee0146103ed578063f6cf5d7d1461042d5761014d565b80638df6d6e6146102cb5780638e8dcb931461030e578063908bc72614610339578063a4d0a17e146103555761014d565b80636bd83375116100dc5780636bd83375146101fc5780637069bfdb1461022757806378cad813146102565780638422f0221461028457806386a2cc27146102af5761014d565b806305a4e8c4146101525780630c0b86ca1461017d57806322c6cd2d146101a85780632d144995146101d15761014d565b3661014d576040517f08c379a0000000000000000000000000000000000000000000000000000000008152600401610144906121a6565b60405180910390fd5b600080fd5b34801561015e57600080fd5b5061016761046c565b60405161017491906121df565b60405180910390f35b34801561018957600080fd5b5061019261048b565b60405161019f91906121df565b60405180910390f35b3480156101b457600080fd5b506101cf60048036038101906101ca91906122cb565b610491565b005b3480156101dd57600080fd5b506101e66108f3565b6040516101f391906121df565b60405180910390f35b34801561020857600080fd5b506102116108fa565b60405161021e91906121df565b60405180910390f35b34801561023357600080fd5b5061023c6108ff565b60405161024d959493929190612467565b60405180910390f35b34801561026257600080fd5b5061026b610b02565b60405161027b94939291906124cf565b60405180910390f35b34801561029057600080fd5b50610299610cd8565b6040516102a691906121df565b60405180910390f35b6102c960048036038101906102c49190612529565b610cde565b005b3480156102d757600080fd5b506102f260048036038101906102ed9190612556565b61106a565b60405161030597969594939291906125ad565b60405180910390f35b34801561031a57600080fd5b506103236112b7565b60405161033091906121df565b60405180910390f35b610353600480360381019061034e9190612529565b6112be565b005b34801561036157600080fd5b5061036a6114f5565b005b34801561037857600080fd5b50610381611ed6565b60405161038e91906121df565b60405180910390f35b3480156103a357600080fd5b506103ac611edb565b6040516103b991906121df565b60405180910390f35b3480156103ce57600080fd5b506103d7611ee1565b6040516103e491906121df565b60405180910390f35b3480156103f957600080fd5b50610414600480360381019061040f9190612556565b611ee7565b6040516104249493929190612631565b60405180910390f35b34801561043957600080fd5b50610454600480360381019061044f9190612556565b611f55565b60405161046393929190612676565b60405180910390f35b6000600160008054815260200190815260200160002060020154905090565b60005481565b6000546000600160008381526020019081526020016000209050806001015442101580156104c25750806002015442105b610501576040517f08c379a00000000000000000000000000000000000000000000000000000000081526004016104f8906126f9565b60405180910390fd5b600160075414610546576040517f08c379a000000000000000000000000000000000000000000000000000000000815260040161053d90612765565b60405180910390fd5b600060078190555060006001600080548152602001908152602001600020905060008160050160003373ffffffffffffffffffffffffffffffffffffffff1673ffffffffffffffffffffffffffffffffffffffff16815260200190815260200160002090506000801b8160000154036105f4576040517f08c379a00000000000000000000000000000000000000000000000000000000081526004016105eb906127d1565b60405180910390fd5b8060020160009054906101000a900460ff1615610646576040517f08c379a000000000000000000000000000000000000000000000000000000000815260040161063d9061283d565b60405180910390fd5b8b8b8b8b8b8b8b8b6040516020016106659897969594939291906128de565b604051602081830303815290604052805190602001208160000154146106c0576040517f08c379a00000000000000000000000000000000000000000000000000000000081526004016106b790612983565b60405180910390fd5b80600101548c1115610707576040517f08c379a00000000000000000000000000000000000000000000000000000000081526004016106fe906129ef565b60405180910390fd5b60646107568c8c8080601f016020809104026020016040519081016040528093929190818152602001838380828437600081840152601f19601f82011690508083019250505050505050611f8d565b1115610797576040517f08c379a000000000000000000000000000000000000000000000000000000000815260040161078e90612a5b565b60405180910390fd5b6207d0008989905011156107e0576040517f08c379a00000000000000000000000000000000000000000000000000000000081526004016107d790612ac7565b60405180910390fd5b62100000878790501115610829576040517f08c379a000000000000000000000000000000000000000000000000000000000815260040161082090612b33565b60405180910390fd5b60018160020160006101000a81548160ff0219169083151502179055508b81600301819055508a8a826004019182610862929190612d99565b508888826005019182610876929190612d99565b50868682600601918261088a929190612d99565b503373ffffffffffffffffffffffffffffffffffffffff167f7f6e696a3e1ee7b129def0b695a9ff2dbe2aa14956e7ef220fe170dfefa2b5876000548e6040516108d5929190612e69565b60405180910390a25050600160078190555050505050505050505050565b6210000081565b606481565b600060608060606000600260000160009054906101000a900473ffffffffffffffffffffffffffffffffffffffff1660026001016002800160026003016201518060065461094d9190612ec1565b83805461095990612bbc565b80601f016020809104026020016040519081016040528092919081815260200182805461098590612bbc565b80156109d25780601f106109a7576101008083540402835291602001916109d2565b820191906000526020600020905b8154815290600101906020018083116109b557829003601f168201915b505050505093508280546109e590612bbc565b80601f0160208091040260200160405190810160405280929190818152602001828054610a1190612bbc565b8015610a5e5780601f10610a3357610100808354040283529160200191610a5e565b820191906000526020600020905b815481529060010190602001808311610a4157829003601f168201915b50505050509250818054610a7190612bbc565b80601f0160208091040260200160405190810160405280929190818152602001828054610a9d90612bbc565b8015610aea5780601f10610abf57610100808354040283529160200191610aea565b820191906000526020600020905b815481529060010190602001808311610acd57829003601f168201915b50505050509150945094509450945094509091929394565b60028060000160009054906101000a900473ffffffffffffffffffffffffffffffffffffffff1690806001018054610b3990612bbc565b80601f0160208091040260200160405190810160405280929190818152602001828054610b6590612bbc565b8015610bb25780601f10610b8757610100808354040283529160200191610bb2565b820191906000526020600020905b815481529060010190602001808311610b9557829003601f168201915b505050505090806002018054610bc790612bbc565b80601f0160208091040260200160405190810160405280929190818152602001828054610bf390612bbc565b8015610c405780601f10610c1557610100808354040283529160200191610c40565b820191906000526020600020905b815481529060010190602001808311610c2357829003601f168201915b505050505090806003018054610c5590612bbc565b80601f0160208091040260200160405190810160405280929190818152602001828054610c8190612bbc565b8015610cce5780601f10610ca357610100808354040283529160200191610cce565b820191906000526020600020905b815481529060010190602001808311610cb157829003601f168201915b5050505050905084565b60065481565b600054600060016000838152602001908152602001600020905080600001544210158015610d0f5750806001015442105b610d4e576040517f08c379a0000000000000000000000000000000000000000000000000000000008152600401610d4590612f41565b60405180910390fd5b600160075414610d93576040517f08c379a0000000000000000000000000000000000000000000000000000000008152600401610d8a90612765565b60405180910390fd5b60006007819055506000600160008054815260200190815260200160002090506000801b8160050160003373ffffffffffffffffffffffffffffffffffffffff1673ffffffffffffffffffffffffffffffffffffffff1681526020019081526020016000206000015414610e3c576040517f08c379a0000000000000000000000000000000000000000000000000000000008152600401610e3390612fad565b60405180910390fd5b60003411610e7f576040517f08c379a0000000000000000000000000000000000000000000000000000000008152600401610e7690613019565b60405180910390fd5b80600401339080600181540180825580915050600190039060005260206000200160009091909190916101000a81548173ffffffffffffffffffffffffffffffffffffffff021916908373ffffffffffffffffffffffffffffffffffffffff1602179055506040518060e0016040528085815260200134815260200160001515815260200160008152602001604051806020016040528060008152508152602001604051806020016040528060008152508152602001604051806020016040528060008152508152508160050160003373ffffffffffffffffffffffffffffffffffffffff1673ffffffffffffffffffffffffffffffffffffffff168152602001908152602001600020600082015181600001556020820151816001015560408201518160020160006101000a81548160ff021916908315150217905550606082015181600301556080820151816004019081610fdc9190613039565b5060a0820151816005019081610ff29190613039565b5060c08201518160060190816110089190613039565b509050503373ffffffffffffffffffffffffffffffffffffffff167f5edc8168be8240adbd40c80b80100b66c85826c01bf37440d3ba9cc61e06218660005460405161105491906121df565b60405180910390a2506001600781905550505050565b60008060008060608060606000600160008a815260200190815260200160002060050160003373ffffffffffffffffffffffffffffffffffffffff1673ffffffffffffffffffffffffffffffffffffffff1681526020019081526020016000209050806000015481600101548260020160009054906101000a900460ff16836003015484600401856005018660060182805461110590612bbc565b80601f016020809104026020016040519081016040528092919081815260200182805461113190612bbc565b801561117e5780601f106111535761010080835404028352916020019161117e565b820191906000526020600020905b81548152906001019060200180831161116157829003601f168201915b5050505050925081805461119190612bbc565b80601f01602080910402602001604051908101604052809291908181526020018280546111bd90612bbc565b801561120a5780601f106111df5761010080835404028352916020019161120a565b820191906000526020600020905b8154815290600101906020018083116111ed57829003601f168201915b5050505050915080805461121d90612bbc565b80601f016020809104026020016040519081016040528092919081815260200182805461124990612bbc565b80156112965780601f1061126b57610100808354040283529160200191611296565b820191906000526020600020905b81548152906001019060200180831161127957829003601f168201915b50505050509050975097509750975097509750975050919395979092949650565b6207d00081565b6000546000600160008381526020019081526020016000209050806000015442101580156112ef5750806001015442105b61132e576040517f08c379a000000000000000000000000000000000000000000000000000000000815260040161132590612f41565b60405180910390fd5b600160075414611373576040517f08c379a000000000000000000000000000000000000000000000000000000000815260040161136a90612765565b60405180910390fd5b600060078190555060006001600080548152602001908152602001600020905060008160050160003373ffffffffffffffffffffffffffffffffffffffff1673ffffffffffffffffffffffffffffffffffffffff16815260200190815260200160002090506000801b816000015403611421576040517f08c379a0000000000000000000000000000000000000000000000000000000008152600401611418906127d1565b60405180910390fd5b8060020160009054906101000a900460ff1615611473576040517f08c379a000000000000000000000000000000000000000000000000000000000815260040161146a9061283d565b60405180910390fd5b6000801b85036114b8576040517f08c379a00000000000000000000000000000000000000000000000000000000081526004016114af90613157565b60405180910390fd5b60003411156114dd57348160010160008282546114d59190612ec1565b925050819055505b84816000018190555050506001600781905550505050565b60005460006001600083815260200190815260200160002090508060020154421015611556576040517f08c379a000000000000000000000000000000000000000000000000000000000815260040161154d906131c3565b60405180910390fd5b60016007541461159b576040517f08c379a000000000000000000000000000000000000000000000000000000000815260040161159290612765565b60405180910390fd5b60006007819055506000600160008054815260200190815260200160002090508060030160009054906101000a900460ff161561160d576040517f08c379a00000000000000000000000000000000000000000000000000000000081526004016116049061322f565b60405180910390fd5b6000806000805b846004018054905081101561172357600085600401828154811061163b5761163a61324f565b5b9060005260206000200160009054906101000a900473ffffffffffffffffffffffffffffffffffffffff16905060008660050160008373ffffffffffffffffffffffffffffffffffffffff1673ffffffffffffffffffffffffffffffffffffffff16815260200190815260200160002090508060020160009054906101000a900460ff1680156116ce5750858160030154115b156116e55785945080600301549550819350611714565b8060020160009054906101000a900460ff1680156117065750848160030154115b1561171357806003015494505b5b50508080600101915050611614565b50600073ffffffffffffffffffffffffffffffffffffffff168173ffffffffffffffffffffffffffffffffffffffff1603611793576040517f08c379a000000000000000000000000000000000000000000000000000000000815260040161178a906132ca565b60405180910390fd5b60008460050160008373ffffffffffffffffffffffffffffffffffffffff1673ffffffffffffffffffffffffffffffffffffffff1681526020019081526020016000209050818560060160006101000a81548173ffffffffffffffffffffffffffffffffffffffff021916908373ffffffffffffffffffffffffffffffffffffffff16021790555083856007018190555082856008018190555060018560030160006101000a81548160ff02191690831515021790555060405180608001604052808373ffffffffffffffffffffffffffffffffffffffff16815260200182600401805461188090612bbc565b80601f01602080910402602001604051908101604052809291908181526020018280546118ac90612bbc565b80156118f95780601f106118ce576101008083540402835291602001916118f9565b820191906000526020600020905b8154815290600101906020018083116118dc57829003601f168201915b5050505050815260200182600501805461191290612bbc565b80601f016020809104026020016040519081016040528092919081815260200182805461193e90612bbc565b801561198b5780601f106119605761010080835404028352916020019161198b565b820191906000526020600020905b81548152906001019060200180831161196e57829003601f168201915b505050505081526020018260060180546119a490612bbc565b80601f01602080910402602001604051908101604052809291908181526020018280546119d090612bbc565b8015611a1d5780601f106119f257610100808354040283529160200191611a1d565b820191906000526020600020905b815481529060010190602001808311611a0057829003601f168201915b50505050508152508560090160008201518160000160006101000a81548173ffffffffffffffffffffffffffffffffffffffff021916908373ffffffffffffffffffffffffffffffffffffffff1602179055506020820151816001019081611a859190613039565b506040820151816002019081611a9b9190613039565b506060820151816003019081611ab19190613039565b509050508460090160026000820160009054906101000a900473ffffffffffffffffffffffffffffffffffffffff168160000160006101000a81548173ffffffffffffffffffffffffffffffffffffffff021916908373ffffffffffffffffffffffffffffffffffffffff16021790555060018201816001019081611b369190613300565b5060028201816002019081611b4b9190613300565b5060038201816003019081611b609190613300565b509050504260068190555060005b8560040180549050811015611e5b576000866004018281548110611b9557611b9461324f565b5b9060005260206000200160009054906101000a900473ffffffffffffffffffffffffffffffffffffffff16905060008760050160008373ffffffffffffffffffffffffffffffffffffffff1673ffffffffffffffffffffffffffffffffffffffff168152602001908152602001600020905060008573ffffffffffffffffffffffffffffffffffffffff168373ffffffffffffffffffffffffffffffffffffffff1603611d1d5786826001015411611c4e576000611c5f565b868260010154611c5e91906133e8565b5b90506000811115611d185760008373ffffffffffffffffffffffffffffffffffffffff1682604051611c909061344d565b60006040518083038185875af1925050503d8060008114611ccd576040519150601f19603f3d011682016040523d82523d6000602084013e611cd2565b606091505b5050905080611d16576040517f08c379a0000000000000000000000000000000000000000000000000000000008152600401611d0d906134ae565b60405180910390fd5b505b611df9565b8160020160009054906101000a900460ff1615611df757816001015490506000811115611df25760008373ffffffffffffffffffffffffffffffffffffffff1682604051611d6a9061344d565b60006040518083038185875af1925050503d8060008114611da7576040519150601f19603f3d011682016040523d82523d6000602084013e611dac565b606091505b5050905080611df0576040517f08c379a0000000000000000000000000000000000000000000000000000000008152600401611de7906134ae565b60405180910390fd5b505b611df8565b5b5b8273ffffffffffffffffffffffffffffffffffffffff167f73f04af9dcc582a923ec15d3eea990fe34adabfff2879e28d44572e01a54abb660005483604051611e43929190612e69565b60405180910390a25050508080600101915050611b6e565b508173ffffffffffffffffffffffffffffffffffffffff167fb66e3363ddce6e1af5cd43c439ad9f30db11e7055b4469b01f06712f37da952760005486846004018560050186600601604051611eb5959493929190613552565b60405180910390a2611ec56120c1565b505050505060016007819055505050565b603c81565b61a8c081565b61a8c081565b60008060008060006001600087815260200190815260200160002090508060030160009054906101000a900460ff168160060160009054906101000a900473ffffffffffffffffffffffffffffffffffffffff16826007015483600801549450945094509450509193509193565b600080600080600160008681526020019081526020016000209050806000015481600101548260020154935093509350509193909250565b6000808290506000805b82518110156120b957602060f81b838281518110611fb857611fb761324f565b5b602001015160f81c60f81b7effffffffffffffffffffffffffffffffffffffffffffffffffffffffffffff1916141580156120365750600a60f81b8382815181106120065761200561324f565b5b602001015160f81c60f81b7effffffffffffffffffffffffffffffffffffffffffffffffffffffffffffff191614155b80156120855750600960f81b8382815181106120555761205461324f565b5b602001015160f81c60f81b7effffffffffffffffffffffffffffffffffffffffffffffffffffffffffffff191614155b156120a757816120a257838061209a906135ba565b945050600191505b6120ac565b600091505b8080600101915050611f97565b505050919050565b6000808154809291906120d3906135ba565b919050555060006001600080548152602001908152602001600020905042816000018190555061a8c0426121079190612ec1565b816001018190555061a8c081600101546121219190612ec1565b816002018190555060008160030160006101000a81548160ff02191690831515021790555050565b600082825260208201905092915050565b7f55736520636f6d6d697442696400000000000000000000000000000000000000600082015250565b6000612190600d83612149565b915061219b8261215a565b602082019050919050565b600060208201905081810360008301526121bf81612183565b9050919050565b6000819050919050565b6121d9816121c6565b82525050565b60006020820190506121f460008301846121d0565b92915050565b600080fd5b600080fd5b61220d816121c6565b811461221857600080fd5b50565b60008135905061222a81612204565b92915050565b600080fd5b600080fd5b600080fd5b60008083601f84011261225557612254612230565b5b8235905067ffffffffffffffff81111561227257612271612235565b5b60208301915083600182028301111561228e5761228d61223a565b5b9250929050565b6000819050919050565b6122a881612295565b81146122b357600080fd5b50565b6000813590506122c58161229f565b92915050565b60008060008060008060008060a0898b0312156122eb576122ea6121fa565b5b60006122f98b828c0161221b565b985050602089013567ffffffffffffffff81111561231a576123196121ff565b5b6123268b828c0161223f565b9750975050604089013567ffffffffffffffff811115612349576123486121ff565b5b6123558b828c0161223f565b9550955050606089013567ffffffffffffffff811115612378576123776121ff565b5b6123848b828c0161223f565b935093505060806123978b828c016122b6565b9150509295985092959890939650565b600073ffffffffffffffffffffffffffffffffffffffff82169050919050565b60006123d2826123a7565b9050919050565b6123e2816123c7565b82525050565b600081519050919050565b60005b838110156124115780820151818401526020810190506123f6565b60008484015250505050565b6000601f19601f8301169050919050565b6000612439826123e8565b6124438185612149565b93506124538185602086016123f3565b61245c8161241d565b840191505092915050565b600060a08201905061247c60008301886123d9565b818103602083015261248e818761242e565b905081810360408301526124a2818661242e565b905081810360608301526124b6818561242e565b90506124c560808301846121d0565b9695505050505050565b60006080820190506124e460008301876123d9565b81810360208301526124f6818661242e565b9050818103604083015261250a818561242e565b9050818103606083015261251e818461242e565b905095945050505050565b60006020828403121561253f5761253e6121fa565b5b600061254d848285016122b6565b91505092915050565b60006020828403121561256c5761256b6121fa565b5b600061257a8482850161221b565b91505092915050565b61258c81612295565b82525050565b60008115159050919050565b6125a781612592565b82525050565b600060e0820190506125c2600083018a612583565b6125cf60208301896121d0565b6125dc604083018861259e565b6125e960608301876121d0565b81810360808301526125fb818661242e565b905081810360a083015261260f818561242e565b905081810360c0830152612623818461242e565b905098975050505050505050565b6000608082019050612646600083018761259e565b61265360208301866123d9565b61266060408301856121d0565b61266d60608301846121d0565b95945050505050565b600060608201905061268b60008301866121d0565b61269860208301856121d0565b6126a560408301846121d0565b949350505050565b7f4e6f7420696e2072657665616c20706861736500000000000000000000000000600082015250565b60006126e3601383612149565b91506126ee826126ad565b602082019050919050565b60006020820190508181036000830152612712816126d6565b9050919050565b7f5265656e7472616e637947756172643a204c4f434b4544000000000000000000600082015250565b600061274f601783612149565b915061275a82612719565b602082019050919050565b6000602082019050818103600083015261277e81612742565b9050919050565b7f4e6f20636f6d6d69740000000000000000000000000000000000000000000000600082015250565b60006127bb600983612149565b91506127c682612785565b602082019050919050565b600060208201905081810360008301526127ea816127ae565b9050919050565b7f416c72656164792072657665616c656400000000000000000000000000000000600082015250565b6000612827601083612149565b9150612832826127f1565b602082019050919050565b600060208201905081810360008301526128568161281a565b9050919050565b6000819050919050565b612878612873826121c6565b61285d565b82525050565b600081905092915050565b82818337600083830152505050565b60006128a4838561287e565b93506128b1838584612889565b82840190509392505050565b6000819050919050565b6128d86128d382612295565b6128bd565b82525050565b60006128ea828b612867565b6020820191506128fb82898b612898565b9150612908828789612898565b9150612915828587612898565b915061292182846128c7565b6020820191508190509998505050505050505050565b7f496e76616c69642072657665616c000000000000000000000000000000000000600082015250565b600061296d600e83612149565b915061297882612937565b602082019050919050565b6000602082019050818103600083015261299c81612960565b9050919050565b7f496e73756666696369656e7420636f6c6c61746572616c000000000000000000600082015250565b60006129d9601783612149565b91506129e4826129a3565b602082019050919050565b60006020820190508181036000830152612a08816129cc565b9050919050565b7f5465787420746f6f206c6f6e6700000000000000000000000000000000000000600082015250565b6000612a45600d83612149565b9150612a5082612a0f565b602082019050919050565b60006020820190508181036000830152612a7481612a38565b9050919050565b7f496d6167652043494420746f6f206c6172676500000000000000000000000000600082015250565b6000612ab1601383612149565b9150612abc82612a7b565b602082019050919050565b60006020820190508181036000830152612ae081612aa4565b9050919050565b7f566f6963652043494420746f6f206c6172676500000000000000000000000000600082015250565b6000612b1d601383612149565b9150612b2882612ae7565b602082019050919050565b60006020820190508181036000830152612b4c81612b10565b9050919050565b600082905092915050565b7f4e487b7100000000000000000000000000000000000000000000000000000000600052604160045260246000fd5b7f4e487b7100000000000000000000000000000000000000000000000000000000600052602260045260246000fd5b60006002820490506001821680612bd457607f821691505b602082108103612be757612be6612b8d565b5b50919050565b60008190508160005260206000209050919050565b60006020601f8301049050919050565b600082821b905092915050565b600060088302612c4f7fffffffffffffffffffffffffffffffffffffffffffffffffffffffffffffffff82612c12565b612c598683612c12565b95508019841693508086168417925050509392505050565b6000819050919050565b6000612c96612c91612c8c846121c6565b612c71565b6121c6565b9050919050565b6000819050919050565b612cb083612c7b565b612cc4612cbc82612c9d565b848454612c1f565b825550505050565b600090565b612cd9612ccc565b612ce4818484612ca7565b505050565b5b81811015612d0857612cfd600082612cd1565b600181019050612cea565b5050565b601f821115612d4d57612d1e81612bed565b612d2784612c02565b81016020851015612d36578190505b612d4a612d4285612c02565b830182612ce9565b50505b505050565b600082821c905092915050565b6000612d7060001984600802612d52565b1980831691505092915050565b6000612d898383612d5f565b9150826002028217905092915050565b612da38383612b53565b67ffffffffffffffff811115612dbc57612dbb612b5e565b5b612dc68254612bbc565b612dd1828285612d0c565b6000601f831160018114612e005760008415612dee578287013590505b612df88582612d7d565b865550612e60565b601f198416612e0e86612bed565b60005b82811015612e3657848901358255600182019150602085019450602081019050612e11565b86831015612e535784890135612e4f601f891682612d5f565b8355505b6001600288020188555050505b50505050505050565b6000604082019050612e7e60008301856121d0565b612e8b60208301846121d0565b9392505050565b7f4e487b7100000000000000000000000000000000000000000000000000000000600052601160045260246000fd5b6000612ecc826121c6565b9150612ed7836121c6565b9250828201905080821115612eef57612eee612e92565b5b92915050565b7f4e6f7420696e20636f6d6d697420706861736500000000000000000000000000600082015250565b6000612f2b601383612149565b9150612f3682612ef5565b602082019050919050565b60006020820190508181036000830152612f5a81612f1e565b9050919050565b7f416c726561647920636f6d6d6974746564000000000000000000000000000000600082015250565b6000612f97601183612149565b9150612fa282612f61565b602082019050919050565b60006020820190508181036000830152612fc681612f8a565b9050919050565b7f436f6c6c61746572616c20726571756972656400000000000000000000000000600082015250565b6000613003601383612149565b915061300e82612fcd565b602082019050919050565b6000602082019050818103600083015261303281612ff6565b9050919050565b613042826123e8565b67ffffffffffffffff81111561305b5761305a612b5e565b5b6130658254612bbc565b613070828285612d0c565b600060209050601f8311600181146130a35760008415613091578287015190505b61309b8582612d7d565b865550613103565b601f1984166130b186612bed565b60005b828110156130d9578489015182556001820191506020850194506020810190506130b4565b868310156130f657848901516130f2601f891682612d5f565b8355505b6001600288020188555050505b505050505050565b7f496e76616c696420686173680000000000000000000000000000000000000000600082015250565b6000613141600c83612149565b915061314c8261310b565b602082019050919050565b6000602082019050818103600083015261317081613134565b9050919050565b7f52657665616c206e6f7420656e64656400000000000000000000000000000000600082015250565b60006131ad601083612149565b91506131b882613177565b602082019050919050565b600060208201905081810360008301526131dc816131a0565b9050919050565b7f416c726561647920736574746c65640000000000000000000000000000000000600082015250565b6000613219600f83612149565b9150613224826131e3565b602082019050919050565b600060208201905081810360008301526132488161320c565b9050919050565b7f4e487b7100000000000000000000000000000000000000000000000000000000600052603260045260246000fd5b7f4e6f2076616c6964206269647300000000000000000000000000000000000000600082015250565b60006132b4600d83612149565b91506132bf8261327e565b602082019050919050565b600060208201905081810360008301526132e3816132a7565b9050919050565b6000815490506132f981612bbc565b9050919050565b81810361330e5750506133e6565b613317826132ea565b67ffffffffffffffff8111156133305761332f612b5e565b5b61333a8254612bbc565b613345828285612d0c565b6000601f8311600181146133745760008415613362578287015490505b61336c8582612d7d565b8655506133df565b601f19841661338287612bed565b965061338d86612bed565b60005b828110156133b557848901548255600182019150600185019450602081019050613390565b868310156133d257848901546133ce601f891682612d5f565b8355505b6001600288020188555050505b5050505050505b565b60006133f3826121c6565b91506133fe836121c6565b925082820390508181111561341657613415612e92565b5b92915050565b600081905092915050565b50565b600061343760008361341c565b915061344282613427565b600082019050919050565b60006134588261342a565b9150819050919050565b7f526566756e64206661696c656400000000000000000000000000000000000000600082015250565b6000613498600d83612149565b91506134a382613462565b602082019050919050565b600060208201905081810360008301526134c78161348b565b9050919050565b600081546134db81612bbc565b6134e58186612149565b94506001821660008114613500576001811461351657613549565b60ff198316865281151560200286019350613549565b61351f85612bed565b60005b8381101561354157815481890152600182019150602081019050613522565b808801955050505b50505092915050565b600060a08201905061356760008301886121d0565b61357460208301876121d0565b818103604083015261358681866134ce565b9050818103606083015261359a81856134ce565b905081810360808301526135ae81846134ce565b90509695505050505050565b60006135c5826121c6565b91507fffffffffffffffffffffffffffffffffffffffffffffffffffffffffffffffff82036135f7576135f6612e92565b5b60018201905091905056fea264697066735822122008250c1d8493477ed310190d97dfc74e8b01d40e581766e57b63eb69b56ec10164736f6c634300081c0033",
  "devdoc": {
    "kind": "dev",
    "methods": {},
    "title": "HighestVoice",
    "version": 1
  },
  "userdoc": {
    "kind": "user",
    "methods": {
      "raiseCommit(bytes32)": {
        "notice": "Increase collateral and/or update commitment during commit phase.         Allows a bidder to raise their bid by topping up collateral and updating the commit hash."
      }
    },
    "notice": "Permissionless, second-price sealed-bid auction for projecting the loudest voice on-chain.         Each auction round lasts 24h: 12h commit, 12h reveal. Winner's post is projected for 24h.         No owner/admin, ETH only, fully decentralized.",
    "version": 1
  },
  "storageLayout": {
    "storage": [
      {
        "astId": 112,
        "contract": "contracts/HighestVoice.sol:HighestVoice",
        "label": "currentAuctionId",
        "offset": 0,
        "slot": "0",
        "type": "t_uint256"
      },
      {
        "astId": 117,
        "contract": "contracts/HighestVoice.sol:HighestVoice",
        "label": "auctions",
        "offset": 0,
        "slot": "1",
        "type": "t_mapping(t_uint256,t_struct(Auction)88_storage)"
      },
      {
        "astId": 120,
        "contract": "contracts/HighestVoice.sol:HighestVoice",
        "label": "lastWinnerPost",
        "offset": 0,
        "slot": "2",
        "type": "t_struct(Post)47_storage"
      },
      {
        "astId": 122,
        "contract": "contracts/HighestVoice.sol:HighestVoice",
        "label": "lastWinnerTime",
        "offset": 0,
        "slot": "6",
        "type": "t_uint256"
      },
      {
        "astId": 125,
        "contract": "contracts/HighestVoice.sol:HighestVoice",
        "label": "unlocked",
        "offset": 0,
        "slot": "7",
        "type": "t_uint256"
      }
    ],
    "types": {
      "t_address": {
        "encoding": "inplace",
        "label": "address",
        "numberOfBytes": "20"
      },
      "t_array(t_address)dyn_storage": {
        "base": "t_address",
        "encoding": "dynamic_array",
        "label": "address[]",
        "numberOfBytes": "32"
      },
      "t_bool": {
        "encoding": "inplace",
        "label": "bool",
        "numberOfBytes": "1"
      },
      "t_bytes32": {
        "encoding": "inplace",
        "label": "bytes32",
        "numberOfBytes": "32"
      },
      "t_mapping(t_address,t_struct(BidCommit)62_storage)": {
        "encoding": "mapping",
        "key": "t_address",
        "label": "mapping(address => struct HighestVoice.BidCommit)",
        "numberOfBytes": "32",
        "value": "t_struct(BidCommit)62_storage"
      },
      "t_mapping(t_uint256,t_struct(Auction)88_storage)": {
        "encoding": "mapping",
        "key": "t_uint256",
        "label": "mapping(uint256 => struct HighestVoice.Auction)",
        "numberOfBytes": "32",
        "value": "t_struct(Auction)88_storage"
      },
      "t_string_storage": {
        "encoding": "bytes",
        "label": "string",
        "numberOfBytes": "32"
      },
      "t_struct(Auction)88_storage": {
        "encoding": "inplace",
        "label": "struct HighestVoice.Auction",
        "members": [
          {
            "astId": 64,
            "contract": "contracts/HighestVoice.sol:HighestVoice",
            "label": "startTime",
            "offset": 0,
            "slot": "0",
            "type": "t_uint256"
          },
          {
            "astId": 66,
            "contract": "contracts/HighestVoice.sol:HighestVoice",
            "label": "commitEnd",
            "offset": 0,
            "slot": "1",
            "type": "t_uint256"
          },
          {
            "astId": 68,
            "contract": "contracts/HighestVoice.sol:HighestVoice",
            "label": "revealEnd",
            "offset": 0,
            "slot": "2",
            "type": "t_uint256"
          },
          {
            "astId": 70,
            "contract": "contracts/HighestVoice.sol:HighestVoice",
            "label": "settled",
            "offset": 0,
            "slot": "3",
            "type": "t_bool"
          },
          {
            "astId": 73,
            "contract": "contracts/HighestVoice.sol:HighestVoice",
            "label": "bidders",
            "offset": 0,
            "slot": "4",
            "type": "t_array(t_address)dyn_storage"
          },
          {
            "astId": 78,
            "contract": "contracts/HighestVoice.sol:HighestVoice",
            "label": "commits",
            "offset": 0,
            "slot": "5",
            "type": "t_mapping(t_address,t_struct(BidCommit)62_storage)"
          },
          {
            "astId": 80,
            "contract": "contracts/HighestVoice.sol:HighestVoice",
            "label": "winner",
            "offset": 0,
            "slot": "6",
            "type": "t_address"
          },
          {
            "astId": 82,
            "contract": "contracts/HighestVoice.sol:HighestVoice",
            "label": "winningBid",
            "offset": 0,
            "slot": "7",
            "type": "t_uint256"
          },
          {
            "astId": 84,
            "contract": "contracts/HighestVoice.sol:HighestVoice",
            "label": "secondBid",
            "offset": 0,
            "slot": "8",
            "type": "t_uint256"
          },
          {
            "astId": 87,
            "contract": "contracts/HighestVoice.sol:HighestVoice",
            "label": "winnerPost",
            "offset": 0,
            "slot": "9",
            "type": "t_struct(Post)47_storage"
          }
        ],
        "numberOfBytes": "416"
      },
      "t_struct(BidCommit)62_storage": {
        "encoding": "inplace",
        "label": "struct HighestVoice.BidCommit",
        "members": [
          {
            "astId": 49,
            "contract": "contracts/HighestVoice.sol:HighestVoice",
            "label": "commitHash",
            "offset": 0,
            "slot": "0",
            "type": "t_bytes32"
          },
          {
            "astId": 51,
            "contract": "contracts/HighestVoice.sol:HighestVoice",
            "label": "collateral",
            "offset": 0,
            "slot": "1",
            "type": "t_uint256"
          },
          {
            "astId": 53,
            "contract": "contracts/HighestVoice.sol:HighestVoice",
            "label": "revealed",
            "offset": 0,
            "slot": "2",
            "type": "t_bool"
          },
          {
            "astId": 55,
            "contract": "contracts/HighestVoice.sol:HighestVoice",
            "label": "revealedBid",
            "offset": 0,
            "slot": "3",
            "type": "t_uint256"
          },
          {
            "astId": 57,
            "contract": "contracts/HighestVoice.sol:HighestVoice",
            "label": "text",
            "offset": 0,
            "slot": "4",
            "type": "t_string_storage"
          },
          {
            "astId": 59,
            "contract": "contracts/HighestVoice.sol:HighestVoice",
            "label": "imageCid",
            "offset": 0,
            "slot": "5",
            "type": "t_string_storage"
          },
          {
            "astId": 61,
            "contract": "contracts/HighestVoice.sol:HighestVoice",
            "label": "voiceCid",
            "offset": 0,
            "slot": "6",
            "type": "t_string_storage"
          }
        ],
        "numberOfBytes": "224"
      },
      "t_struct(Post)47_storage": {
        "encoding": "inplace",
        "label": "struct HighestVoice.Post",
        "members": [
          {
            "astId": 40,
            "contract": "contracts/HighestVoice.sol:HighestVoice",
            "label": "owner",
            "offset": 0,
            "slot": "0",
            "type": "t_address"
          },
          {
            "astId": 42,
            "contract": "contracts/HighestVoice.sol:HighestVoice",
            "label": "text",
            "offset": 0,
            "slot": "1",
            "type": "t_string_storage"
          },
          {
            "astId": 44,
            "contract": "contracts/HighestVoice.sol:HighestVoice",
            "label": "imageCid",
            "offset": 0,
            "slot": "2",
            "type": "t_string_storage"
          },
          {
            "astId": 46,
            "contract": "contracts/HighestVoice.sol:HighestVoice",
            "label": "voiceCid",
            "offset": 0,
            "slot": "3",
            "type": "t_string_storage"
          }
        ],
        "numberOfBytes": "128"
      },
      "t_uint256": {
        "encoding": "inplace",
        "label": "uint256",
        "numberOfBytes": "32"
      }
    }
  }
}