{
  "address": "0x5FbDB2315678afecb367f032d93F642f64180aa3",
  "abi": [
    {
      "inputs": [],
      "stateMutability": "nonpayable",
      "type": "constructor"
    },
    {
      "anonymous": false,
      "inputs": [
        {
          "indexed": true,
          "internalType": "address",
          "name": "bidder",
          "type": "address"
        },
        {
          "indexed": false,
          "internalType": "uint256",
          "name": "auctionId",
          "type": "uint256"
        }
      ],
      "name": "NewCommit",
      "type": "event"
    },
    {
      "anonymous": false,
      "inputs": [
        {
          "indexed": true,
          "internalType": "address",
          "name": "bidder",
          "type": "address"
        },
        {
          "indexed": false,
          "internalType": "uint256",
          "name": "auctionId",
          "type": "uint256"
        },
        {
          "indexed": false,
          "internalType": "uint256",
          "name": "bid",
          "type": "uint256"
        }
      ],
      "name": "NewReveal",
      "type": "event"
    },
    {
      "anonymous": false,
      "inputs": [
        {
          "indexed": true,
          "internalType": "address",
          "name": "winner",
          "type": "address"
        },
        {
          "indexed": false,
          "internalType": "uint256",
          "name": "auctionId",
          "type": "uint256"
        },
        {
          "indexed": false,
          "internalType": "uint256",
          "name": "amount",
          "type": "uint256"
        },
        {
          "indexed": false,
          "internalType": "string",
          "name": "text",
          "type": "string"
        },
        {
          "indexed": false,
          "internalType": "string",
          "name": "imageCid",
          "type": "string"
        },
        {
          "indexed": false,
          "internalType": "string",
          "name": "voiceCid",
          "type": "string"
        }
      ],
      "name": "NewWinner",
      "type": "event"
    },
    {
      "anonymous": false,
      "inputs": [
        {
          "indexed": true,
          "internalType": "address",
          "name": "bidder",
          "type": "address"
        },
        {
          "indexed": false,
          "internalType": "uint256",
          "name": "auctionId",
          "type": "uint256"
        },
        {
          "indexed": false,
          "internalType": "uint256",
          "name": "amount",
          "type": "uint256"
        }
      ],
      "name": "Refund",
      "type": "event"
    },
    {
      "inputs": [],
      "name": "COMMIT_DURATION",
      "outputs": [
        {
          "internalType": "uint256",
          "name": "",
          "type": "uint256"
        }
      ],
      "stateMutability": "view",
      "type": "function"
    },
    {
      "inputs": [],
      "name": "IMAGE_CID_LIMIT",
      "outputs": [
        {
          "internalType": "uint256",
          "name": "",
          "type": "uint256"
        }
      ],
      "stateMutability": "view",
      "type": "function"
    },
    {
      "inputs": [],
      "name": "REVEAL_DURATION",
      "outputs": [
        {
          "internalType": "uint256",
          "name": "",
          "type": "uint256"
        }
      ],
      "stateMutability": "view",
      "type": "function"
    },
    {
      "inputs": [],
      "name": "VOICE_CID_LIMIT",
      "outputs": [
        {
          "internalType": "uint256",
          "name": "",
          "type": "uint256"
        }
      ],
      "stateMutability": "view",
      "type": "function"
    },
    {
      "inputs": [],
      "name": "VOICE_SECONDS_LIMIT",
      "outputs": [
        {
          "internalType": "uint256",
          "name": "",
          "type": "uint256"
        }
      ],
      "stateMutability": "view",
      "type": "function"
    },
    {
      "inputs": [],
      "name": "WORD_LIMIT",
      "outputs": [
        {
          "internalType": "uint256",
          "name": "",
          "type": "uint256"
        }
      ],
      "stateMutability": "view",
      "type": "function"
    },
    {
      "inputs": [
        {
          "internalType": "bytes32",
          "name": "commitHash",
          "type": "bytes32"
        }
      ],
      "name": "commitBid",
      "outputs": [],
      "stateMutability": "payable",
      "type": "function"
    },
    {
      "inputs": [],
      "name": "currentAuctionId",
      "outputs": [
        {
          "internalType": "uint256",
          "name": "",
          "type": "uint256"
        }
      ],
      "stateMutability": "view",
      "type": "function"
    },
    {
      "inputs": [
        {
          "internalType": "uint256",
          "name": "auctionId",
          "type": "uint256"
        }
      ],
      "name": "getAuctionTimes",
      "outputs": [
        {
          "internalType": "uint256",
          "name": "start",
          "type": "uint256"
        },
        {
          "internalType": "uint256",
          "name": "commitEnd",
          "type": "uint256"
        },
        {
          "internalType": "uint256",
          "name": "revealEnd",
          "type": "uint256"
        }
      ],
      "stateMutability": "view",
      "type": "function"
    },
    {
      "inputs": [],
      "name": "getCountdownEnd",
      "outputs": [
        {
          "internalType": "uint256",
          "name": "",
          "type": "uint256"
        }
      ],
      "stateMutability": "view",
      "type": "function"
    },
    {
      "inputs": [
        {
          "internalType": "uint256",
          "name": "auctionId",
          "type": "uint256"
        }
      ],
      "name": "getMyBid",
      "outputs": [
        {
          "internalType": "bytes32",
          "name": "commitHash",
          "type": "bytes32"
        },
        {
          "internalType": "uint256",
          "name": "collateral",
          "type": "uint256"
        },
        {
          "internalType": "bool",
          "name": "revealed",
          "type": "bool"
        },
        {
          "internalType": "uint256",
          "name": "revealedBid",
          "type": "uint256"
        },
        {
          "internalType": "string",
          "name": "text",
          "type": "string"
        },
        {
          "internalType": "string",
          "name": "imageCid",
          "type": "string"
        },
        {
          "internalType": "string",
          "name": "voiceCid",
          "type": "string"
        }
      ],
      "stateMutability": "view",
      "type": "function"
    },
    {
      "inputs": [],
      "name": "getWinnerPost",
      "outputs": [
        {
          "internalType": "address",
          "name": "owner",
          "type": "address"
        },
        {
          "internalType": "string",
          "name": "text",
          "type": "string"
        },
        {
          "internalType": "string",
          "name": "imageCid",
          "type": "string"
        },
        {
          "internalType": "string",
          "name": "voiceCid",
          "type": "string"
        },
        {
          "internalType": "uint256",
          "name": "projectedUntil",
          "type": "uint256"
        }
      ],
      "stateMutability": "view",
      "type": "function"
    },
    {
      "inputs": [],
      "name": "lastWinnerPost",
      "outputs": [
        {
          "internalType": "address",
          "name": "owner",
          "type": "address"
        },
        {
          "internalType": "string",
          "name": "text",
          "type": "string"
        },
        {
          "internalType": "string",
          "name": "imageCid",
          "type": "string"
        },
        {
          "internalType": "string",
          "name": "voiceCid",
          "type": "string"
        }
      ],
      "stateMutability": "view",
      "type": "function"
    },
    {
      "inputs": [],
      "name": "lastWinnerTime",
      "outputs": [
        {
          "internalType": "uint256",
          "name": "",
          "type": "uint256"
        }
      ],
      "stateMutability": "view",
      "type": "function"
    },
    {
      "inputs": [
        {
          "internalType": "bytes32",
          "name": "newCommitHash",
          "type": "bytes32"
        }
      ],
      "name": "raiseCommit",
      "outputs": [],
      "stateMutability": "payable",
      "type": "function"
    },
    {
      "inputs": [
        {
          "internalType": "uint256",
          "name": "bidAmount",
          "type": "uint256"
        },
        {
          "internalType": "string",
          "name": "text",
          "type": "string"
        },
        {
          "internalType": "string",
          "name": "imageCid",
          "type": "string"
        },
        {
          "internalType": "string",
          "name": "voiceCid",
          "type": "string"
        },
        {
          "internalType": "bytes32",
          "name": "salt",
          "type": "bytes32"
        }
      ],
      "name": "revealBid",
      "outputs": [],
      "stateMutability": "nonpayable",
      "type": "function"
    },
    {
      "inputs": [],
      "name": "settleAuction",
      "outputs": [],
      "stateMutability": "nonpayable",
      "type": "function"
    },
    {
      "stateMutability": "payable",
      "type": "receive"
    }
  ],
  "transactionHash": "0xb6ce4df9575d27cc8ee1740296ad460422d9afbed1ae1fc2f405d69aa716c96b",
  "args": [],
  "numDeployments": 1,
  "solcInputHash": "4b6de2bee0e89373e5f6c7171a51c539",
  "bytecode": "0x6080604052600160075534801561001557600080fd5b5061002461002960201b60201c565b610166565b60008081548092919061003b906100ea565b919050555060006001600080548152602001908152602001600020905042816000018190555061a8c04261006f9190610132565b816001018190555061a8c081600101546100899190610132565b816002018190555060008160030160006101000a81548160ff02191690831515021790555050565b7f4e487b7100000000000000000000000000000000000000000000000000000000600052601160045260246000fd5b6000819050919050565b60006100f5826100e0565b91507fffffffffffffffffffffffffffffffffffffffffffffffffffffffffffffffff8203610127576101266100b1565b5b600182019050919050565b600061013d826100e0565b9150610148836100e0565b92508282019050808211156101605761015f6100b1565b5b92915050565b61353a806101756000396000f3fe6080604052600436106101025760003560e01c806386a2cc2711610095578063a4d0a17e11610064578063a4d0a17e1461034a578063b18dfeee14610361578063b39773a61461038c578063b971e2fd146103b7578063f6cf5d7d146103e257610142565b806386a2cc27146102a45780638df6d6e6146102c05780638e8dcb9314610303578063908bc7261461032e57610142565b80636bd83375116100d15780636bd83375146101f15780637069bfdb1461021c57806378cad8131461024b5780638422f0221461027957610142565b806305a4e8c4146101475780630c0b86ca1461017257806322c6cd2d1461019d5780632d144995146101c657610142565b36610142576040517f08c379a0000000000000000000000000000000000000000000000000000000008152600401610139906120ed565b60405180910390fd5b600080fd5b34801561015357600080fd5b5061015c610421565b6040516101699190612126565b60405180910390f35b34801561017e57600080fd5b50610187610440565b6040516101949190612126565b60405180910390f35b3480156101a957600080fd5b506101c460048036038101906101bf9190612212565b610446565b005b3480156101d257600080fd5b506101db6108a8565b6040516101e89190612126565b60405180910390f35b3480156101fd57600080fd5b506102066108af565b6040516102139190612126565b60405180910390f35b34801561022857600080fd5b506102316108b4565b6040516102429594939291906123ae565b60405180910390f35b34801561025757600080fd5b50610260610ab7565b6040516102709493929190612416565b60405180910390f35b34801561028557600080fd5b5061028e610c8d565b60405161029b9190612126565b60405180910390f35b6102be60048036038101906102b99190612470565b610c93565b005b3480156102cc57600080fd5b506102e760048036038101906102e2919061249d565b61101f565b6040516102fa97969594939291906124f4565b60405180910390f35b34801561030f57600080fd5b5061031861126c565b6040516103259190612126565b60405180910390f35b61034860048036038101906103439190612470565b611273565b005b34801561035657600080fd5b5061035f6114aa565b005b34801561036d57600080fd5b50610376611e8b565b6040516103839190612126565b60405180910390f35b34801561039857600080fd5b506103a1611e90565b6040516103ae9190612126565b60405180910390f35b3480156103c357600080fd5b506103cc611e96565b6040516103d99190612126565b60405180910390f35b3480156103ee57600080fd5b506104096004803603810190610404919061249d565b611e9c565b60405161041893929190612578565b60405180910390f35b6000600160008054815260200190815260200160002060020154905090565b60005481565b6000546000600160008381526020019081526020016000209050806001015442101580156104775750806002015442105b6104b6576040517f08c379a00000000000000000000000000000000000000000000000000000000081526004016104ad906125fb565b60405180910390fd5b6001600754146104fb576040517f08c379a00000000000000000000000000000000000000000000000000000000081526004016104f290612667565b60405180910390fd5b600060078190555060006001600080548152602001908152602001600020905060008160050160003373ffffffffffffffffffffffffffffffffffffffff1673ffffffffffffffffffffffffffffffffffffffff16815260200190815260200160002090506000801b8160000154036105a9576040517f08c379a00000000000000000000000000000000000000000000000000000000081526004016105a0906126d3565b60405180910390fd5b8060020160009054906101000a900460ff16156105fb576040517f08c379a00000000000000000000000000000000000000000000000000000000081526004016105f29061273f565b60405180910390fd5b8b8b8b8b8b8b8b8b60405160200161061a9897969594939291906127e0565b60405160208183030381529060405280519060200120816000015414610675576040517f08c379a000000000000000000000000000000000000000000000000000000000815260040161066c90612885565b60405180910390fd5b80600101548c11156106bc576040517f08c379a00000000000000000000000000000000000000000000000000000000081526004016106b3906128f1565b60405180910390fd5b606461070b8c8c8080601f016020809104026020016040519081016040528093929190818152602001838380828437600081840152601f19601f82011690508083019250505050505050611ed4565b111561074c576040517f08c379a00000000000000000000000000000000000000000000000000000000081526004016107439061295d565b60405180910390fd5b6207d000898990501115610795576040517f08c379a000000000000000000000000000000000000000000000000000000000815260040161078c906129c9565b60405180910390fd5b621000008787905011156107de576040517f08c379a00000000000000000000000000000000000000000000000000000000081526004016107d590612a35565b60405180910390fd5b60018160020160006101000a81548160ff0219169083151502179055508b81600301819055508a8a826004019182610817929190612c9b565b50888882600501918261082b929190612c9b565b50868682600601918261083f929190612c9b565b503373ffffffffffffffffffffffffffffffffffffffff167f7f6e696a3e1ee7b129def0b695a9ff2dbe2aa14956e7ef220fe170dfefa2b5876000548e60405161088a929190612d6b565b60405180910390a25050600160078190555050505050505050505050565b6210000081565b606481565b600060608060606000600260000160009054906101000a900473ffffffffffffffffffffffffffffffffffffffff166002600101600280016002600301620151806006546109029190612dc3565b83805461090e90612abe565b80601f016020809104026020016040519081016040528092919081815260200182805461093a90612abe565b80156109875780601f1061095c57610100808354040283529160200191610987565b820191906000526020600020905b81548152906001019060200180831161096a57829003601f168201915b5050505050935082805461099a90612abe565b80601f01602080910402602001604051908101604052809291908181526020018280546109c690612abe565b8015610a135780601f106109e857610100808354040283529160200191610a13565b820191906000526020600020905b8154815290600101906020018083116109f657829003601f168201915b50505050509250818054610a2690612abe565b80601f0160208091040260200160405190810160405280929190818152602001828054610a5290612abe565b8015610a9f5780601f10610a7457610100808354040283529160200191610a9f565b820191906000526020600020905b815481529060010190602001808311610a8257829003601f168201915b50505050509150945094509450945094509091929394565b60028060000160009054906101000a900473ffffffffffffffffffffffffffffffffffffffff1690806001018054610aee90612abe565b80601f0160208091040260200160405190810160405280929190818152602001828054610b1a90612abe565b8015610b675780601f10610b3c57610100808354040283529160200191610b67565b820191906000526020600020905b815481529060010190602001808311610b4a57829003601f168201915b505050505090806002018054610b7c90612abe565b80601f0160208091040260200160405190810160405280929190818152602001828054610ba890612abe565b8015610bf55780601f10610bca57610100808354040283529160200191610bf5565b820191906000526020600020905b815481529060010190602001808311610bd857829003601f168201915b505050505090806003018054610c0a90612abe565b80601f0160208091040260200160405190810160405280929190818152602001828054610c3690612abe565b8015610c835780601f10610c5857610100808354040283529160200191610c83565b820191906000526020600020905b815481529060010190602001808311610c6657829003601f168201915b5050505050905084565b60065481565b600054600060016000838152602001908152602001600020905080600001544210158015610cc45750806001015442105b610d03576040517f08c379a0000000000000000000000000000000000000000000000000000000008152600401610cfa90612e43565b60405180910390fd5b600160075414610d48576040517f08c379a0000000000000000000000000000000000000000000000000000000008152600401610d3f90612667565b60405180910390fd5b60006007819055506000600160008054815260200190815260200160002090506000801b8160050160003373ffffffffffffffffffffffffffffffffffffffff1673ffffffffffffffffffffffffffffffffffffffff1681526020019081526020016000206000015414610df1576040517f08c379a0000000000000000000000000000000000000000000000000000000008152600401610de890612eaf565b60405180910390fd5b60003411610e34576040517f08c379a0000000000000000000000000000000000000000000000000000000008152600401610e2b90612f1b565b60405180910390fd5b80600401339080600181540180825580915050600190039060005260206000200160009091909190916101000a81548173ffffffffffffffffffffffffffffffffffffffff021916908373ffffffffffffffffffffffffffffffffffffffff1602179055506040518060e0016040528085815260200134815260200160001515815260200160008152602001604051806020016040528060008152508152602001604051806020016040528060008152508152602001604051806020016040528060008152508152508160050160003373ffffffffffffffffffffffffffffffffffffffff1673ffffffffffffffffffffffffffffffffffffffff168152602001908152602001600020600082015181600001556020820151816001015560408201518160020160006101000a81548160ff021916908315150217905550606082015181600301556080820151816004019081610f919190612f3b565b5060a0820151816005019081610fa79190612f3b565b5060c0820151816006019081610fbd9190612f3b565b509050503373ffffffffffffffffffffffffffffffffffffffff167f5edc8168be8240adbd40c80b80100b66c85826c01bf37440d3ba9cc61e0621866000546040516110099190612126565b60405180910390a2506001600781905550505050565b60008060008060608060606000600160008a815260200190815260200160002060050160003373ffffffffffffffffffffffffffffffffffffffff1673ffffffffffffffffffffffffffffffffffffffff1681526020019081526020016000209050806000015481600101548260020160009054906101000a900460ff1683600301548460040185600501866006018280546110ba90612abe565b80601f01602080910402602001604051908101604052809291908181526020018280546110e690612abe565b80156111335780601f1061110857610100808354040283529160200191611133565b820191906000526020600020905b81548152906001019060200180831161111657829003601f168201915b5050505050925081805461114690612abe565b80601f016020809104026020016040519081016040528092919081815260200182805461117290612abe565b80156111bf5780601f10611194576101008083540402835291602001916111bf565b820191906000526020600020905b8154815290600101906020018083116111a257829003601f168201915b505050505091508080546111d290612abe565b80601f01602080910402602001604051908101604052809291908181526020018280546111fe90612abe565b801561124b5780601f106112205761010080835404028352916020019161124b565b820191906000526020600020905b81548152906001019060200180831161122e57829003601f168201915b50505050509050975097509750975097509750975050919395979092949650565b6207d00081565b6000546000600160008381526020019081526020016000209050806000015442101580156112a45750806001015442105b6112e3576040517f08c379a00000000000000000000000000000000000000000000000000000000081526004016112da90612e43565b60405180910390fd5b600160075414611328576040517f08c379a000000000000000000000000000000000000000000000000000000000815260040161131f90612667565b60405180910390fd5b600060078190555060006001600080548152602001908152602001600020905060008160050160003373ffffffffffffffffffffffffffffffffffffffff1673ffffffffffffffffffffffffffffffffffffffff16815260200190815260200160002090506000801b8160000154036113d6576040517f08c379a00000000000000000000000000000000000000000000000000000000081526004016113cd906126d3565b60405180910390fd5b8060020160009054906101000a900460ff1615611428576040517f08c379a000000000000000000000000000000000000000000000000000000000815260040161141f9061273f565b60405180910390fd5b6000801b850361146d576040517f08c379a000000000000000000000000000000000000000000000000000000000815260040161146490613059565b60405180910390fd5b6000341115611492573481600101600082825461148a9190612dc3565b925050819055505b84816000018190555050506001600781905550505050565b6000546000600160008381526020019081526020016000209050806002015442101561150b576040517f08c379a0000000000000000000000000000000000000000000000000000000008152600401611502906130c5565b60405180910390fd5b600160075414611550576040517f08c379a000000000000000000000000000000000000000000000000000000000815260040161154790612667565b60405180910390fd5b60006007819055506000600160008054815260200190815260200160002090508060030160009054906101000a900460ff16156115c2576040517f08c379a00000000000000000000000000000000000000000000000000000000081526004016115b990613131565b60405180910390fd5b6000806000805b84600401805490508110156116d85760008560040182815481106115f0576115ef613151565b5b9060005260206000200160009054906101000a900473ffffffffffffffffffffffffffffffffffffffff16905060008660050160008373ffffffffffffffffffffffffffffffffffffffff1673ffffffffffffffffffffffffffffffffffffffff16815260200190815260200160002090508060020160009054906101000a900460ff1680156116835750858160030154115b1561169a57859450806003015495508193506116c9565b8060020160009054906101000a900460ff1680156116bb5750848160030154115b156116c857806003015494505b5b505080806001019150506115c9565b50600073ffffffffffffffffffffffffffffffffffffffff168173ffffffffffffffffffffffffffffffffffffffff1603611748576040517f08c379a000000000000000000000000000000000000000000000000000000000815260040161173f906131cc565b60405180910390fd5b60008460050160008373ffffffffffffffffffffffffffffffffffffffff1673ffffffffffffffffffffffffffffffffffffffff1681526020019081526020016000209050818560060160006101000a81548173ffffffffffffffffffffffffffffffffffffffff021916908373ffffffffffffffffffffffffffffffffffffffff16021790555083856007018190555082856008018190555060018560030160006101000a81548160ff02191690831515021790555060405180608001604052808373ffffffffffffffffffffffffffffffffffffffff16815260200182600401805461183590612abe565b80601f016020809104026020016040519081016040528092919081815260200182805461186190612abe565b80156118ae5780601f10611883576101008083540402835291602001916118ae565b820191906000526020600020905b81548152906001019060200180831161189157829003601f168201915b505050505081526020018260050180546118c790612abe565b80601f01602080910402602001604051908101604052809291908181526020018280546118f390612abe565b80156119405780601f1061191557610100808354040283529160200191611940565b820191906000526020600020905b81548152906001019060200180831161192357829003601f168201915b5050505050815260200182600601805461195990612abe565b80601f016020809104026020016040519081016040528092919081815260200182805461198590612abe565b80156119d25780601f106119a7576101008083540402835291602001916119d2565b820191906000526020600020905b8154815290600101906020018083116119b557829003601f168201915b50505050508152508560090160008201518160000160006101000a81548173ffffffffffffffffffffffffffffffffffffffff021916908373ffffffffffffffffffffffffffffffffffffffff1602179055506020820151816001019081611a3a9190612f3b565b506040820151816002019081611a509190612f3b565b506060820151816003019081611a669190612f3b565b509050508460090160026000820160009054906101000a900473ffffffffffffffffffffffffffffffffffffffff168160000160006101000a81548173ffffffffffffffffffffffffffffffffffffffff021916908373ffffffffffffffffffffffffffffffffffffffff16021790555060018201816001019081611aeb9190613202565b5060028201816002019081611b009190613202565b5060038201816003019081611b159190613202565b509050504260068190555060005b8560040180549050811015611e10576000866004018281548110611b4a57611b49613151565b5b9060005260206000200160009054906101000a900473ffffffffffffffffffffffffffffffffffffffff16905060008760050160008373ffffffffffffffffffffffffffffffffffffffff1673ffffffffffffffffffffffffffffffffffffffff168152602001908152602001600020905060008573ffffffffffffffffffffffffffffffffffffffff168373ffffffffffffffffffffffffffffffffffffffff1603611cd25786826001015411611c03576000611c14565b868260010154611c1391906132ea565b5b90506000811115611ccd5760008373ffffffffffffffffffffffffffffffffffffffff1682604051611c459061334f565b60006040518083038185875af1925050503d8060008114611c82576040519150601f19603f3d011682016040523d82523d6000602084013e611c87565b606091505b5050905080611ccb576040517f08c379a0000000000000000000000000000000000000000000000000000000008152600401611cc2906133b0565b60405180910390fd5b505b611dae565b8160020160009054906101000a900460ff1615611dac57816001015490506000811115611da75760008373ffffffffffffffffffffffffffffffffffffffff1682604051611d1f9061334f565b60006040518083038185875af1925050503d8060008114611d5c576040519150601f19603f3d011682016040523d82523d6000602084013e611d61565b606091505b5050905080611da5576040517f08c379a0000000000000000000000000000000000000000000000000000000008152600401611d9c906133b0565b60405180910390fd5b505b611dad565b5b5b8273ffffffffffffffffffffffffffffffffffffffff167f73f04af9dcc582a923ec15d3eea990fe34adabfff2879e28d44572e01a54abb660005483604051611df8929190612d6b565b60405180910390a25050508080600101915050611b23565b508173ffffffffffffffffffffffffffffffffffffffff167fb66e3363ddce6e1af5cd43c439ad9f30db11e7055b4469b01f06712f37da952760005486846004018560050186600601604051611e6a959493929190613454565b60405180910390a2611e7a612008565b505050505060016007819055505050565b603c81565b61a8c081565b61a8c081565b600080600080600160008681526020019081526020016000209050806000015481600101548260020154935093509350509193909250565b6000808290506000805b825181101561200057602060f81b838281518110611eff57611efe613151565b5b602001015160f81c60f81b7effffffffffffffffffffffffffffffffffffffffffffffffffffffffffffff191614158015611f7d5750600a60f81b838281518110611f4d57611f4c613151565b5b602001015160f81c60f81b7effffffffffffffffffffffffffffffffffffffffffffffffffffffffffffff191614155b8015611fcc5750600960f81b838281518110611f9c57611f9b613151565b5b602001015160f81c60f81b7effffffffffffffffffffffffffffffffffffffffffffffffffffffffffffff191614155b15611fee5781611fe9578380611fe1906134bc565b945050600191505b611ff3565b600091505b8080600101915050611ede565b505050919050565b60008081548092919061201a906134bc565b919050555060006001600080548152602001908152602001600020905042816000018190555061a8c04261204e9190612dc3565b816001018190555061a8c081600101546120689190612dc3565b816002018190555060008160030160006101000a81548160ff02191690831515021790555050565b600082825260208201905092915050565b7f55736520636f6d6d697442696400000000000000000000000000000000000000600082015250565b60006120d7600d83612090565b91506120e2826120a1565b602082019050919050565b60006020820190508181036000830152612106816120ca565b9050919050565b6000819050919050565b6121208161210d565b82525050565b600060208201905061213b6000830184612117565b92915050565b600080fd5b600080fd5b6121548161210d565b811461215f57600080fd5b50565b6000813590506121718161214b565b92915050565b600080fd5b600080fd5b600080fd5b60008083601f84011261219c5761219b612177565b5b8235905067ffffffffffffffff8111156121b9576121b861217c565b5b6020830191508360018202830111156121d5576121d4612181565b5b9250929050565b6000819050919050565b6121ef816121dc565b81146121fa57600080fd5b50565b60008135905061220c816121e6565b92915050565b60008060008060008060008060a0898b03121561223257612231612141565b5b60006122408b828c01612162565b985050602089013567ffffffffffffffff81111561226157612260612146565b5b61226d8b828c01612186565b9750975050604089013567ffffffffffffffff8111156122905761228f612146565b5b61229c8b828c01612186565b9550955050606089013567ffffffffffffffff8111156122bf576122be612146565b5b6122cb8b828c01612186565b935093505060806122de8b828c016121fd565b9150509295985092959890939650565b600073ffffffffffffffffffffffffffffffffffffffff82169050919050565b6000612319826122ee565b9050919050565b6123298161230e565b82525050565b600081519050919050565b60005b8381101561235857808201518184015260208101905061233d565b60008484015250505050565b6000601f19601f8301169050919050565b60006123808261232f565b61238a8185612090565b935061239a81856020860161233a565b6123a381612364565b840191505092915050565b600060a0820190506123c36000830188612320565b81810360208301526123d58187612375565b905081810360408301526123e98186612375565b905081810360608301526123fd8185612375565b905061240c6080830184612117565b9695505050505050565b600060808201905061242b6000830187612320565b818103602083015261243d8186612375565b905081810360408301526124518185612375565b905081810360608301526124658184612375565b905095945050505050565b60006020828403121561248657612485612141565b5b6000612494848285016121fd565b91505092915050565b6000602082840312156124b3576124b2612141565b5b60006124c184828501612162565b91505092915050565b6124d3816121dc565b82525050565b60008115159050919050565b6124ee816124d9565b82525050565b600060e082019050612509600083018a6124ca565b6125166020830189612117565b61252360408301886124e5565b6125306060830187612117565b81810360808301526125428186612375565b905081810360a08301526125568185612375565b905081810360c083015261256a8184612375565b905098975050505050505050565b600060608201905061258d6000830186612117565b61259a6020830185612117565b6125a76040830184612117565b949350505050565b7f4e6f7420696e2072657665616c20706861736500000000000000000000000000600082015250565b60006125e5601383612090565b91506125f0826125af565b602082019050919050565b60006020820190508181036000830152612614816125d8565b9050919050565b7f5265656e7472616e637947756172643a204c4f434b4544000000000000000000600082015250565b6000612651601783612090565b915061265c8261261b565b602082019050919050565b6000602082019050818103600083015261268081612644565b9050919050565b7f4e6f20636f6d6d69740000000000000000000000000000000000000000000000600082015250565b60006126bd600983612090565b91506126c882612687565b602082019050919050565b600060208201905081810360008301526126ec816126b0565b9050919050565b7f416c72656164792072657665616c656400000000000000000000000000000000600082015250565b6000612729601083612090565b9150612734826126f3565b602082019050919050565b600060208201905081810360008301526127588161271c565b9050919050565b6000819050919050565b61277a6127758261210d565b61275f565b82525050565b600081905092915050565b82818337600083830152505050565b60006127a68385612780565b93506127b383858461278b565b82840190509392505050565b6000819050919050565b6127da6127d5826121dc565b6127bf565b82525050565b60006127ec828b612769565b6020820191506127fd82898b61279a565b915061280a82878961279a565b915061281782858761279a565b915061282382846127c9565b6020820191508190509998505050505050505050565b7f496e76616c69642072657665616c000000000000000000000000000000000000600082015250565b600061286f600e83612090565b915061287a82612839565b602082019050919050565b6000602082019050818103600083015261289e81612862565b9050919050565b7f496e73756666696369656e7420636f6c6c61746572616c000000000000000000600082015250565b60006128db601783612090565b91506128e6826128a5565b602082019050919050565b6000602082019050818103600083015261290a816128ce565b9050919050565b7f5465787420746f6f206c6f6e6700000000000000000000000000000000000000600082015250565b6000612947600d83612090565b915061295282612911565b602082019050919050565b600060208201905081810360008301526129768161293a565b9050919050565b7f496d6167652043494420746f6f206c6172676500000000000000000000000000600082015250565b60006129b3601383612090565b91506129be8261297d565b602082019050919050565b600060208201905081810360008301526129e2816129a6565b9050919050565b7f566f6963652043494420746f6f206c6172676500000000000000000000000000600082015250565b6000612a1f601383612090565b9150612a2a826129e9565b602082019050919050565b60006020820190508181036000830152612a4e81612a12565b9050919050565b600082905092915050565b7f4e487b7100000000000000000000000000000000000000000000000000000000600052604160045260246000fd5b7f4e487b7100000000000000000000000000000000000000000000000000000000600052602260045260246000fd5b60006002820490506001821680612ad657607f821691505b602082108103612ae957612ae8612a8f565b5b50919050565b60008190508160005260206000209050919050565b60006020601f8301049050919050565b600082821b905092915050565b600060088302612b517fffffffffffffffffffffffffffffffffffffffffffffffffffffffffffffffff82612b14565b612b5b8683612b14565b95508019841693508086168417925050509392505050565b6000819050919050565b6000612b98612b93612b8e8461210d565b612b73565b61210d565b9050919050565b6000819050919050565b612bb283612b7d565b612bc6612bbe82612b9f565b848454612b21565b825550505050565b600090565b612bdb612bce565b612be6818484612ba9565b505050565b5b81811015612c0a57612bff600082612bd3565b600181019050612bec565b5050565b601f821115612c4f57612c2081612aef565b612c2984612b04565b81016020851015612c38578190505b612c4c612c4485612b04565b830182612beb565b50505b505050565b600082821c905092915050565b6000612c7260001984600802612c54565b1980831691505092915050565b6000612c8b8383612c61565b9150826002028217905092915050565b612ca58383612a55565b67ffffffffffffffff811115612cbe57612cbd612a60565b5b612cc88254612abe565b612cd3828285612c0e565b6000601f831160018114612d025760008415612cf0578287013590505b612cfa8582612c7f565b865550612d62565b601f198416612d1086612aef565b60005b82811015612d3857848901358255600182019150602085019450602081019050612d13565b86831015612d555784890135612d51601f891682612c61565b8355505b6001600288020188555050505b50505050505050565b6000604082019050612d806000830185612117565b612d8d6020830184612117565b9392505050565b7f4e487b7100000000000000000000000000000000000000000000000000000000600052601160045260246000fd5b6000612dce8261210d565b9150612dd98361210d565b9250828201905080821115612df157612df0612d94565b5b92915050565b7f4e6f7420696e20636f6d6d697420706861736500000000000000000000000000600082015250565b6000612e2d601383612090565b9150612e3882612df7565b602082019050919050565b60006020820190508181036000830152612e5c81612e20565b9050919050565b7f416c726561647920636f6d6d6974746564000000000000000000000000000000600082015250565b6000612e99601183612090565b9150612ea482612e63565b602082019050919050565b60006020820190508181036000830152612ec881612e8c565b9050919050565b7f436f6c6c61746572616c20726571756972656400000000000000000000000000600082015250565b6000612f05601383612090565b9150612f1082612ecf565b602082019050919050565b60006020820190508181036000830152612f3481612ef8565b9050919050565b612f448261232f565b67ffffffffffffffff811115612f5d57612f5c612a60565b5b612f678254612abe565b612f72828285612c0e565b600060209050601f831160018114612fa55760008415612f93578287015190505b612f9d8582612c7f565b865550613005565b601f198416612fb386612aef565b60005b82811015612fdb57848901518255600182019150602085019450602081019050612fb6565b86831015612ff85784890151612ff4601f891682612c61565b8355505b6001600288020188555050505b505050505050565b7f496e76616c696420686173680000000000000000000000000000000000000000600082015250565b6000613043600c83612090565b915061304e8261300d565b602082019050919050565b6000602082019050818103600083015261307281613036565b9050919050565b7f52657665616c206e6f7420656e64656400000000000000000000000000000000600082015250565b60006130af601083612090565b91506130ba82613079565b602082019050919050565b600060208201905081810360008301526130de816130a2565b9050919050565b7f416c726561647920736574746c65640000000000000000000000000000000000600082015250565b600061311b600f83612090565b9150613126826130e5565b602082019050919050565b6000602082019050818103600083015261314a8161310e565b9050919050565b7f4e487b7100000000000000000000000000000000000000000000000000000000600052603260045260246000fd5b7f4e6f2076616c6964206269647300000000000000000000000000000000000000600082015250565b60006131b6600d83612090565b91506131c182613180565b602082019050919050565b600060208201905081810360008301526131e5816131a9565b9050919050565b6000815490506131fb81612abe565b9050919050565b8181036132105750506132e8565b613219826131ec565b67ffffffffffffffff81111561323257613231612a60565b5b61323c8254612abe565b613247828285612c0e565b6000601f8311600181146132765760008415613264578287015490505b61326e8582612c7f565b8655506132e1565b601f19841661328487612aef565b965061328f86612aef565b60005b828110156132b757848901548255600182019150600185019450602081019050613292565b868310156132d457848901546132d0601f891682612c61565b8355505b6001600288020188555050505b5050505050505b565b60006132f58261210d565b91506133008361210d565b925082820390508181111561331857613317612d94565b5b92915050565b600081905092915050565b50565b600061333960008361331e565b915061334482613329565b600082019050919050565b600061335a8261332c565b9150819050919050565b7f526566756e64206661696c656400000000000000000000000000000000000000600082015250565b600061339a600d83612090565b91506133a582613364565b602082019050919050565b600060208201905081810360008301526133c98161338d565b9050919050565b600081546133dd81612abe565b6133e78186612090565b9450600182166000811461340257600181146134185761344b565b60ff19831686528115156020028601935061344b565b61342185612aef565b60005b8381101561344357815481890152600182019150602081019050613424565b808801955050505b50505092915050565b600060a0820190506134696000830188612117565b6134766020830187612117565b818103604083015261348881866133d0565b9050818103606083015261349c81856133d0565b905081810360808301526134b081846133d0565b90509695505050505050565b60006134c78261210d565b91507fffffffffffffffffffffffffffffffffffffffffffffffffffffffffffffffff82036134f9576134f8612d94565b5b60018201905091905056fea2646970667358221220c80c603196a4fae91ecdf556203b26d405d6d215cd2ceff77b29db6df5520f9664736f6c634300081c0033",
  "devdoc": {
    "kind": "dev",
    "methods": {},
    "title": "HighestVoice",
    "version": 1
  },
  "userdoc": {
    "kind": "user",
    "methods": {
      "raiseCommit(bytes32)": {
        "notice": "Increase collateral and/or update commitment during commit phase.         Allows a bidder to raise their bid by topping up collateral and updating the commit hash."
      }
    },
    "notice": "Permissionless, second-price sealed-bid auction for projecting the loudest voice on-chain.         Each auction round lasts 24h: 12h commit, 12h reveal. Winner's post is projected for 24h.         No owner/admin, ETH only, fully decentralized.",
    "version": 1
  },
  "storageLayout": {
    "storage": [
      {
        "astId": 112,
        "contract": "contracts/HighestVoice.sol:HighestVoice",
        "label": "currentAuctionId",
        "offset": 0,
        "slot": "0",
        "type": "t_uint256"
      },
      {
        "astId": 117,
        "contract": "contracts/HighestVoice.sol:HighestVoice",
        "label": "auctions",
        "offset": 0,
        "slot": "1",
        "type": "t_mapping(t_uint256,t_struct(Auction)88_storage)"
      },
      {
        "astId": 120,
        "contract": "contracts/HighestVoice.sol:HighestVoice",
        "label": "lastWinnerPost",
        "offset": 0,
        "slot": "2",
        "type": "t_struct(Post)47_storage"
      },
      {
        "astId": 122,
        "contract": "contracts/HighestVoice.sol:HighestVoice",
        "label": "lastWinnerTime",
        "offset": 0,
        "slot": "6",
        "type": "t_uint256"
      },
      {
        "astId": 125,
        "contract": "contracts/HighestVoice.sol:HighestVoice",
        "label": "unlocked",
        "offset": 0,
        "slot": "7",
        "type": "t_uint256"
      }
    ],
    "types": {
      "t_address": {
        "encoding": "inplace",
        "label": "address",
        "numberOfBytes": "20"
      },
      "t_array(t_address)dyn_storage": {
        "base": "t_address",
        "encoding": "dynamic_array",
        "label": "address[]",
        "numberOfBytes": "32"
      },
      "t_bool": {
        "encoding": "inplace",
        "label": "bool",
        "numberOfBytes": "1"
      },
      "t_bytes32": {
        "encoding": "inplace",
        "label": "bytes32",
        "numberOfBytes": "32"
      },
      "t_mapping(t_address,t_struct(BidCommit)62_storage)": {
        "encoding": "mapping",
        "key": "t_address",
        "label": "mapping(address => struct HighestVoice.BidCommit)",
        "numberOfBytes": "32",
        "value": "t_struct(BidCommit)62_storage"
      },
      "t_mapping(t_uint256,t_struct(Auction)88_storage)": {
        "encoding": "mapping",
        "key": "t_uint256",
        "label": "mapping(uint256 => struct HighestVoice.Auction)",
        "numberOfBytes": "32",
        "value": "t_struct(Auction)88_storage"
      },
      "t_string_storage": {
        "encoding": "bytes",
        "label": "string",
        "numberOfBytes": "32"
      },
      "t_struct(Auction)88_storage": {
        "encoding": "inplace",
        "label": "struct HighestVoice.Auction",
        "members": [
          {
            "astId": 64,
            "contract": "contracts/HighestVoice.sol:HighestVoice",
            "label": "startTime",
            "offset": 0,
            "slot": "0",
            "type": "t_uint256"
          },
          {
            "astId": 66,
            "contract": "contracts/HighestVoice.sol:HighestVoice",
            "label": "commitEnd",
            "offset": 0,
            "slot": "1",
            "type": "t_uint256"
          },
          {
            "astId": 68,
            "contract": "contracts/HighestVoice.sol:HighestVoice",
            "label": "revealEnd",
            "offset": 0,
            "slot": "2",
            "type": "t_uint256"
          },
          {
            "astId": 70,
            "contract": "contracts/HighestVoice.sol:HighestVoice",
            "label": "settled",
            "offset": 0,
            "slot": "3",
            "type": "t_bool"
          },
          {
            "astId": 73,
            "contract": "contracts/HighestVoice.sol:HighestVoice",
            "label": "bidders",
            "offset": 0,
            "slot": "4",
            "type": "t_array(t_address)dyn_storage"
          },
          {
            "astId": 78,
            "contract": "contracts/HighestVoice.sol:HighestVoice",
            "label": "commits",
            "offset": 0,
            "slot": "5",
            "type": "t_mapping(t_address,t_struct(BidCommit)62_storage)"
          },
          {
            "astId": 80,
            "contract": "contracts/HighestVoice.sol:HighestVoice",
            "label": "winner",
            "offset": 0,
            "slot": "6",
            "type": "t_address"
          },
          {
            "astId": 82,
            "contract": "contracts/HighestVoice.sol:HighestVoice",
            "label": "winningBid",
            "offset": 0,
            "slot": "7",
            "type": "t_uint256"
          },
          {
            "astId": 84,
            "contract": "contracts/HighestVoice.sol:HighestVoice",
            "label": "secondBid",
            "offset": 0,
            "slot": "8",
            "type": "t_uint256"
          },
          {
            "astId": 87,
            "contract": "contracts/HighestVoice.sol:HighestVoice",
            "label": "winnerPost",
            "offset": 0,
            "slot": "9",
            "type": "t_struct(Post)47_storage"
          }
        ],
        "numberOfBytes": "416"
      },
      "t_struct(BidCommit)62_storage": {
        "encoding": "inplace",
        "label": "struct HighestVoice.BidCommit",
        "members": [
          {
            "astId": 49,
            "contract": "contracts/HighestVoice.sol:HighestVoice",
            "label": "commitHash",
            "offset": 0,
            "slot": "0",
            "type": "t_bytes32"
          },
          {
            "astId": 51,
            "contract": "contracts/HighestVoice.sol:HighestVoice",
            "label": "collateral",
            "offset": 0,
            "slot": "1",
            "type": "t_uint256"
          },
          {
            "astId": 53,
            "contract": "contracts/HighestVoice.sol:HighestVoice",
            "label": "revealed",
            "offset": 0,
            "slot": "2",
            "type": "t_bool"
          },
          {
            "astId": 55,
            "contract": "contracts/HighestVoice.sol:HighestVoice",
            "label": "revealedBid",
            "offset": 0,
            "slot": "3",
            "type": "t_uint256"
          },
          {
            "astId": 57,
            "contract": "contracts/HighestVoice.sol:HighestVoice",
            "label": "text",
            "offset": 0,
            "slot": "4",
            "type": "t_string_storage"
          },
          {
            "astId": 59,
            "contract": "contracts/HighestVoice.sol:HighestVoice",
            "label": "imageCid",
            "offset": 0,
            "slot": "5",
            "type": "t_string_storage"
          },
          {
            "astId": 61,
            "contract": "contracts/HighestVoice.sol:HighestVoice",
            "label": "voiceCid",
            "offset": 0,
            "slot": "6",
            "type": "t_string_storage"
          }
        ],
        "numberOfBytes": "224"
      },
      "t_struct(Post)47_storage": {
        "encoding": "inplace",
        "label": "struct HighestVoice.Post",
        "members": [
          {
            "astId": 40,
            "contract": "contracts/HighestVoice.sol:HighestVoice",
            "label": "owner",
            "offset": 0,
            "slot": "0",
            "type": "t_address"
          },
          {
            "astId": 42,
            "contract": "contracts/HighestVoice.sol:HighestVoice",
            "label": "text",
            "offset": 0,
            "slot": "1",
            "type": "t_string_storage"
          },
          {
            "astId": 44,
            "contract": "contracts/HighestVoice.sol:HighestVoice",
            "label": "imageCid",
            "offset": 0,
            "slot": "2",
            "type": "t_string_storage"
          },
          {
            "astId": 46,
            "contract": "contracts/HighestVoice.sol:HighestVoice",
            "label": "voiceCid",
            "offset": 0,
            "slot": "3",
            "type": "t_string_storage"
          }
        ],
        "numberOfBytes": "128"
      },
      "t_uint256": {
        "encoding": "inplace",
        "label": "uint256",
        "numberOfBytes": "32"
      }
    }
  }
}