{
  "_format": "hh-sol-artifact-1",
  "contractName": "HighestVoice",
  "sourceName": "contracts/HighestVoice.sol",
  "abi": [
    {
      "inputs": [],
      "stateMutability": "nonpayable",
      "type": "constructor"
    },
    {
      "anonymous": false,
      "inputs": [
        {
          "indexed": true,
          "internalType": "address",
          "name": "bidder",
          "type": "address"
        },
        {
          "indexed": false,
          "internalType": "uint256",
          "name": "auctionId",
          "type": "uint256"
        }
      ],
      "name": "NewCommit",
      "type": "event"
    },
    {
      "anonymous": false,
      "inputs": [
        {
          "indexed": true,
          "internalType": "address",
          "name": "bidder",
          "type": "address"
        },
        {
          "indexed": false,
          "internalType": "uint256",
          "name": "auctionId",
          "type": "uint256"
        },
        {
          "indexed": false,
          "internalType": "uint256",
          "name": "bid",
          "type": "uint256"
        }
      ],
      "name": "NewReveal",
      "type": "event"
    },
    {
      "anonymous": false,
      "inputs": [
        {
          "indexed": true,
          "internalType": "address",
          "name": "winner",
          "type": "address"
        },
        {
          "indexed": false,
          "internalType": "uint256",
          "name": "auctionId",
          "type": "uint256"
        },
        {
          "indexed": false,
          "internalType": "uint256",
          "name": "amount",
          "type": "uint256"
        },
        {
          "indexed": false,
          "internalType": "string",
          "name": "text",
          "type": "string"
        },
        {
          "indexed": false,
          "internalType": "string",
          "name": "imageCid",
          "type": "string"
        },
        {
          "indexed": false,
          "internalType": "string",
          "name": "voiceCid",
          "type": "string"
        }
      ],
      "name": "NewWinner",
      "type": "event"
    },
    {
      "anonymous": false,
      "inputs": [
        {
          "indexed": true,
          "internalType": "address",
          "name": "bidder",
          "type": "address"
        },
        {
          "indexed": false,
          "internalType": "uint256",
          "name": "auctionId",
          "type": "uint256"
        },
        {
          "indexed": false,
          "internalType": "uint256",
          "name": "amount",
          "type": "uint256"
        }
      ],
      "name": "Refund",
      "type": "event"
    },
    {
      "inputs": [],
      "name": "COMMIT_DURATION",
      "outputs": [
        {
          "internalType": "uint256",
          "name": "",
          "type": "uint256"
        }
      ],
      "stateMutability": "view",
      "type": "function"
    },
    {
      "inputs": [],
      "name": "IMAGE_CID_LIMIT",
      "outputs": [
        {
          "internalType": "uint256",
          "name": "",
          "type": "uint256"
        }
      ],
      "stateMutability": "view",
      "type": "function"
    },
    {
      "inputs": [],
      "name": "REVEAL_DURATION",
      "outputs": [
        {
          "internalType": "uint256",
          "name": "",
          "type": "uint256"
        }
      ],
      "stateMutability": "view",
      "type": "function"
    },
    {
      "inputs": [],
      "name": "VOICE_CID_LIMIT",
      "outputs": [
        {
          "internalType": "uint256",
          "name": "",
          "type": "uint256"
        }
      ],
      "stateMutability": "view",
      "type": "function"
    },
    {
      "inputs": [],
      "name": "VOICE_SECONDS_LIMIT",
      "outputs": [
        {
          "internalType": "uint256",
          "name": "",
          "type": "uint256"
        }
      ],
      "stateMutability": "view",
      "type": "function"
    },
    {
      "inputs": [],
      "name": "WORD_LIMIT",
      "outputs": [
        {
          "internalType": "uint256",
          "name": "",
          "type": "uint256"
        }
      ],
      "stateMutability": "view",
      "type": "function"
    },
    {
      "inputs": [
        {
          "internalType": "bytes32",
          "name": "commitHash",
          "type": "bytes32"
        }
      ],
      "name": "commitBid",
      "outputs": [],
      "stateMutability": "payable",
      "type": "function"
    },
    {
      "inputs": [],
      "name": "currentAuctionId",
      "outputs": [
        {
          "internalType": "uint256",
          "name": "",
          "type": "uint256"
        }
      ],
      "stateMutability": "view",
      "type": "function"
    },
    {
      "inputs": [
        {
          "internalType": "uint256",
          "name": "auctionId",
          "type": "uint256"
        }
      ],
      "name": "getAuctionTimes",
      "outputs": [
        {
          "internalType": "uint256",
          "name": "start",
          "type": "uint256"
        },
        {
          "internalType": "uint256",
          "name": "commitEnd",
          "type": "uint256"
        },
        {
          "internalType": "uint256",
          "name": "revealEnd",
          "type": "uint256"
        }
      ],
      "stateMutability": "view",
      "type": "function"
    },
    {
      "inputs": [],
      "name": "getWinnerPost",
      "outputs": [
        {
          "internalType": "address",
          "name": "owner",
          "type": "address"
        },
        {
          "internalType": "string",
          "name": "text",
          "type": "string"
        },
        {
          "internalType": "string",
          "name": "imageCid",
          "type": "string"
        },
        {
          "internalType": "string",
          "name": "voiceCid",
          "type": "string"
        },
        {
          "internalType": "uint256",
          "name": "projectedUntil",
          "type": "uint256"
        }
      ],
      "stateMutability": "view",
      "type": "function"
    },
    {
      "inputs": [],
      "name": "lastWinnerPost",
      "outputs": [
        {
          "internalType": "address",
          "name": "owner",
          "type": "address"
        },
        {
          "internalType": "string",
          "name": "text",
          "type": "string"
        },
        {
          "internalType": "string",
          "name": "imageCid",
          "type": "string"
        },
        {
          "internalType": "string",
          "name": "voiceCid",
          "type": "string"
        }
      ],
      "stateMutability": "view",
      "type": "function"
    },
    {
      "inputs": [],
      "name": "lastWinnerTime",
      "outputs": [
        {
          "internalType": "uint256",
          "name": "",
          "type": "uint256"
        }
      ],
      "stateMutability": "view",
      "type": "function"
    },
    {
      "inputs": [
        {
          "internalType": "uint256",
          "name": "bidAmount",
          "type": "uint256"
        },
        {
          "internalType": "string",
          "name": "text",
          "type": "string"
        },
        {
          "internalType": "string",
          "name": "imageCid",
          "type": "string"
        },
        {
          "internalType": "string",
          "name": "voiceCid",
          "type": "string"
        },
        {
          "internalType": "bytes32",
          "name": "salt",
          "type": "bytes32"
        }
      ],
      "name": "revealBid",
      "outputs": [],
      "stateMutability": "nonpayable",
      "type": "function"
    },
    {
      "inputs": [],
      "name": "settleAuction",
      "outputs": [],
      "stateMutability": "nonpayable",
      "type": "function"
    },
    {
      "stateMutability": "payable",
      "type": "receive"
    }
  ],
  "bytecode": "0x6080604052600160075534801561001557600080fd5b5061002461002960201b60201c565b610166565b60008081548092919061003b906100ea565b919050555060006001600080548152602001908152602001600020905042816000018190555061a8c04261006f9190610132565b816001018190555061a8c081600101546100899190610132565b816002018190555060008160030160006101000a81548160ff02191690831515021790555050565b7f4e487b7100000000000000000000000000000000000000000000000000000000600052601160045260246000fd5b6000819050919050565b60006100f5826100e0565b91507fffffffffffffffffffffffffffffffffffffffffffffffffffffffffffffffff8203610127576101266100b1565b5b600182019050919050565b600061013d826100e0565b9150610148836100e0565b92508282019050808211156101605761015f6100b1565b5b92915050565b612e4e806101756000396000f3fe6080604052600436106100e15760003560e01c806386a2cc271161007f578063b18dfeee11610059578063b18dfeee146102b6578063b39773a6146102e1578063b971e2fd1461030c578063f6cf5d7d1461033757610121565b806386a2cc27146102585780638e8dcb9314610274578063a4d0a17e1461029f57610121565b80636bd83375116100bb5780636bd83375146101a55780637069bfdb146101d057806378cad813146101ff5780638422f0221461022d57610121565b80630c0b86ca1461012657806322c6cd2d146101515780632d1449951461017a57610121565b36610121576040517f08c379a000000000000000000000000000000000000000000000000000000000815260040161011890611b9f565b60405180910390fd5b600080fd5b34801561013257600080fd5b5061013b610376565b6040516101489190611bd8565b60405180910390f35b34801561015d57600080fd5b5061017860048036038101906101739190611cc4565b61037c565b005b34801561018657600080fd5b5061018f6107de565b60405161019c9190611bd8565b60405180910390f35b3480156101b157600080fd5b506101ba6107e5565b6040516101c79190611bd8565b60405180910390f35b3480156101dc57600080fd5b506101e56107ea565b6040516101f6959493929190611e60565b60405180910390f35b34801561020b57600080fd5b506102146109ed565b6040516102249493929190611ec8565b60405180910390f35b34801561023957600080fd5b50610242610bc3565b60405161024f9190611bd8565b60405180910390f35b610272600480360381019061026d9190611f22565b610bc9565b005b34801561028057600080fd5b50610289610f55565b6040516102969190611bd8565b60405180910390f35b3480156102ab57600080fd5b506102b4610f5c565b005b3480156102c257600080fd5b506102cb61193d565b6040516102d89190611bd8565b60405180910390f35b3480156102ed57600080fd5b506102f6611942565b6040516103039190611bd8565b60405180910390f35b34801561031857600080fd5b50610321611948565b60405161032e9190611bd8565b60405180910390f35b34801561034357600080fd5b5061035e60048036038101906103599190611f4f565b61194e565b60405161036d93929190611f7c565b60405180910390f35b60005481565b6000546000600160008381526020019081526020016000209050806001015442101580156103ad5750806002015442105b6103ec576040517f08c379a00000000000000000000000000000000000000000000000000000000081526004016103e390611fff565b60405180910390fd5b600160075414610431576040517f08c379a00000000000000000000000000000000000000000000000000000000081526004016104289061206b565b60405180910390fd5b600060078190555060006001600080548152602001908152602001600020905060008160050160003373ffffffffffffffffffffffffffffffffffffffff1673ffffffffffffffffffffffffffffffffffffffff16815260200190815260200160002090506000801b8160000154036104df576040517f08c379a00000000000000000000000000000000000000000000000000000000081526004016104d6906120d7565b60405180910390fd5b8060020160009054906101000a900460ff1615610531576040517f08c379a000000000000000000000000000000000000000000000000000000000815260040161052890612143565b60405180910390fd5b8b8b8b8b8b8b8b8b6040516020016105509897969594939291906121e4565b604051602081830303815290604052805190602001208160000154146105ab576040517f08c379a00000000000000000000000000000000000000000000000000000000081526004016105a290612289565b60405180910390fd5b80600101548c11156105f2576040517f08c379a00000000000000000000000000000000000000000000000000000000081526004016105e9906122f5565b60405180910390fd5b60646106418c8c8080601f016020809104026020016040519081016040528093929190818152602001838380828437600081840152601f19601f82011690508083019250505050505050611986565b1115610682576040517f08c379a000000000000000000000000000000000000000000000000000000000815260040161067990612361565b60405180910390fd5b6207d0008989905011156106cb576040517f08c379a00000000000000000000000000000000000000000000000000000000081526004016106c2906123cd565b60405180910390fd5b62100000878790501115610714576040517f08c379a000000000000000000000000000000000000000000000000000000000815260040161070b90612439565b60405180910390fd5b60018160020160006101000a81548160ff0219169083151502179055508b81600301819055508a8a82600401918261074d92919061269f565b50888882600501918261076192919061269f565b50868682600601918261077592919061269f565b503373ffffffffffffffffffffffffffffffffffffffff167f7f6e696a3e1ee7b129def0b695a9ff2dbe2aa14956e7ef220fe170dfefa2b5876000548e6040516107c092919061276f565b60405180910390a25050600160078190555050505050505050505050565b6210000081565b606481565b600060608060606000600260000160009054906101000a900473ffffffffffffffffffffffffffffffffffffffff1660026001016002800160026003016201518060065461083891906127c7565b838054610844906124c2565b80601f0160208091040260200160405190810160405280929190818152602001828054610870906124c2565b80156108bd5780601f10610892576101008083540402835291602001916108bd565b820191906000526020600020905b8154815290600101906020018083116108a057829003601f168201915b505050505093508280546108d0906124c2565b80601f01602080910402602001604051908101604052809291908181526020018280546108fc906124c2565b80156109495780601f1061091e57610100808354040283529160200191610949565b820191906000526020600020905b81548152906001019060200180831161092c57829003601f168201915b5050505050925081805461095c906124c2565b80601f0160208091040260200160405190810160405280929190818152602001828054610988906124c2565b80156109d55780601f106109aa576101008083540402835291602001916109d5565b820191906000526020600020905b8154815290600101906020018083116109b857829003601f168201915b50505050509150945094509450945094509091929394565b60028060000160009054906101000a900473ffffffffffffffffffffffffffffffffffffffff1690806001018054610a24906124c2565b80601f0160208091040260200160405190810160405280929190818152602001828054610a50906124c2565b8015610a9d5780601f10610a7257610100808354040283529160200191610a9d565b820191906000526020600020905b815481529060010190602001808311610a8057829003601f168201915b505050505090806002018054610ab2906124c2565b80601f0160208091040260200160405190810160405280929190818152602001828054610ade906124c2565b8015610b2b5780601f10610b0057610100808354040283529160200191610b2b565b820191906000526020600020905b815481529060010190602001808311610b0e57829003601f168201915b505050505090806003018054610b40906124c2565b80601f0160208091040260200160405190810160405280929190818152602001828054610b6c906124c2565b8015610bb95780601f10610b8e57610100808354040283529160200191610bb9565b820191906000526020600020905b815481529060010190602001808311610b9c57829003601f168201915b5050505050905084565b60065481565b600054600060016000838152602001908152602001600020905080600001544210158015610bfa5750806001015442105b610c39576040517f08c379a0000000000000000000000000000000000000000000000000000000008152600401610c3090612847565b60405180910390fd5b600160075414610c7e576040517f08c379a0000000000000000000000000000000000000000000000000000000008152600401610c759061206b565b60405180910390fd5b60006007819055506000600160008054815260200190815260200160002090506000801b8160050160003373ffffffffffffffffffffffffffffffffffffffff1673ffffffffffffffffffffffffffffffffffffffff1681526020019081526020016000206000015414610d27576040517f08c379a0000000000000000000000000000000000000000000000000000000008152600401610d1e906128b3565b60405180910390fd5b60003411610d6a576040517f08c379a0000000000000000000000000000000000000000000000000000000008152600401610d619061291f565b60405180910390fd5b80600401339080600181540180825580915050600190039060005260206000200160009091909190916101000a81548173ffffffffffffffffffffffffffffffffffffffff021916908373ffffffffffffffffffffffffffffffffffffffff1602179055506040518060e0016040528085815260200134815260200160001515815260200160008152602001604051806020016040528060008152508152602001604051806020016040528060008152508152602001604051806020016040528060008152508152508160050160003373ffffffffffffffffffffffffffffffffffffffff1673ffffffffffffffffffffffffffffffffffffffff168152602001908152602001600020600082015181600001556020820151816001015560408201518160020160006101000a81548160ff021916908315150217905550606082015181600301556080820151816004019081610ec7919061293f565b5060a0820151816005019081610edd919061293f565b5060c0820151816006019081610ef3919061293f565b509050503373ffffffffffffffffffffffffffffffffffffffff167f5edc8168be8240adbd40c80b80100b66c85826c01bf37440d3ba9cc61e062186600054604051610f3f9190611bd8565b60405180910390a2506001600781905550505050565b6207d00081565b60005460006001600083815260200190815260200160002090508060020154421015610fbd576040517f08c379a0000000000000000000000000000000000000000000000000000000008152600401610fb490612a5d565b60405180910390fd5b600160075414611002576040517f08c379a0000000000000000000000000000000000000000000000000000000008152600401610ff99061206b565b60405180910390fd5b60006007819055506000600160008054815260200190815260200160002090508060030160009054906101000a900460ff1615611074576040517f08c379a000000000000000000000000000000000000000000000000000000000815260040161106b90612ac9565b60405180910390fd5b6000806000606080606060005b87600401805490508110156111905760008860040182815481106110a8576110a7612ae9565b5b9060005260206000200160009054906101000a900473ffffffffffffffffffffffffffffffffffffffff16905060008960050160008373ffffffffffffffffffffffffffffffffffffffff1673ffffffffffffffffffffffffffffffffffffffff16815260200190815260200160002090508060020160009054906101000a900460ff16801561113b5750888160030154115b156111525788975080600301549850819650611181565b8060020160009054906101000a900460ff1680156111735750878160030154115b1561118057806003015497505b5b50508080600101915050611081565b50600073ffffffffffffffffffffffffffffffffffffffff168473ffffffffffffffffffffffffffffffffffffffff1603611200576040517f08c379a00000000000000000000000000000000000000000000000000000000081526004016111f790612b64565b60405180910390fd5b60008760050160008673ffffffffffffffffffffffffffffffffffffffff1673ffffffffffffffffffffffffffffffffffffffff1681526020019081526020016000209050848860060160006101000a81548173ffffffffffffffffffffffffffffffffffffffff021916908373ffffffffffffffffffffffffffffffffffffffff16021790555086886007018190555085886008018190555060018860030160006101000a81548160ff02191690831515021790555060405180608001604052808673ffffffffffffffffffffffffffffffffffffffff1681526020018260040180546112ed906124c2565b80601f0160208091040260200160405190810160405280929190818152602001828054611319906124c2565b80156113665780601f1061133b57610100808354040283529160200191611366565b820191906000526020600020905b81548152906001019060200180831161134957829003601f168201915b5050505050815260200182600501805461137f906124c2565b80601f01602080910402602001604051908101604052809291908181526020018280546113ab906124c2565b80156113f85780601f106113cd576101008083540402835291602001916113f8565b820191906000526020600020905b8154815290600101906020018083116113db57829003601f168201915b50505050508152602001826006018054611411906124c2565b80601f016020809104026020016040519081016040528092919081815260200182805461143d906124c2565b801561148a5780601f1061145f5761010080835404028352916020019161148a565b820191906000526020600020905b81548152906001019060200180831161146d57829003601f168201915b50505050508152508860090160008201518160000160006101000a81548173ffffffffffffffffffffffffffffffffffffffff021916908373ffffffffffffffffffffffffffffffffffffffff16021790555060208201518160010190816114f2919061293f565b506040820151816002019081611508919061293f565b50606082015181600301908161151e919061293f565b509050508760090160026000820160009054906101000a900473ffffffffffffffffffffffffffffffffffffffff168160000160006101000a81548173ffffffffffffffffffffffffffffffffffffffff021916908373ffffffffffffffffffffffffffffffffffffffff160217905550600182018160010190816115a39190612b9a565b50600282018160020190816115b89190612b9a565b50600382018160030190816115cd9190612b9a565b509050504260068190555060005b88600401805490508110156118c857600089600401828154811061160257611601612ae9565b5b9060005260206000200160009054906101000a900473ffffffffffffffffffffffffffffffffffffffff16905060008a60050160008373ffffffffffffffffffffffffffffffffffffffff1673ffffffffffffffffffffffffffffffffffffffff168152602001908152602001600020905060008873ffffffffffffffffffffffffffffffffffffffff168373ffffffffffffffffffffffffffffffffffffffff160361178a57898260010154116116bb5760006116cc565b8982600101546116cb9190612c82565b5b905060008111156117855760008373ffffffffffffffffffffffffffffffffffffffff16826040516116fd90612ce7565b60006040518083038185875af1925050503d806000811461173a576040519150601f19603f3d011682016040523d82523d6000602084013e61173f565b606091505b5050905080611783576040517f08c379a000000000000000000000000000000000000000000000000000000000815260040161177a90612d48565b60405180910390fd5b505b611866565b8160020160009054906101000a900460ff16156118645781600101549050600081111561185f5760008373ffffffffffffffffffffffffffffffffffffffff16826040516117d790612ce7565b60006040518083038185875af1925050503d8060008114611814576040519150601f19603f3d011682016040523d82523d6000602084013e611819565b606091505b505090508061185d576040517f08c379a000000000000000000000000000000000000000000000000000000000815260040161185490612d48565b60405180910390fd5b505b611865565b5b5b8273ffffffffffffffffffffffffffffffffffffffff167f73f04af9dcc582a923ec15d3eea990fe34adabfff2879e28d44572e01a54abb6600054836040516118b092919061276f565b60405180910390a250505080806001019150506115db565b508473ffffffffffffffffffffffffffffffffffffffff167fb66e3363ddce6e1af5cd43c439ad9f30db11e7055b4469b01f06712f37da952760005489878787604051611919959493929190612d68565b60405180910390a2611929611aba565b505050505050505060016007819055505050565b603c81565b61a8c081565b61a8c081565b600080600080600160008681526020019081526020016000209050806000015481600101548260020154935093509350509193909250565b6000808290506000805b8251811015611ab257602060f81b8382815181106119b1576119b0612ae9565b5b602001015160f81c60f81b7effffffffffffffffffffffffffffffffffffffffffffffffffffffffffffff191614158015611a2f5750600a60f81b8382815181106119ff576119fe612ae9565b5b602001015160f81c60f81b7effffffffffffffffffffffffffffffffffffffffffffffffffffffffffffff191614155b8015611a7e5750600960f81b838281518110611a4e57611a4d612ae9565b5b602001015160f81c60f81b7effffffffffffffffffffffffffffffffffffffffffffffffffffffffffffff191614155b15611aa05781611a9b578380611a9390612dd0565b945050600191505b611aa5565b600091505b8080600101915050611990565b505050919050565b600080815480929190611acc90612dd0565b919050555060006001600080548152602001908152602001600020905042816000018190555061a8c042611b0091906127c7565b816001018190555061a8c08160010154611b1a91906127c7565b816002018190555060008160030160006101000a81548160ff02191690831515021790555050565b600082825260208201905092915050565b7f55736520636f6d6d697442696400000000000000000000000000000000000000600082015250565b6000611b89600d83611b42565b9150611b9482611b53565b602082019050919050565b60006020820190508181036000830152611bb881611b7c565b9050919050565b6000819050919050565b611bd281611bbf565b82525050565b6000602082019050611bed6000830184611bc9565b92915050565b600080fd5b600080fd5b611c0681611bbf565b8114611c1157600080fd5b50565b600081359050611c2381611bfd565b92915050565b600080fd5b600080fd5b600080fd5b60008083601f840112611c4e57611c4d611c29565b5b8235905067ffffffffffffffff811115611c6b57611c6a611c2e565b5b602083019150836001820283011115611c8757611c86611c33565b5b9250929050565b6000819050919050565b611ca181611c8e565b8114611cac57600080fd5b50565b600081359050611cbe81611c98565b92915050565b60008060008060008060008060a0898b031215611ce457611ce3611bf3565b5b6000611cf28b828c01611c14565b985050602089013567ffffffffffffffff811115611d1357611d12611bf8565b5b611d1f8b828c01611c38565b9750975050604089013567ffffffffffffffff811115611d4257611d41611bf8565b5b611d4e8b828c01611c38565b9550955050606089013567ffffffffffffffff811115611d7157611d70611bf8565b5b611d7d8b828c01611c38565b93509350506080611d908b828c01611caf565b9150509295985092959890939650565b600073ffffffffffffffffffffffffffffffffffffffff82169050919050565b6000611dcb82611da0565b9050919050565b611ddb81611dc0565b82525050565b600081519050919050565b60005b83811015611e0a578082015181840152602081019050611def565b60008484015250505050565b6000601f19601f8301169050919050565b6000611e3282611de1565b611e3c8185611b42565b9350611e4c818560208601611dec565b611e5581611e16565b840191505092915050565b600060a082019050611e756000830188611dd2565b8181036020830152611e878187611e27565b90508181036040830152611e9b8186611e27565b90508181036060830152611eaf8185611e27565b9050611ebe6080830184611bc9565b9695505050505050565b6000608082019050611edd6000830187611dd2565b8181036020830152611eef8186611e27565b90508181036040830152611f038185611e27565b90508181036060830152611f178184611e27565b905095945050505050565b600060208284031215611f3857611f37611bf3565b5b6000611f4684828501611caf565b91505092915050565b600060208284031215611f6557611f64611bf3565b5b6000611f7384828501611c14565b91505092915050565b6000606082019050611f916000830186611bc9565b611f9e6020830185611bc9565b611fab6040830184611bc9565b949350505050565b7f4e6f7420696e2072657665616c20706861736500000000000000000000000000600082015250565b6000611fe9601383611b42565b9150611ff482611fb3565b602082019050919050565b6000602082019050818103600083015261201881611fdc565b9050919050565b7f5265656e7472616e637947756172643a204c4f434b4544000000000000000000600082015250565b6000612055601783611b42565b91506120608261201f565b602082019050919050565b6000602082019050818103600083015261208481612048565b9050919050565b7f4e6f20636f6d6d69740000000000000000000000000000000000000000000000600082015250565b60006120c1600983611b42565b91506120cc8261208b565b602082019050919050565b600060208201905081810360008301526120f0816120b4565b9050919050565b7f416c72656164792072657665616c656400000000000000000000000000000000600082015250565b600061212d601083611b42565b9150612138826120f7565b602082019050919050565b6000602082019050818103600083015261215c81612120565b9050919050565b6000819050919050565b61217e61217982611bbf565b612163565b82525050565b600081905092915050565b82818337600083830152505050565b60006121aa8385612184565b93506121b783858461218f565b82840190509392505050565b6000819050919050565b6121de6121d982611c8e565b6121c3565b82525050565b60006121f0828b61216d565b60208201915061220182898b61219e565b915061220e82878961219e565b915061221b82858761219e565b915061222782846121cd565b6020820191508190509998505050505050505050565b7f496e76616c69642072657665616c000000000000000000000000000000000000600082015250565b6000612273600e83611b42565b915061227e8261223d565b602082019050919050565b600060208201905081810360008301526122a281612266565b9050919050565b7f496e73756666696369656e7420636f6c6c61746572616c000000000000000000600082015250565b60006122df601783611b42565b91506122ea826122a9565b602082019050919050565b6000602082019050818103600083015261230e816122d2565b9050919050565b7f5465787420746f6f206c6f6e6700000000000000000000000000000000000000600082015250565b600061234b600d83611b42565b915061235682612315565b602082019050919050565b6000602082019050818103600083015261237a8161233e565b9050919050565b7f496d6167652043494420746f6f206c6172676500000000000000000000000000600082015250565b60006123b7601383611b42565b91506123c282612381565b602082019050919050565b600060208201905081810360008301526123e6816123aa565b9050919050565b7f566f6963652043494420746f6f206c6172676500000000000000000000000000600082015250565b6000612423601383611b42565b915061242e826123ed565b602082019050919050565b6000602082019050818103600083015261245281612416565b9050919050565b600082905092915050565b7f4e487b7100000000000000000000000000000000000000000000000000000000600052604160045260246000fd5b7f4e487b7100000000000000000000000000000000000000000000000000000000600052602260045260246000fd5b600060028204905060018216806124da57607f821691505b6020821081036124ed576124ec612493565b5b50919050565b60008190508160005260206000209050919050565b60006020601f8301049050919050565b600082821b905092915050565b6000600883026125557fffffffffffffffffffffffffffffffffffffffffffffffffffffffffffffffff82612518565b61255f8683612518565b95508019841693508086168417925050509392505050565b6000819050919050565b600061259c61259761259284611bbf565b612577565b611bbf565b9050919050565b6000819050919050565b6125b683612581565b6125ca6125c2826125a3565b848454612525565b825550505050565b600090565b6125df6125d2565b6125ea8184846125ad565b505050565b5b8181101561260e576126036000826125d7565b6001810190506125f0565b5050565b601f82111561265357612624816124f3565b61262d84612508565b8101602085101561263c578190505b61265061264885612508565b8301826125ef565b50505b505050565b600082821c905092915050565b600061267660001984600802612658565b1980831691505092915050565b600061268f8383612665565b9150826002028217905092915050565b6126a98383612459565b67ffffffffffffffff8111156126c2576126c1612464565b5b6126cc82546124c2565b6126d7828285612612565b6000601f83116001811461270657600084156126f4578287013590505b6126fe8582612683565b865550612766565b601f198416612714866124f3565b60005b8281101561273c57848901358255600182019150602085019450602081019050612717565b868310156127595784890135612755601f891682612665565b8355505b6001600288020188555050505b50505050505050565b60006040820190506127846000830185611bc9565b6127916020830184611bc9565b9392505050565b7f4e487b7100000000000000000000000000000000000000000000000000000000600052601160045260246000fd5b60006127d282611bbf565b91506127dd83611bbf565b92508282019050808211156127f5576127f4612798565b5b92915050565b7f4e6f7420696e20636f6d6d697420706861736500000000000000000000000000600082015250565b6000612831601383611b42565b915061283c826127fb565b602082019050919050565b6000602082019050818103600083015261286081612824565b9050919050565b7f416c726561647920636f6d6d6974746564000000000000000000000000000000600082015250565b600061289d601183611b42565b91506128a882612867565b602082019050919050565b600060208201905081810360008301526128cc81612890565b9050919050565b7f436f6c6c61746572616c20726571756972656400000000000000000000000000600082015250565b6000612909601383611b42565b9150612914826128d3565b602082019050919050565b60006020820190508181036000830152612938816128fc565b9050919050565b61294882611de1565b67ffffffffffffffff81111561296157612960612464565b5b61296b82546124c2565b612976828285612612565b600060209050601f8311600181146129a95760008415612997578287015190505b6129a18582612683565b865550612a09565b601f1984166129b7866124f3565b60005b828110156129df578489015182556001820191506020850194506020810190506129ba565b868310156129fc57848901516129f8601f891682612665565b8355505b6001600288020188555050505b505050505050565b7f52657665616c206e6f7420656e64656400000000000000000000000000000000600082015250565b6000612a47601083611b42565b9150612a5282612a11565b602082019050919050565b60006020820190508181036000830152612a7681612a3a565b9050919050565b7f416c726561647920736574746c65640000000000000000000000000000000000600082015250565b6000612ab3600f83611b42565b9150612abe82612a7d565b602082019050919050565b60006020820190508181036000830152612ae281612aa6565b9050919050565b7f4e487b7100000000000000000000000000000000000000000000000000000000600052603260045260246000fd5b7f4e6f2076616c6964206269647300000000000000000000000000000000000000600082015250565b6000612b4e600d83611b42565b9150612b5982612b18565b602082019050919050565b60006020820190508181036000830152612b7d81612b41565b9050919050565b600081549050612b93816124c2565b9050919050565b818103612ba8575050612c80565b612bb182612b84565b67ffffffffffffffff811115612bca57612bc9612464565b5b612bd482546124c2565b612bdf828285612612565b6000601f831160018114612c0e5760008415612bfc578287015490505b612c068582612683565b865550612c79565b601f198416612c1c876124f3565b9650612c27866124f3565b60005b82811015612c4f57848901548255600182019150600185019450602081019050612c2a565b86831015612c6c5784890154612c68601f891682612665565b8355505b6001600288020188555050505b5050505050505b565b6000612c8d82611bbf565b9150612c9883611bbf565b9250828203905081811115612cb057612caf612798565b5b92915050565b600081905092915050565b50565b6000612cd1600083612cb6565b9150612cdc82612cc1565b600082019050919050565b6000612cf282612cc4565b9150819050919050565b7f526566756e64206661696c656400000000000000000000000000000000000000600082015250565b6000612d32600d83611b42565b9150612d3d82612cfc565b602082019050919050565b60006020820190508181036000830152612d6181612d25565b9050919050565b600060a082019050612d7d6000830188611bc9565b612d8a6020830187611bc9565b8181036040830152612d9c8186611e27565b90508181036060830152612db08185611e27565b90508181036080830152612dc48184611e27565b90509695505050505050565b6000612ddb82611bbf565b91507fffffffffffffffffffffffffffffffffffffffffffffffffffffffffffffffff8203612e0d57612e0c612798565b5b60018201905091905056fea264697066735822122022009f104f617bb4f1d0dfaf7013319b4910c308f6e1247e44c1974e640b0b0164736f6c634300081c0033",
  "linkReferences": {},
  "deployedLinkReferences": {}
}